{
	"data": {
		"bytecode": {
			"linkReferences": {},
			"object": "60a060405234801561001057600080fd5b506040516115c53803806115c583398101604081905261002f9161009e565b600080546001600160a01b03199081163317909155600180546001600160a01b0394851690831617905591166080526002805490911673d4a33860578de61dbabdc8bfdb98fd742fa7028e1790556100d1565b80516001600160a01b038116811461009957600080fd5b919050565b600080604083850312156100b157600080fd5b6100ba83610082565b91506100c860208401610082565b90509250929050565b6080516114d26100f360003960008181610195015261072401526114d26000f3fe608060405234801561001057600080fd5b50600436106100cf5760003560e01c8063a0840ec41161008c578063ccf1580211610066578063ccf15802146101ca578063e4368f0f146101dd578063f50b8974146101f0578063f887ea401461020357600080fd5b8063a0840ec41461017d578063ad5c464814610190578063b4d843ae146101b757600080fd5b8063162645be146100d457806329079cfa146100fc578063550a4a391461010f57806386b04dca146101225780638da5cb5b1461013c57806394e9925614610167575b600080fd5b6100e76100e2366004610eb8565b610216565b60405190151581526020015b60405180910390f35b6100e761010a366004610efa565b610243565b6100e761011d366004610f3b565b610267565b61012a6102b5565b60405160ff90911681526020016100f3565b60005461014f906001600160a01b031681565b6040516001600160a01b0390911681526020016100f3565b61016f610335565b6040519081526020016100f3565b6100e761018b366004610fa9565b6103ba565b61014f7f000000000000000000000000000000000000000000000000000000000000000081565b6100e76101c5366004610fa9565b6103f4565b6100e76101d8366004610fcd565b6104e9565b6100e76101eb366004610f3b565b61052a565b61016f6101fe36600461101e565b61068b565b60015461014f906001600160a01b031681565b600080546001600160a01b0316331461022e57600080fd5b610239848385610c2c565b5060019392505050565b600080546001600160a01b0316331461025b57600080fd5b61023984843085610d62565b6000336001600160a01b03861614610291576040516282b42960e81b815260040160405180910390fd5b61029d84873086610d62565b6102a8878684610c2c565b5060019695505050505050565b600080600260009054906101000a90046001600160a01b03166001600160a01b031663313ce5676040518163ffffffff1660e01b8152600401602060405180830381865afa15801561030b573d6000803e3d6000fd5b505050506040513d601f19601f8201168201806040525081019061032f9190611057565b92915050565b600080600260009054906101000a90046001600160a01b03166001600160a01b031663feaf968c6040518163ffffffff1660e01b815260040160a060405180830381865afa15801561038b573d6000803e3d6000fd5b505050506040513d601f19601f820116820180604052508101906103af9190611094565b509195945050505050565b600080546001600160a01b031633146103d257600080fd5b50600180546001600160a01b0319166001600160a01b0383161781555b919050565b600080546001600160a01b0316331461040c57600080fd5b6000826001600160a01b03166318160ddd6040518163ffffffff1660e01b8152600401602060405180830381865afa15801561044c573d6000803e3d6000fd5b505050506040513d601f19601f8201168201806040525081019061047091906110e4565b60015460405163095ea7b360e01b81526001600160a01b0391821660048201526024810183905291925084169063095ea7b3906044016020604051808303816000875af11580156104c5573d6000803e3d6000fd5b505050506040513d601f19601f8201168201806040525081019061023991906110fd565b6000336001600160a01b03841614610513576040516282b42960e81b815260040160405180910390fd5b61051f85858585610d62565b506001949350505050565b6000336001600160a01b03861614610554576040516282b42960e81b815260040160405180910390fd5b604080516002808252606082018352600092602083019080368337019050509050848160008151811061058957610589611135565b60200260200101906001600160a01b031690816001600160a01b03168152505087816001815181106105bd576105bd611135565b60200260200101906001600160a01b031690816001600160a01b0316815250506105e985883087610d62565b6001546001600160a01b0316638803dbee8486843061060a42610258611161565b6040518663ffffffff1660e01b815260040161062a959493929190611179565b6000604051808303816000875af1158015610649573d6000803e3d6000fd5b505050506040513d6000823e601f3d908101601f1916820160405261067191908101906111ea565b5061067d888785610c2c565b506001979650505050505050565b600080600160009054906101000a90046001600160a01b03166001600160a01b031663c45a01556040518163ffffffff1660e01b8152600401602060405180830381865afa1580156106e1573d6000803e3d6000fd5b505050506040513d601f19601f8201168201806040525081019061070591906112a8565b60405163e6a4390560e01b81526001600160a01b0386811660048301527f000000000000000000000000000000000000000000000000000000000000000081166024830152919091169063e6a4390590604401602060405180830381865afa158015610775573d6000803e3d6000fd5b505050506040513d601f19601f8201168201806040525081019061079991906112a8565b90506000836001600160a01b031663313ce5676040518163ffffffff1660e01b8152600401602060405180830381865afa1580156107db573d6000803e3d6000fd5b505050506040513d601f19601f820116820180604052508101906107ff9190611057565b60ff1690506000826001600160a01b0316630dfe16816040518163ffffffff1660e01b8152600401602060405180830381865afa158015610844573d6000803e3d6000fd5b505050506040513d601f19601f8201168201806040525081019061086891906112a8565b6001600160a01b031663313ce5676040518163ffffffff1660e01b8152600401602060405180830381865afa1580156108a5573d6000803e3d6000fd5b505050506040513d601f19601f820116820180604052508101906108c99190611057565b60ff1690506000836001600160a01b031663d21220a76040518163ffffffff1660e01b8152600401602060405180830381865afa15801561090e573d6000803e3d6000fd5b505050506040513d601f19601f8201168201806040525081019061093291906112a8565b6001600160a01b031663313ce5676040518163ffffffff1660e01b8152600401602060405180830381865afa15801561096f573d6000803e3d6000fd5b505050506040513d601f19601f820116820180604052508101906109939190611057565b60ff169050600080856001600160a01b0316630902f1ac6040518163ffffffff1660e01b8152600401606060405180830381865afa1580156109d9573d6000803e3d6000fd5b505050506040513d601f19601f820116820180604052508101906109fd91906112dc565b506001600160701b03918216935016905060008282610a1d87600a611405565b610a28906001611411565b610a329190611411565b610a3c9190611430565b905060008284610a4d87600a611405565b610a58906001611411565b610a629190611411565b610a6c9190611430565b90506000610a78610335565b90506000610a846102b5565b90506000610a9382600a611452565b610a9d9084611430565b9050600081610aad8c600a611405565b610ab8906001611411565b610ac29190611411565b90508b6001600160a01b0316630dfe16816040518163ffffffff1660e01b8152600401602060405180830381865afa158015610b02573d6000803e3d6000fd5b505050506040513d601f19601f82011682018060405250810190610b2691906112a8565b6001600160a01b03168f6001600160a01b031603610b71578481610b4b8c600a611405565b610b56906001611411565b610b609190611411565b610b6a9190611430565b9c50610c1a565b8b6001600160a01b031663d21220a76040518163ffffffff1660e01b8152600401602060405180830381865afa158015610baf573d6000803e3d6000fd5b505050506040513d601f19601f82011682018060405250810190610bd391906112a8565b6001600160a01b03168f6001600160a01b031603610c1a578581610bf88b600a611405565b610c03906001611411565b610c0d9190611411565b610c179190611430565b9c505b50505050505050505050505092915050565b604080516001600160a01b038481166024830152604480830185905283518084039091018152606490920183526020820180516001600160e01b031663a9059cbb60e01b1790529151600092839290871691610c889190611461565b6000604051808303816000865af19150503d8060008114610cc5576040519150601f19603f3d011682016040523d82523d6000602084013e610cca565b606091505b5091509150818015610cf4575080511580610cf4575080806020019051810190610cf491906110fd565b610d5b5760405162461bcd60e51b815260206004820152602d60248201527f5472616e7366657248656c7065723a3a736166655472616e736665723a20747260448201526c185b9cd9995c8819985a5b1959609a1b60648201526084015b60405180910390fd5b5050505050565b604080516001600160a01b0385811660248301528481166044830152606480830185905283518084039091018152608490920183526020820180516001600160e01b03166323b872dd60e01b1790529151600092839290881691610dc69190611461565b6000604051808303816000865af19150503d8060008114610e03576040519150601f19603f3d011682016040523d82523d6000602084013e610e08565b606091505b5091509150818015610e32575080511580610e32575080806020019051810190610e3291906110fd565b610e985760405162461bcd60e51b815260206004820152603160248201527f5472616e7366657248656c7065723a3a7472616e7366657246726f6d3a207472604482015270185b9cd9995c919c9bdb4819985a5b1959607a1b6064820152608401610d52565b505050505050565b6001600160a01b0381168114610eb557600080fd5b50565b600080600060608486031215610ecd57600080fd5b8335610ed881610ea0565b9250602084013591506040840135610eef81610ea0565b809150509250925092565b600080600060608486031215610f0f57600080fd5b8335610f1a81610ea0565b92506020840135610f2a81610ea0565b929592945050506040919091013590565b60008060008060008060c08789031215610f5457600080fd5b8635610f5f81610ea0565b95506020870135610f6f81610ea0565b94506040870135610f7f81610ea0565b93506060870135610f8f81610ea0565b9598949750929560808101359460a0909101359350915050565b600060208284031215610fbb57600080fd5b8135610fc681610ea0565b9392505050565b60008060008060808587031215610fe357600080fd5b8435610fee81610ea0565b93506020850135610ffe81610ea0565b9250604085013561100e81610ea0565b9396929550929360600135925050565b6000806040838503121561103157600080fd5b823561103c81610ea0565b9150602083013561104c81610ea0565b809150509250929050565b60006020828403121561106957600080fd5b815160ff81168114610fc657600080fd5b805169ffffffffffffffffffff811681146103ef57600080fd5b600080600080600060a086880312156110ac57600080fd5b6110b58661107a565b94506020860151935060408601519250606086015191506110d86080870161107a565b90509295509295909350565b6000602082840312156110f657600080fd5b5051919050565b60006020828403121561110f57600080fd5b81518015158114610fc657600080fd5b634e487b7160e01b600052604160045260246000fd5b634e487b7160e01b600052603260045260246000fd5b634e487b7160e01b600052601160045260246000fd5b600082198211156111745761117461114b565b500190565b600060a082018783526020878185015260a0604085015281875180845260c086019150828901935060005b818110156111c95784516001600160a01b0316835293830193918301916001016111a4565b50506001600160a01b03969096166060850152505050608001529392505050565b600060208083850312156111fd57600080fd5b825167ffffffffffffffff8082111561121557600080fd5b818501915085601f83011261122957600080fd5b81518181111561123b5761123b61111f565b8060051b604051601f19603f830116810181811085821117156112605761126061111f565b60405291825284820192508381018501918883111561127e57600080fd5b938501935b8285101561129c57845184529385019392850192611283565b98975050505050505050565b6000602082840312156112ba57600080fd5b8151610fc681610ea0565b80516001600160701b03811681146103ef57600080fd5b6000806000606084860312156112f157600080fd5b6112fa846112c5565b9250611308602085016112c5565b9150604084015163ffffffff81168114610eef57600080fd5b600181815b8085111561135c5781600019048211156113425761134261114b565b8085161561134f57918102915b93841c9390800290611326565b509250929050565b6000826113735750600161032f565b816113805750600061032f565b816001811461139657600281146113a0576113bc565b600191505061032f565b60ff8411156113b1576113b161114b565b50506001821b61032f565b5060208310610133831016604e8410600b84101617156113df575081810a61032f565b6113e98383611321565b80600019048211156113fd576113fd61114b565b029392505050565b6000610fc68383611364565b600081600019048311821515161561142b5761142b61114b565b500290565b60008261144d57634e487b7160e01b600052601260045260246000fd5b500490565b6000610fc660ff841683611364565b6000825160005b818110156114825760208186018101518583015201611468565b81811115611491576000828501525b50919091019291505056fea2646970667358221220f5ce86cc85eaed4476f8496b83263f12902b194339995667ee37844584d4461c64736f6c634300080e0033",
			"opcodes": "PUSH1 0xA0 PUSH1 0x40 MSTORE CALLVALUE DUP1 ISZERO PUSH2 0x10 JUMPI PUSH1 0x0 DUP1 REVERT JUMPDEST POP PUSH1 0x40 MLOAD PUSH2 0x15C5 CODESIZE SUB DUP1 PUSH2 0x15C5 DUP4 CODECOPY DUP2 ADD PUSH1 0x40 DUP2 SWAP1 MSTORE PUSH2 0x2F SWAP2 PUSH2 0x9E JUMP JUMPDEST PUSH1 0x0 DUP1 SLOAD PUSH1 0x1 PUSH1 0x1 PUSH1 0xA0 SHL SUB NOT SWAP1 DUP2 AND CALLER OR SWAP1 SWAP2 SSTORE PUSH1 0x1 DUP1 SLOAD PUSH1 0x1 PUSH1 0x1 PUSH1 0xA0 SHL SUB SWAP5 DUP6 AND SWAP1 DUP4 AND OR SWAP1 SSTORE SWAP2 AND PUSH1 0x80 MSTORE PUSH1 0x2 DUP1 SLOAD SWAP1 SWAP2 AND PUSH20 0xD4A33860578DE61DBABDC8BFDB98FD742FA7028E OR SWAP1 SSTORE PUSH2 0xD1 JUMP JUMPDEST DUP1 MLOAD PUSH1 0x1 PUSH1 0x1 PUSH1 0xA0 SHL SUB DUP2 AND DUP2 EQ PUSH2 0x99 JUMPI PUSH1 0x0 DUP1 REVERT JUMPDEST SWAP2 SWAP1 POP JUMP JUMPDEST PUSH1 0x0 DUP1 PUSH1 0x40 DUP4 DUP6 SUB SLT ISZERO PUSH2 0xB1 JUMPI PUSH1 0x0 DUP1 REVERT JUMPDEST PUSH2 0xBA DUP4 PUSH2 0x82 JUMP JUMPDEST SWAP2 POP PUSH2 0xC8 PUSH1 0x20 DUP5 ADD PUSH2 0x82 JUMP JUMPDEST SWAP1 POP SWAP3 POP SWAP3 SWAP1 POP JUMP JUMPDEST PUSH1 0x80 MLOAD PUSH2 0x14D2 PUSH2 0xF3 PUSH1 0x0 CODECOPY PUSH1 0x0 DUP2 DUP2 PUSH2 0x195 ADD MSTORE PUSH2 0x724 ADD MSTORE PUSH2 0x14D2 PUSH1 0x0 RETURN INVALID PUSH1 0x80 PUSH1 0x40 MSTORE CALLVALUE DUP1 ISZERO PUSH2 0x10 JUMPI PUSH1 0x0 DUP1 REVERT JUMPDEST POP PUSH1 0x4 CALLDATASIZE LT PUSH2 0xCF JUMPI PUSH1 0x0 CALLDATALOAD PUSH1 0xE0 SHR DUP1 PUSH4 0xA0840EC4 GT PUSH2 0x8C JUMPI DUP1 PUSH4 0xCCF15802 GT PUSH2 0x66 JUMPI DUP1 PUSH4 0xCCF15802 EQ PUSH2 0x1CA JUMPI DUP1 PUSH4 0xE4368F0F EQ PUSH2 0x1DD JUMPI DUP1 PUSH4 0xF50B8974 EQ PUSH2 0x1F0 JUMPI DUP1 PUSH4 0xF887EA40 EQ PUSH2 0x203 JUMPI PUSH1 0x0 DUP1 REVERT JUMPDEST DUP1 PUSH4 0xA0840EC4 EQ PUSH2 0x17D JUMPI DUP1 PUSH4 0xAD5C4648 EQ PUSH2 0x190 JUMPI DUP1 PUSH4 0xB4D843AE EQ PUSH2 0x1B7 JUMPI PUSH1 0x0 DUP1 REVERT JUMPDEST DUP1 PUSH4 0x162645BE EQ PUSH2 0xD4 JUMPI DUP1 PUSH4 0x29079CFA EQ PUSH2 0xFC JUMPI DUP1 PUSH4 0x550A4A39 EQ PUSH2 0x10F JUMPI DUP1 PUSH4 0x86B04DCA EQ PUSH2 0x122 JUMPI DUP1 PUSH4 0x8DA5CB5B EQ PUSH2 0x13C JUMPI DUP1 PUSH4 0x94E99256 EQ PUSH2 0x167 JUMPI JUMPDEST PUSH1 0x0 DUP1 REVERT JUMPDEST PUSH2 0xE7 PUSH2 0xE2 CALLDATASIZE PUSH1 0x4 PUSH2 0xEB8 JUMP JUMPDEST PUSH2 0x216 JUMP JUMPDEST PUSH1 0x40 MLOAD SWAP1 ISZERO ISZERO DUP2 MSTORE PUSH1 0x20 ADD JUMPDEST PUSH1 0x40 MLOAD DUP1 SWAP2 SUB SWAP1 RETURN JUMPDEST PUSH2 0xE7 PUSH2 0x10A CALLDATASIZE PUSH1 0x4 PUSH2 0xEFA JUMP JUMPDEST PUSH2 0x243 JUMP JUMPDEST PUSH2 0xE7 PUSH2 0x11D CALLDATASIZE PUSH1 0x4 PUSH2 0xF3B JUMP JUMPDEST PUSH2 0x267 JUMP JUMPDEST PUSH2 0x12A PUSH2 0x2B5 JUMP JUMPDEST PUSH1 0x40 MLOAD PUSH1 0xFF SWAP1 SWAP2 AND DUP2 MSTORE PUSH1 0x20 ADD PUSH2 0xF3 JUMP JUMPDEST PUSH1 0x0 SLOAD PUSH2 0x14F SWAP1 PUSH1 0x1 PUSH1 0x1 PUSH1 0xA0 SHL SUB AND DUP2 JUMP JUMPDEST PUSH1 0x40 MLOAD PUSH1 0x1 PUSH1 0x1 PUSH1 0xA0 SHL SUB SWAP1 SWAP2 AND DUP2 MSTORE PUSH1 0x20 ADD PUSH2 0xF3 JUMP JUMPDEST PUSH2 0x16F PUSH2 0x335 JUMP JUMPDEST PUSH1 0x40 MLOAD SWAP1 DUP2 MSTORE PUSH1 0x20 ADD PUSH2 0xF3 JUMP JUMPDEST PUSH2 0xE7 PUSH2 0x18B CALLDATASIZE PUSH1 0x4 PUSH2 0xFA9 JUMP JUMPDEST PUSH2 0x3BA JUMP JUMPDEST PUSH2 0x14F PUSH32 0x0 DUP2 JUMP JUMPDEST PUSH2 0xE7 PUSH2 0x1C5 CALLDATASIZE PUSH1 0x4 PUSH2 0xFA9 JUMP JUMPDEST PUSH2 0x3F4 JUMP JUMPDEST PUSH2 0xE7 PUSH2 0x1D8 CALLDATASIZE PUSH1 0x4 PUSH2 0xFCD JUMP JUMPDEST PUSH2 0x4E9 JUMP JUMPDEST PUSH2 0xE7 PUSH2 0x1EB CALLDATASIZE PUSH1 0x4 PUSH2 0xF3B JUMP JUMPDEST PUSH2 0x52A JUMP JUMPDEST PUSH2 0x16F PUSH2 0x1FE CALLDATASIZE PUSH1 0x4 PUSH2 0x101E JUMP JUMPDEST PUSH2 0x68B JUMP JUMPDEST PUSH1 0x1 SLOAD PUSH2 0x14F SWAP1 PUSH1 0x1 PUSH1 0x1 PUSH1 0xA0 SHL SUB AND DUP2 JUMP JUMPDEST PUSH1 0x0 DUP1 SLOAD PUSH1 0x1 PUSH1 0x1 PUSH1 0xA0 SHL SUB AND CALLER EQ PUSH2 0x22E JUMPI PUSH1 0x0 DUP1 REVERT JUMPDEST PUSH2 0x239 DUP5 DUP4 DUP6 PUSH2 0xC2C JUMP JUMPDEST POP PUSH1 0x1 SWAP4 SWAP3 POP POP POP JUMP JUMPDEST PUSH1 0x0 DUP1 SLOAD PUSH1 0x1 PUSH1 0x1 PUSH1 0xA0 SHL SUB AND CALLER EQ PUSH2 0x25B JUMPI PUSH1 0x0 DUP1 REVERT JUMPDEST PUSH2 0x239 DUP5 DUP5 ADDRESS DUP6 PUSH2 0xD62 JUMP JUMPDEST PUSH1 0x0 CALLER PUSH1 0x1 PUSH1 0x1 PUSH1 0xA0 SHL SUB DUP7 AND EQ PUSH2 0x291 JUMPI PUSH1 0x40 MLOAD PUSH3 0x82B429 PUSH1 0xE8 SHL DUP2 MSTORE PUSH1 0x4 ADD PUSH1 0x40 MLOAD DUP1 SWAP2 SUB SWAP1 REVERT JUMPDEST PUSH2 0x29D DUP5 DUP8 ADDRESS DUP7 PUSH2 0xD62 JUMP JUMPDEST PUSH2 0x2A8 DUP8 DUP7 DUP5 PUSH2 0xC2C JUMP JUMPDEST POP PUSH1 0x1 SWAP7 SWAP6 POP POP POP POP POP POP JUMP JUMPDEST PUSH1 0x0 DUP1 PUSH1 0x2 PUSH1 0x0 SWAP1 SLOAD SWAP1 PUSH2 0x100 EXP SWAP1 DIV PUSH1 0x1 PUSH1 0x1 PUSH1 0xA0 SHL SUB AND PUSH1 0x1 PUSH1 0x1 PUSH1 0xA0 SHL SUB AND PUSH4 0x313CE567 PUSH1 0x40 MLOAD DUP2 PUSH4 0xFFFFFFFF AND PUSH1 0xE0 SHL DUP2 MSTORE PUSH1 0x4 ADD PUSH1 0x20 PUSH1 0x40 MLOAD DUP1 DUP4 SUB DUP2 DUP7 GAS STATICCALL ISZERO DUP1 ISZERO PUSH2 0x30B JUMPI RETURNDATASIZE PUSH1 0x0 DUP1 RETURNDATACOPY RETURNDATASIZE PUSH1 0x0 REVERT JUMPDEST POP POP POP POP PUSH1 0x40 MLOAD RETURNDATASIZE PUSH1 0x1F NOT PUSH1 0x1F DUP3 ADD AND DUP3 ADD DUP1 PUSH1 0x40 MSTORE POP DUP2 ADD SWAP1 PUSH2 0x32F SWAP2 SWAP1 PUSH2 0x1057 JUMP JUMPDEST SWAP3 SWAP2 POP POP JUMP JUMPDEST PUSH1 0x0 DUP1 PUSH1 0x2 PUSH1 0x0 SWAP1 SLOAD SWAP1 PUSH2 0x100 EXP SWAP1 DIV PUSH1 0x1 PUSH1 0x1 PUSH1 0xA0 SHL SUB AND PUSH1 0x1 PUSH1 0x1 PUSH1 0xA0 SHL SUB AND PUSH4 0xFEAF968C PUSH1 0x40 MLOAD DUP2 PUSH4 0xFFFFFFFF AND PUSH1 0xE0 SHL DUP2 MSTORE PUSH1 0x4 ADD PUSH1 0xA0 PUSH1 0x40 MLOAD DUP1 DUP4 SUB DUP2 DUP7 GAS STATICCALL ISZERO DUP1 ISZERO PUSH2 0x38B JUMPI RETURNDATASIZE PUSH1 0x0 DUP1 RETURNDATACOPY RETURNDATASIZE PUSH1 0x0 REVERT JUMPDEST POP POP POP POP PUSH1 0x40 MLOAD RETURNDATASIZE PUSH1 0x1F NOT PUSH1 0x1F DUP3 ADD AND DUP3 ADD DUP1 PUSH1 0x40 MSTORE POP DUP2 ADD SWAP1 PUSH2 0x3AF SWAP2 SWAP1 PUSH2 0x1094 JUMP JUMPDEST POP SWAP2 SWAP6 SWAP5 POP POP POP POP POP JUMP JUMPDEST PUSH1 0x0 DUP1 SLOAD PUSH1 0x1 PUSH1 0x1 PUSH1 0xA0 SHL SUB AND CALLER EQ PUSH2 0x3D2 JUMPI PUSH1 0x0 DUP1 REVERT JUMPDEST POP PUSH1 0x1 DUP1 SLOAD PUSH1 0x1 PUSH1 0x1 PUSH1 0xA0 SHL SUB NOT AND PUSH1 0x1 PUSH1 0x1 PUSH1 0xA0 SHL SUB DUP4 AND OR DUP2 SSTORE JUMPDEST SWAP2 SWAP1 POP JUMP JUMPDEST PUSH1 0x0 DUP1 SLOAD PUSH1 0x1 PUSH1 0x1 PUSH1 0xA0 SHL SUB AND CALLER EQ PUSH2 0x40C JUMPI PUSH1 0x0 DUP1 REVERT JUMPDEST PUSH1 0x0 DUP3 PUSH1 0x1 PUSH1 0x1 PUSH1 0xA0 SHL SUB AND PUSH4 0x18160DDD PUSH1 0x40 MLOAD DUP2 PUSH4 0xFFFFFFFF AND PUSH1 0xE0 SHL DUP2 MSTORE PUSH1 0x4 ADD PUSH1 0x20 PUSH1 0x40 MLOAD DUP1 DUP4 SUB DUP2 DUP7 GAS STATICCALL ISZERO DUP1 ISZERO PUSH2 0x44C JUMPI RETURNDATASIZE PUSH1 0x0 DUP1 RETURNDATACOPY RETURNDATASIZE PUSH1 0x0 REVERT JUMPDEST POP POP POP POP PUSH1 0x40 MLOAD RETURNDATASIZE PUSH1 0x1F NOT PUSH1 0x1F DUP3 ADD AND DUP3 ADD DUP1 PUSH1 0x40 MSTORE POP DUP2 ADD SWAP1 PUSH2 0x470 SWAP2 SWAP1 PUSH2 0x10E4 JUMP JUMPDEST PUSH1 0x1 SLOAD PUSH1 0x40 MLOAD PUSH4 0x95EA7B3 PUSH1 0xE0 SHL DUP2 MSTORE PUSH1 0x1 PUSH1 0x1 PUSH1 0xA0 SHL SUB SWAP2 DUP3 AND PUSH1 0x4 DUP3 ADD MSTORE PUSH1 0x24 DUP2 ADD DUP4 SWAP1 MSTORE SWAP2 SWAP3 POP DUP5 AND SWAP1 PUSH4 0x95EA7B3 SWAP1 PUSH1 0x44 ADD PUSH1 0x20 PUSH1 0x40 MLOAD DUP1 DUP4 SUB DUP2 PUSH1 0x0 DUP8 GAS CALL ISZERO DUP1 ISZERO PUSH2 0x4C5 JUMPI RETURNDATASIZE PUSH1 0x0 DUP1 RETURNDATACOPY RETURNDATASIZE PUSH1 0x0 REVERT JUMPDEST POP POP POP POP PUSH1 0x40 MLOAD RETURNDATASIZE PUSH1 0x1F NOT PUSH1 0x1F DUP3 ADD AND DUP3 ADD DUP1 PUSH1 0x40 MSTORE POP DUP2 ADD SWAP1 PUSH2 0x239 SWAP2 SWAP1 PUSH2 0x10FD JUMP JUMPDEST PUSH1 0x0 CALLER PUSH1 0x1 PUSH1 0x1 PUSH1 0xA0 SHL SUB DUP5 AND EQ PUSH2 0x513 JUMPI PUSH1 0x40 MLOAD PUSH3 0x82B429 PUSH1 0xE8 SHL DUP2 MSTORE PUSH1 0x4 ADD PUSH1 0x40 MLOAD DUP1 SWAP2 SUB SWAP1 REVERT JUMPDEST PUSH2 0x51F DUP6 DUP6 DUP6 DUP6 PUSH2 0xD62 JUMP JUMPDEST POP PUSH1 0x1 SWAP5 SWAP4 POP POP POP POP JUMP JUMPDEST PUSH1 0x0 CALLER PUSH1 0x1 PUSH1 0x1 PUSH1 0xA0 SHL SUB DUP7 AND EQ PUSH2 0x554 JUMPI PUSH1 0x40 MLOAD PUSH3 0x82B429 PUSH1 0xE8 SHL DUP2 MSTORE PUSH1 0x4 ADD PUSH1 0x40 MLOAD DUP1 SWAP2 SUB SWAP1 REVERT JUMPDEST PUSH1 0x40 DUP1 MLOAD PUSH1 0x2 DUP1 DUP3 MSTORE PUSH1 0x60 DUP3 ADD DUP4 MSTORE PUSH1 0x0 SWAP3 PUSH1 0x20 DUP4 ADD SWAP1 DUP1 CALLDATASIZE DUP4 CALLDATACOPY ADD SWAP1 POP POP SWAP1 POP DUP5 DUP2 PUSH1 0x0 DUP2 MLOAD DUP2 LT PUSH2 0x589 JUMPI PUSH2 0x589 PUSH2 0x1135 JUMP JUMPDEST PUSH1 0x20 MUL PUSH1 0x20 ADD ADD SWAP1 PUSH1 0x1 PUSH1 0x1 PUSH1 0xA0 SHL SUB AND SWAP1 DUP2 PUSH1 0x1 PUSH1 0x1 PUSH1 0xA0 SHL SUB AND DUP2 MSTORE POP POP DUP8 DUP2 PUSH1 0x1 DUP2 MLOAD DUP2 LT PUSH2 0x5BD JUMPI PUSH2 0x5BD PUSH2 0x1135 JUMP JUMPDEST PUSH1 0x20 MUL PUSH1 0x20 ADD ADD SWAP1 PUSH1 0x1 PUSH1 0x1 PUSH1 0xA0 SHL SUB AND SWAP1 DUP2 PUSH1 0x1 PUSH1 0x1 PUSH1 0xA0 SHL SUB AND DUP2 MSTORE POP POP PUSH2 0x5E9 DUP6 DUP9 ADDRESS DUP8 PUSH2 0xD62 JUMP JUMPDEST PUSH1 0x1 SLOAD PUSH1 0x1 PUSH1 0x1 PUSH1 0xA0 SHL SUB AND PUSH4 0x8803DBEE DUP5 DUP7 DUP5 ADDRESS PUSH2 0x60A TIMESTAMP PUSH2 0x258 PUSH2 0x1161 JUMP JUMPDEST PUSH1 0x40 MLOAD DUP7 PUSH4 0xFFFFFFFF AND PUSH1 0xE0 SHL DUP2 MSTORE PUSH1 0x4 ADD PUSH2 0x62A SWAP6 SWAP5 SWAP4 SWAP3 SWAP2 SWAP1 PUSH2 0x1179 JUMP JUMPDEST PUSH1 0x0 PUSH1 0x40 MLOAD DUP1 DUP4 SUB DUP2 PUSH1 0x0 DUP8 GAS CALL ISZERO DUP1 ISZERO PUSH2 0x649 JUMPI RETURNDATASIZE PUSH1 0x0 DUP1 RETURNDATACOPY RETURNDATASIZE PUSH1 0x0 REVERT JUMPDEST POP POP POP POP PUSH1 0x40 MLOAD RETURNDATASIZE PUSH1 0x0 DUP3 RETURNDATACOPY PUSH1 0x1F RETURNDATASIZE SWAP1 DUP2 ADD PUSH1 0x1F NOT AND DUP3 ADD PUSH1 0x40 MSTORE PUSH2 0x671 SWAP2 SWAP1 DUP2 ADD SWAP1 PUSH2 0x11EA JUMP JUMPDEST POP PUSH2 0x67D DUP9 DUP8 DUP6 PUSH2 0xC2C JUMP JUMPDEST POP PUSH1 0x1 SWAP8 SWAP7 POP POP POP POP POP POP POP JUMP JUMPDEST PUSH1 0x0 DUP1 PUSH1 0x1 PUSH1 0x0 SWAP1 SLOAD SWAP1 PUSH2 0x100 EXP SWAP1 DIV PUSH1 0x1 PUSH1 0x1 PUSH1 0xA0 SHL SUB AND PUSH1 0x1 PUSH1 0x1 PUSH1 0xA0 SHL SUB AND PUSH4 0xC45A0155 PUSH1 0x40 MLOAD DUP2 PUSH4 0xFFFFFFFF AND PUSH1 0xE0 SHL DUP2 MSTORE PUSH1 0x4 ADD PUSH1 0x20 PUSH1 0x40 MLOAD DUP1 DUP4 SUB DUP2 DUP7 GAS STATICCALL ISZERO DUP1 ISZERO PUSH2 0x6E1 JUMPI RETURNDATASIZE PUSH1 0x0 DUP1 RETURNDATACOPY RETURNDATASIZE PUSH1 0x0 REVERT JUMPDEST POP POP POP POP PUSH1 0x40 MLOAD RETURNDATASIZE PUSH1 0x1F NOT PUSH1 0x1F DUP3 ADD AND DUP3 ADD DUP1 PUSH1 0x40 MSTORE POP DUP2 ADD SWAP1 PUSH2 0x705 SWAP2 SWAP1 PUSH2 0x12A8 JUMP JUMPDEST PUSH1 0x40 MLOAD PUSH4 0xE6A43905 PUSH1 0xE0 SHL DUP2 MSTORE PUSH1 0x1 PUSH1 0x1 PUSH1 0xA0 SHL SUB DUP7 DUP2 AND PUSH1 0x4 DUP4 ADD MSTORE PUSH32 0x0 DUP2 AND PUSH1 0x24 DUP4 ADD MSTORE SWAP2 SWAP1 SWAP2 AND SWAP1 PUSH4 0xE6A43905 SWAP1 PUSH1 0x44 ADD PUSH1 0x20 PUSH1 0x40 MLOAD DUP1 DUP4 SUB DUP2 DUP7 GAS STATICCALL ISZERO DUP1 ISZERO PUSH2 0x775 JUMPI RETURNDATASIZE PUSH1 0x0 DUP1 RETURNDATACOPY RETURNDATASIZE PUSH1 0x0 REVERT JUMPDEST POP POP POP POP PUSH1 0x40 MLOAD RETURNDATASIZE PUSH1 0x1F NOT PUSH1 0x1F DUP3 ADD AND DUP3 ADD DUP1 PUSH1 0x40 MSTORE POP DUP2 ADD SWAP1 PUSH2 0x799 SWAP2 SWAP1 PUSH2 0x12A8 JUMP JUMPDEST SWAP1 POP PUSH1 0x0 DUP4 PUSH1 0x1 PUSH1 0x1 PUSH1 0xA0 SHL SUB AND PUSH4 0x313CE567 PUSH1 0x40 MLOAD DUP2 PUSH4 0xFFFFFFFF AND PUSH1 0xE0 SHL DUP2 MSTORE PUSH1 0x4 ADD PUSH1 0x20 PUSH1 0x40 MLOAD DUP1 DUP4 SUB DUP2 DUP7 GAS STATICCALL ISZERO DUP1 ISZERO PUSH2 0x7DB JUMPI RETURNDATASIZE PUSH1 0x0 DUP1 RETURNDATACOPY RETURNDATASIZE PUSH1 0x0 REVERT JUMPDEST POP POP POP POP PUSH1 0x40 MLOAD RETURNDATASIZE PUSH1 0x1F NOT PUSH1 0x1F DUP3 ADD AND DUP3 ADD DUP1 PUSH1 0x40 MSTORE POP DUP2 ADD SWAP1 PUSH2 0x7FF SWAP2 SWAP1 PUSH2 0x1057 JUMP JUMPDEST PUSH1 0xFF AND SWAP1 POP PUSH1 0x0 DUP3 PUSH1 0x1 PUSH1 0x1 PUSH1 0xA0 SHL SUB AND PUSH4 0xDFE1681 PUSH1 0x40 MLOAD DUP2 PUSH4 0xFFFFFFFF AND PUSH1 0xE0 SHL DUP2 MSTORE PUSH1 0x4 ADD PUSH1 0x20 PUSH1 0x40 MLOAD DUP1 DUP4 SUB DUP2 DUP7 GAS STATICCALL ISZERO DUP1 ISZERO PUSH2 0x844 JUMPI RETURNDATASIZE PUSH1 0x0 DUP1 RETURNDATACOPY RETURNDATASIZE PUSH1 0x0 REVERT JUMPDEST POP POP POP POP PUSH1 0x40 MLOAD RETURNDATASIZE PUSH1 0x1F NOT PUSH1 0x1F DUP3 ADD AND DUP3 ADD DUP1 PUSH1 0x40 MSTORE POP DUP2 ADD SWAP1 PUSH2 0x868 SWAP2 SWAP1 PUSH2 0x12A8 JUMP JUMPDEST PUSH1 0x1 PUSH1 0x1 PUSH1 0xA0 SHL SUB AND PUSH4 0x313CE567 PUSH1 0x40 MLOAD DUP2 PUSH4 0xFFFFFFFF AND PUSH1 0xE0 SHL DUP2 MSTORE PUSH1 0x4 ADD PUSH1 0x20 PUSH1 0x40 MLOAD DUP1 DUP4 SUB DUP2 DUP7 GAS STATICCALL ISZERO DUP1 ISZERO PUSH2 0x8A5 JUMPI RETURNDATASIZE PUSH1 0x0 DUP1 RETURNDATACOPY RETURNDATASIZE PUSH1 0x0 REVERT JUMPDEST POP POP POP POP PUSH1 0x40 MLOAD RETURNDATASIZE PUSH1 0x1F NOT PUSH1 0x1F DUP3 ADD AND DUP3 ADD DUP1 PUSH1 0x40 MSTORE POP DUP2 ADD SWAP1 PUSH2 0x8C9 SWAP2 SWAP1 PUSH2 0x1057 JUMP JUMPDEST PUSH1 0xFF AND SWAP1 POP PUSH1 0x0 DUP4 PUSH1 0x1 PUSH1 0x1 PUSH1 0xA0 SHL SUB AND PUSH4 0xD21220A7 PUSH1 0x40 MLOAD DUP2 PUSH4 0xFFFFFFFF AND PUSH1 0xE0 SHL DUP2 MSTORE PUSH1 0x4 ADD PUSH1 0x20 PUSH1 0x40 MLOAD DUP1 DUP4 SUB DUP2 DUP7 GAS STATICCALL ISZERO DUP1 ISZERO PUSH2 0x90E JUMPI RETURNDATASIZE PUSH1 0x0 DUP1 RETURNDATACOPY RETURNDATASIZE PUSH1 0x0 REVERT JUMPDEST POP POP POP POP PUSH1 0x40 MLOAD RETURNDATASIZE PUSH1 0x1F NOT PUSH1 0x1F DUP3 ADD AND DUP3 ADD DUP1 PUSH1 0x40 MSTORE POP DUP2 ADD SWAP1 PUSH2 0x932 SWAP2 SWAP1 PUSH2 0x12A8 JUMP JUMPDEST PUSH1 0x1 PUSH1 0x1 PUSH1 0xA0 SHL SUB AND PUSH4 0x313CE567 PUSH1 0x40 MLOAD DUP2 PUSH4 0xFFFFFFFF AND PUSH1 0xE0 SHL DUP2 MSTORE PUSH1 0x4 ADD PUSH1 0x20 PUSH1 0x40 MLOAD DUP1 DUP4 SUB DUP2 DUP7 GAS STATICCALL ISZERO DUP1 ISZERO PUSH2 0x96F JUMPI RETURNDATASIZE PUSH1 0x0 DUP1 RETURNDATACOPY RETURNDATASIZE PUSH1 0x0 REVERT JUMPDEST POP POP POP POP PUSH1 0x40 MLOAD RETURNDATASIZE PUSH1 0x1F NOT PUSH1 0x1F DUP3 ADD AND DUP3 ADD DUP1 PUSH1 0x40 MSTORE POP DUP2 ADD SWAP1 PUSH2 0x993 SWAP2 SWAP1 PUSH2 0x1057 JUMP JUMPDEST PUSH1 0xFF AND SWAP1 POP PUSH1 0x0 DUP1 DUP6 PUSH1 0x1 PUSH1 0x1 PUSH1 0xA0 SHL SUB AND PUSH4 0x902F1AC PUSH1 0x40 MLOAD DUP2 PUSH4 0xFFFFFFFF AND PUSH1 0xE0 SHL DUP2 MSTORE PUSH1 0x4 ADD PUSH1 0x60 PUSH1 0x40 MLOAD DUP1 DUP4 SUB DUP2 DUP7 GAS STATICCALL ISZERO DUP1 ISZERO PUSH2 0x9D9 JUMPI RETURNDATASIZE PUSH1 0x0 DUP1 RETURNDATACOPY RETURNDATASIZE PUSH1 0x0 REVERT JUMPDEST POP POP POP POP PUSH1 0x40 MLOAD RETURNDATASIZE PUSH1 0x1F NOT PUSH1 0x1F DUP3 ADD AND DUP3 ADD DUP1 PUSH1 0x40 MSTORE POP DUP2 ADD SWAP1 PUSH2 0x9FD SWAP2 SWAP1 PUSH2 0x12DC JUMP JUMPDEST POP PUSH1 0x1 PUSH1 0x1 PUSH1 0x70 SHL SUB SWAP2 DUP3 AND SWAP4 POP AND SWAP1 POP PUSH1 0x0 DUP3 DUP3 PUSH2 0xA1D DUP8 PUSH1 0xA PUSH2 0x1405 JUMP JUMPDEST PUSH2 0xA28 SWAP1 PUSH1 0x1 PUSH2 0x1411 JUMP JUMPDEST PUSH2 0xA32 SWAP2 SWAP1 PUSH2 0x1411 JUMP JUMPDEST PUSH2 0xA3C SWAP2 SWAP1 PUSH2 0x1430 JUMP JUMPDEST SWAP1 POP PUSH1 0x0 DUP3 DUP5 PUSH2 0xA4D DUP8 PUSH1 0xA PUSH2 0x1405 JUMP JUMPDEST PUSH2 0xA58 SWAP1 PUSH1 0x1 PUSH2 0x1411 JUMP JUMPDEST PUSH2 0xA62 SWAP2 SWAP1 PUSH2 0x1411 JUMP JUMPDEST PUSH2 0xA6C SWAP2 SWAP1 PUSH2 0x1430 JUMP JUMPDEST SWAP1 POP PUSH1 0x0 PUSH2 0xA78 PUSH2 0x335 JUMP JUMPDEST SWAP1 POP PUSH1 0x0 PUSH2 0xA84 PUSH2 0x2B5 JUMP JUMPDEST SWAP1 POP PUSH1 0x0 PUSH2 0xA93 DUP3 PUSH1 0xA PUSH2 0x1452 JUMP JUMPDEST PUSH2 0xA9D SWAP1 DUP5 PUSH2 0x1430 JUMP JUMPDEST SWAP1 POP PUSH1 0x0 DUP2 PUSH2 0xAAD DUP13 PUSH1 0xA PUSH2 0x1405 JUMP JUMPDEST PUSH2 0xAB8 SWAP1 PUSH1 0x1 PUSH2 0x1411 JUMP JUMPDEST PUSH2 0xAC2 SWAP2 SWAP1 PUSH2 0x1411 JUMP JUMPDEST SWAP1 POP DUP12 PUSH1 0x1 PUSH1 0x1 PUSH1 0xA0 SHL SUB AND PUSH4 0xDFE1681 PUSH1 0x40 MLOAD DUP2 PUSH4 0xFFFFFFFF AND PUSH1 0xE0 SHL DUP2 MSTORE PUSH1 0x4 ADD PUSH1 0x20 PUSH1 0x40 MLOAD DUP1 DUP4 SUB DUP2 DUP7 GAS STATICCALL ISZERO DUP1 ISZERO PUSH2 0xB02 JUMPI RETURNDATASIZE PUSH1 0x0 DUP1 RETURNDATACOPY RETURNDATASIZE PUSH1 0x0 REVERT JUMPDEST POP POP POP POP PUSH1 0x40 MLOAD RETURNDATASIZE PUSH1 0x1F NOT PUSH1 0x1F DUP3 ADD AND DUP3 ADD DUP1 PUSH1 0x40 MSTORE POP DUP2 ADD SWAP1 PUSH2 0xB26 SWAP2 SWAP1 PUSH2 0x12A8 JUMP JUMPDEST PUSH1 0x1 PUSH1 0x1 PUSH1 0xA0 SHL SUB AND DUP16 PUSH1 0x1 PUSH1 0x1 PUSH1 0xA0 SHL SUB AND SUB PUSH2 0xB71 JUMPI DUP5 DUP2 PUSH2 0xB4B DUP13 PUSH1 0xA PUSH2 0x1405 JUMP JUMPDEST PUSH2 0xB56 SWAP1 PUSH1 0x1 PUSH2 0x1411 JUMP JUMPDEST PUSH2 0xB60 SWAP2 SWAP1 PUSH2 0x1411 JUMP JUMPDEST PUSH2 0xB6A SWAP2 SWAP1 PUSH2 0x1430 JUMP JUMPDEST SWAP13 POP PUSH2 0xC1A JUMP JUMPDEST DUP12 PUSH1 0x1 PUSH1 0x1 PUSH1 0xA0 SHL SUB AND PUSH4 0xD21220A7 PUSH1 0x40 MLOAD DUP2 PUSH4 0xFFFFFFFF AND PUSH1 0xE0 SHL DUP2 MSTORE PUSH1 0x4 ADD PUSH1 0x20 PUSH1 0x40 MLOAD DUP1 DUP4 SUB DUP2 DUP7 GAS STATICCALL ISZERO DUP1 ISZERO PUSH2 0xBAF JUMPI RETURNDATASIZE PUSH1 0x0 DUP1 RETURNDATACOPY RETURNDATASIZE PUSH1 0x0 REVERT JUMPDEST POP POP POP POP PUSH1 0x40 MLOAD RETURNDATASIZE PUSH1 0x1F NOT PUSH1 0x1F DUP3 ADD AND DUP3 ADD DUP1 PUSH1 0x40 MSTORE POP DUP2 ADD SWAP1 PUSH2 0xBD3 SWAP2 SWAP1 PUSH2 0x12A8 JUMP JUMPDEST PUSH1 0x1 PUSH1 0x1 PUSH1 0xA0 SHL SUB AND DUP16 PUSH1 0x1 PUSH1 0x1 PUSH1 0xA0 SHL SUB AND SUB PUSH2 0xC1A JUMPI DUP6 DUP2 PUSH2 0xBF8 DUP12 PUSH1 0xA PUSH2 0x1405 JUMP JUMPDEST PUSH2 0xC03 SWAP1 PUSH1 0x1 PUSH2 0x1411 JUMP JUMPDEST PUSH2 0xC0D SWAP2 SWAP1 PUSH2 0x1411 JUMP JUMPDEST PUSH2 0xC17 SWAP2 SWAP1 PUSH2 0x1430 JUMP JUMPDEST SWAP13 POP JUMPDEST POP POP POP POP POP POP POP POP POP POP POP POP SWAP3 SWAP2 POP POP JUMP JUMPDEST PUSH1 0x40 DUP1 MLOAD PUSH1 0x1 PUSH1 0x1 PUSH1 0xA0 SHL SUB DUP5 DUP2 AND PUSH1 0x24 DUP4 ADD MSTORE PUSH1 0x44 DUP1 DUP4 ADD DUP6 SWAP1 MSTORE DUP4 MLOAD DUP1 DUP5 SUB SWAP1 SWAP2 ADD DUP2 MSTORE PUSH1 0x64 SWAP1 SWAP3 ADD DUP4 MSTORE PUSH1 0x20 DUP3 ADD DUP1 MLOAD PUSH1 0x1 PUSH1 0x1 PUSH1 0xE0 SHL SUB AND PUSH4 0xA9059CBB PUSH1 0xE0 SHL OR SWAP1 MSTORE SWAP2 MLOAD PUSH1 0x0 SWAP3 DUP4 SWAP3 SWAP1 DUP8 AND SWAP2 PUSH2 0xC88 SWAP2 SWAP1 PUSH2 0x1461 JUMP JUMPDEST PUSH1 0x0 PUSH1 0x40 MLOAD DUP1 DUP4 SUB DUP2 PUSH1 0x0 DUP7 GAS CALL SWAP2 POP POP RETURNDATASIZE DUP1 PUSH1 0x0 DUP2 EQ PUSH2 0xCC5 JUMPI PUSH1 0x40 MLOAD SWAP2 POP PUSH1 0x1F NOT PUSH1 0x3F RETURNDATASIZE ADD AND DUP3 ADD PUSH1 0x40 MSTORE RETURNDATASIZE DUP3 MSTORE RETURNDATASIZE PUSH1 0x0 PUSH1 0x20 DUP5 ADD RETURNDATACOPY PUSH2 0xCCA JUMP JUMPDEST PUSH1 0x60 SWAP2 POP JUMPDEST POP SWAP2 POP SWAP2 POP DUP2 DUP1 ISZERO PUSH2 0xCF4 JUMPI POP DUP1 MLOAD ISZERO DUP1 PUSH2 0xCF4 JUMPI POP DUP1 DUP1 PUSH1 0x20 ADD SWAP1 MLOAD DUP2 ADD SWAP1 PUSH2 0xCF4 SWAP2 SWAP1 PUSH2 0x10FD JUMP JUMPDEST PUSH2 0xD5B JUMPI PUSH1 0x40 MLOAD PUSH3 0x461BCD PUSH1 0xE5 SHL DUP2 MSTORE PUSH1 0x20 PUSH1 0x4 DUP3 ADD MSTORE PUSH1 0x2D PUSH1 0x24 DUP3 ADD MSTORE PUSH32 0x5472616E7366657248656C7065723A3A736166655472616E736665723A207472 PUSH1 0x44 DUP3 ADD MSTORE PUSH13 0x185B9CD9995C8819985A5B1959 PUSH1 0x9A SHL PUSH1 0x64 DUP3 ADD MSTORE PUSH1 0x84 ADD JUMPDEST PUSH1 0x40 MLOAD DUP1 SWAP2 SUB SWAP1 REVERT JUMPDEST POP POP POP POP POP JUMP JUMPDEST PUSH1 0x40 DUP1 MLOAD PUSH1 0x1 PUSH1 0x1 PUSH1 0xA0 SHL SUB DUP6 DUP2 AND PUSH1 0x24 DUP4 ADD MSTORE DUP5 DUP2 AND PUSH1 0x44 DUP4 ADD MSTORE PUSH1 0x64 DUP1 DUP4 ADD DUP6 SWAP1 MSTORE DUP4 MLOAD DUP1 DUP5 SUB SWAP1 SWAP2 ADD DUP2 MSTORE PUSH1 0x84 SWAP1 SWAP3 ADD DUP4 MSTORE PUSH1 0x20 DUP3 ADD DUP1 MLOAD PUSH1 0x1 PUSH1 0x1 PUSH1 0xE0 SHL SUB AND PUSH4 0x23B872DD PUSH1 0xE0 SHL OR SWAP1 MSTORE SWAP2 MLOAD PUSH1 0x0 SWAP3 DUP4 SWAP3 SWAP1 DUP9 AND SWAP2 PUSH2 0xDC6 SWAP2 SWAP1 PUSH2 0x1461 JUMP JUMPDEST PUSH1 0x0 PUSH1 0x40 MLOAD DUP1 DUP4 SUB DUP2 PUSH1 0x0 DUP7 GAS CALL SWAP2 POP POP RETURNDATASIZE DUP1 PUSH1 0x0 DUP2 EQ PUSH2 0xE03 JUMPI PUSH1 0x40 MLOAD SWAP2 POP PUSH1 0x1F NOT PUSH1 0x3F RETURNDATASIZE ADD AND DUP3 ADD PUSH1 0x40 MSTORE RETURNDATASIZE DUP3 MSTORE RETURNDATASIZE PUSH1 0x0 PUSH1 0x20 DUP5 ADD RETURNDATACOPY PUSH2 0xE08 JUMP JUMPDEST PUSH1 0x60 SWAP2 POP JUMPDEST POP SWAP2 POP SWAP2 POP DUP2 DUP1 ISZERO PUSH2 0xE32 JUMPI POP DUP1 MLOAD ISZERO DUP1 PUSH2 0xE32 JUMPI POP DUP1 DUP1 PUSH1 0x20 ADD SWAP1 MLOAD DUP2 ADD SWAP1 PUSH2 0xE32 SWAP2 SWAP1 PUSH2 0x10FD JUMP JUMPDEST PUSH2 0xE98 JUMPI PUSH1 0x40 MLOAD PUSH3 0x461BCD PUSH1 0xE5 SHL DUP2 MSTORE PUSH1 0x20 PUSH1 0x4 DUP3 ADD MSTORE PUSH1 0x31 PUSH1 0x24 DUP3 ADD MSTORE PUSH32 0x5472616E7366657248656C7065723A3A7472616E7366657246726F6D3A207472 PUSH1 0x44 DUP3 ADD MSTORE PUSH17 0x185B9CD9995C919C9BDB4819985A5B1959 PUSH1 0x7A SHL PUSH1 0x64 DUP3 ADD MSTORE PUSH1 0x84 ADD PUSH2 0xD52 JUMP JUMPDEST POP POP POP POP POP POP JUMP JUMPDEST PUSH1 0x1 PUSH1 0x1 PUSH1 0xA0 SHL SUB DUP2 AND DUP2 EQ PUSH2 0xEB5 JUMPI PUSH1 0x0 DUP1 REVERT JUMPDEST POP JUMP JUMPDEST PUSH1 0x0 DUP1 PUSH1 0x0 PUSH1 0x60 DUP5 DUP7 SUB SLT ISZERO PUSH2 0xECD JUMPI PUSH1 0x0 DUP1 REVERT JUMPDEST DUP4 CALLDATALOAD PUSH2 0xED8 DUP2 PUSH2 0xEA0 JUMP JUMPDEST SWAP3 POP PUSH1 0x20 DUP5 ADD CALLDATALOAD SWAP2 POP PUSH1 0x40 DUP5 ADD CALLDATALOAD PUSH2 0xEEF DUP2 PUSH2 0xEA0 JUMP JUMPDEST DUP1 SWAP2 POP POP SWAP3 POP SWAP3 POP SWAP3 JUMP JUMPDEST PUSH1 0x0 DUP1 PUSH1 0x0 PUSH1 0x60 DUP5 DUP7 SUB SLT ISZERO PUSH2 0xF0F JUMPI PUSH1 0x0 DUP1 REVERT JUMPDEST DUP4 CALLDATALOAD PUSH2 0xF1A DUP2 PUSH2 0xEA0 JUMP JUMPDEST SWAP3 POP PUSH1 0x20 DUP5 ADD CALLDATALOAD PUSH2 0xF2A DUP2 PUSH2 0xEA0 JUMP JUMPDEST SWAP3 SWAP6 SWAP3 SWAP5 POP POP POP PUSH1 0x40 SWAP2 SWAP1 SWAP2 ADD CALLDATALOAD SWAP1 JUMP JUMPDEST PUSH1 0x0 DUP1 PUSH1 0x0 DUP1 PUSH1 0x0 DUP1 PUSH1 0xC0 DUP8 DUP10 SUB SLT ISZERO PUSH2 0xF54 JUMPI PUSH1 0x0 DUP1 REVERT JUMPDEST DUP7 CALLDATALOAD PUSH2 0xF5F DUP2 PUSH2 0xEA0 JUMP JUMPDEST SWAP6 POP PUSH1 0x20 DUP8 ADD CALLDATALOAD PUSH2 0xF6F DUP2 PUSH2 0xEA0 JUMP JUMPDEST SWAP5 POP PUSH1 0x40 DUP8 ADD CALLDATALOAD PUSH2 0xF7F DUP2 PUSH2 0xEA0 JUMP JUMPDEST SWAP4 POP PUSH1 0x60 DUP8 ADD CALLDATALOAD PUSH2 0xF8F DUP2 PUSH2 0xEA0 JUMP JUMPDEST SWAP6 SWAP9 SWAP5 SWAP8 POP SWAP3 SWAP6 PUSH1 0x80 DUP2 ADD CALLDATALOAD SWAP5 PUSH1 0xA0 SWAP1 SWAP2 ADD CALLDATALOAD SWAP4 POP SWAP2 POP POP JUMP JUMPDEST PUSH1 0x0 PUSH1 0x20 DUP3 DUP5 SUB SLT ISZERO PUSH2 0xFBB JUMPI PUSH1 0x0 DUP1 REVERT JUMPDEST DUP2 CALLDATALOAD PUSH2 0xFC6 DUP2 PUSH2 0xEA0 JUMP JUMPDEST SWAP4 SWAP3 POP POP POP JUMP JUMPDEST PUSH1 0x0 DUP1 PUSH1 0x0 DUP1 PUSH1 0x80 DUP6 DUP8 SUB SLT ISZERO PUSH2 0xFE3 JUMPI PUSH1 0x0 DUP1 REVERT JUMPDEST DUP5 CALLDATALOAD PUSH2 0xFEE DUP2 PUSH2 0xEA0 JUMP JUMPDEST SWAP4 POP PUSH1 0x20 DUP6 ADD CALLDATALOAD PUSH2 0xFFE DUP2 PUSH2 0xEA0 JUMP JUMPDEST SWAP3 POP PUSH1 0x40 DUP6 ADD CALLDATALOAD PUSH2 0x100E DUP2 PUSH2 0xEA0 JUMP JUMPDEST SWAP4 SWAP7 SWAP3 SWAP6 POP SWAP3 SWAP4 PUSH1 0x60 ADD CALLDATALOAD SWAP3 POP POP JUMP JUMPDEST PUSH1 0x0 DUP1 PUSH1 0x40 DUP4 DUP6 SUB SLT ISZERO PUSH2 0x1031 JUMPI PUSH1 0x0 DUP1 REVERT JUMPDEST DUP3 CALLDATALOAD PUSH2 0x103C DUP2 PUSH2 0xEA0 JUMP JUMPDEST SWAP2 POP PUSH1 0x20 DUP4 ADD CALLDATALOAD PUSH2 0x104C DUP2 PUSH2 0xEA0 JUMP JUMPDEST DUP1 SWAP2 POP POP SWAP3 POP SWAP3 SWAP1 POP JUMP JUMPDEST PUSH1 0x0 PUSH1 0x20 DUP3 DUP5 SUB SLT ISZERO PUSH2 0x1069 JUMPI PUSH1 0x0 DUP1 REVERT JUMPDEST DUP2 MLOAD PUSH1 0xFF DUP2 AND DUP2 EQ PUSH2 0xFC6 JUMPI PUSH1 0x0 DUP1 REVERT JUMPDEST DUP1 MLOAD PUSH10 0xFFFFFFFFFFFFFFFFFFFF DUP2 AND DUP2 EQ PUSH2 0x3EF JUMPI PUSH1 0x0 DUP1 REVERT JUMPDEST PUSH1 0x0 DUP1 PUSH1 0x0 DUP1 PUSH1 0x0 PUSH1 0xA0 DUP7 DUP9 SUB SLT ISZERO PUSH2 0x10AC JUMPI PUSH1 0x0 DUP1 REVERT JUMPDEST PUSH2 0x10B5 DUP7 PUSH2 0x107A JUMP JUMPDEST SWAP5 POP PUSH1 0x20 DUP7 ADD MLOAD SWAP4 POP PUSH1 0x40 DUP7 ADD MLOAD SWAP3 POP PUSH1 0x60 DUP7 ADD MLOAD SWAP2 POP PUSH2 0x10D8 PUSH1 0x80 DUP8 ADD PUSH2 0x107A JUMP JUMPDEST SWAP1 POP SWAP3 SWAP6 POP SWAP3 SWAP6 SWAP1 SWAP4 POP JUMP JUMPDEST PUSH1 0x0 PUSH1 0x20 DUP3 DUP5 SUB SLT ISZERO PUSH2 0x10F6 JUMPI PUSH1 0x0 DUP1 REVERT JUMPDEST POP MLOAD SWAP2 SWAP1 POP JUMP JUMPDEST PUSH1 0x0 PUSH1 0x20 DUP3 DUP5 SUB SLT ISZERO PUSH2 0x110F JUMPI PUSH1 0x0 DUP1 REVERT JUMPDEST DUP2 MLOAD DUP1 ISZERO ISZERO DUP2 EQ PUSH2 0xFC6 JUMPI PUSH1 0x0 DUP1 REVERT JUMPDEST PUSH4 0x4E487B71 PUSH1 0xE0 SHL PUSH1 0x0 MSTORE PUSH1 0x41 PUSH1 0x4 MSTORE PUSH1 0x24 PUSH1 0x0 REVERT JUMPDEST PUSH4 0x4E487B71 PUSH1 0xE0 SHL PUSH1 0x0 MSTORE PUSH1 0x32 PUSH1 0x4 MSTORE PUSH1 0x24 PUSH1 0x0 REVERT JUMPDEST PUSH4 0x4E487B71 PUSH1 0xE0 SHL PUSH1 0x0 MSTORE PUSH1 0x11 PUSH1 0x4 MSTORE PUSH1 0x24 PUSH1 0x0 REVERT JUMPDEST PUSH1 0x0 DUP3 NOT DUP3 GT ISZERO PUSH2 0x1174 JUMPI PUSH2 0x1174 PUSH2 0x114B JUMP JUMPDEST POP ADD SWAP1 JUMP JUMPDEST PUSH1 0x0 PUSH1 0xA0 DUP3 ADD DUP8 DUP4 MSTORE PUSH1 0x20 DUP8 DUP2 DUP6 ADD MSTORE PUSH1 0xA0 PUSH1 0x40 DUP6 ADD MSTORE DUP2 DUP8 MLOAD DUP1 DUP5 MSTORE PUSH1 0xC0 DUP7 ADD SWAP2 POP DUP3 DUP10 ADD SWAP4 POP PUSH1 0x0 JUMPDEST DUP2 DUP2 LT ISZERO PUSH2 0x11C9 JUMPI DUP5 MLOAD PUSH1 0x1 PUSH1 0x1 PUSH1 0xA0 SHL SUB AND DUP4 MSTORE SWAP4 DUP4 ADD SWAP4 SWAP2 DUP4 ADD SWAP2 PUSH1 0x1 ADD PUSH2 0x11A4 JUMP JUMPDEST POP POP PUSH1 0x1 PUSH1 0x1 PUSH1 0xA0 SHL SUB SWAP7 SWAP1 SWAP7 AND PUSH1 0x60 DUP6 ADD MSTORE POP POP POP PUSH1 0x80 ADD MSTORE SWAP4 SWAP3 POP POP POP JUMP JUMPDEST PUSH1 0x0 PUSH1 0x20 DUP1 DUP4 DUP6 SUB SLT ISZERO PUSH2 0x11FD JUMPI PUSH1 0x0 DUP1 REVERT JUMPDEST DUP3 MLOAD PUSH8 0xFFFFFFFFFFFFFFFF DUP1 DUP3 GT ISZERO PUSH2 0x1215 JUMPI PUSH1 0x0 DUP1 REVERT JUMPDEST DUP2 DUP6 ADD SWAP2 POP DUP6 PUSH1 0x1F DUP4 ADD SLT PUSH2 0x1229 JUMPI PUSH1 0x0 DUP1 REVERT JUMPDEST DUP2 MLOAD DUP2 DUP2 GT ISZERO PUSH2 0x123B JUMPI PUSH2 0x123B PUSH2 0x111F JUMP JUMPDEST DUP1 PUSH1 0x5 SHL PUSH1 0x40 MLOAD PUSH1 0x1F NOT PUSH1 0x3F DUP4 ADD AND DUP2 ADD DUP2 DUP2 LT DUP6 DUP3 GT OR ISZERO PUSH2 0x1260 JUMPI PUSH2 0x1260 PUSH2 0x111F JUMP JUMPDEST PUSH1 0x40 MSTORE SWAP2 DUP3 MSTORE DUP5 DUP3 ADD SWAP3 POP DUP4 DUP2 ADD DUP6 ADD SWAP2 DUP9 DUP4 GT ISZERO PUSH2 0x127E JUMPI PUSH1 0x0 DUP1 REVERT JUMPDEST SWAP4 DUP6 ADD SWAP4 JUMPDEST DUP3 DUP6 LT ISZERO PUSH2 0x129C JUMPI DUP5 MLOAD DUP5 MSTORE SWAP4 DUP6 ADD SWAP4 SWAP3 DUP6 ADD SWAP3 PUSH2 0x1283 JUMP JUMPDEST SWAP9 SWAP8 POP POP POP POP POP POP POP POP JUMP JUMPDEST PUSH1 0x0 PUSH1 0x20 DUP3 DUP5 SUB SLT ISZERO PUSH2 0x12BA JUMPI PUSH1 0x0 DUP1 REVERT JUMPDEST DUP2 MLOAD PUSH2 0xFC6 DUP2 PUSH2 0xEA0 JUMP JUMPDEST DUP1 MLOAD PUSH1 0x1 PUSH1 0x1 PUSH1 0x70 SHL SUB DUP2 AND DUP2 EQ PUSH2 0x3EF JUMPI PUSH1 0x0 DUP1 REVERT JUMPDEST PUSH1 0x0 DUP1 PUSH1 0x0 PUSH1 0x60 DUP5 DUP7 SUB SLT ISZERO PUSH2 0x12F1 JUMPI PUSH1 0x0 DUP1 REVERT JUMPDEST PUSH2 0x12FA DUP5 PUSH2 0x12C5 JUMP JUMPDEST SWAP3 POP PUSH2 0x1308 PUSH1 0x20 DUP6 ADD PUSH2 0x12C5 JUMP JUMPDEST SWAP2 POP PUSH1 0x40 DUP5 ADD MLOAD PUSH4 0xFFFFFFFF DUP2 AND DUP2 EQ PUSH2 0xEEF JUMPI PUSH1 0x0 DUP1 REVERT JUMPDEST PUSH1 0x1 DUP2 DUP2 JUMPDEST DUP1 DUP6 GT ISZERO PUSH2 0x135C JUMPI DUP2 PUSH1 0x0 NOT DIV DUP3 GT ISZERO PUSH2 0x1342 JUMPI PUSH2 0x1342 PUSH2 0x114B JUMP JUMPDEST DUP1 DUP6 AND ISZERO PUSH2 0x134F JUMPI SWAP2 DUP2 MUL SWAP2 JUMPDEST SWAP4 DUP5 SHR SWAP4 SWAP1 DUP1 MUL SWAP1 PUSH2 0x1326 JUMP JUMPDEST POP SWAP3 POP SWAP3 SWAP1 POP JUMP JUMPDEST PUSH1 0x0 DUP3 PUSH2 0x1373 JUMPI POP PUSH1 0x1 PUSH2 0x32F JUMP JUMPDEST DUP2 PUSH2 0x1380 JUMPI POP PUSH1 0x0 PUSH2 0x32F JUMP JUMPDEST DUP2 PUSH1 0x1 DUP2 EQ PUSH2 0x1396 JUMPI PUSH1 0x2 DUP2 EQ PUSH2 0x13A0 JUMPI PUSH2 0x13BC JUMP JUMPDEST PUSH1 0x1 SWAP2 POP POP PUSH2 0x32F JUMP JUMPDEST PUSH1 0xFF DUP5 GT ISZERO PUSH2 0x13B1 JUMPI PUSH2 0x13B1 PUSH2 0x114B JUMP JUMPDEST POP POP PUSH1 0x1 DUP3 SHL PUSH2 0x32F JUMP JUMPDEST POP PUSH1 0x20 DUP4 LT PUSH2 0x133 DUP4 LT AND PUSH1 0x4E DUP5 LT PUSH1 0xB DUP5 LT AND OR ISZERO PUSH2 0x13DF JUMPI POP DUP2 DUP2 EXP PUSH2 0x32F JUMP JUMPDEST PUSH2 0x13E9 DUP4 DUP4 PUSH2 0x1321 JUMP JUMPDEST DUP1 PUSH1 0x0 NOT DIV DUP3 GT ISZERO PUSH2 0x13FD JUMPI PUSH2 0x13FD PUSH2 0x114B JUMP JUMPDEST MUL SWAP4 SWAP3 POP POP POP JUMP JUMPDEST PUSH1 0x0 PUSH2 0xFC6 DUP4 DUP4 PUSH2 0x1364 JUMP JUMPDEST PUSH1 0x0 DUP2 PUSH1 0x0 NOT DIV DUP4 GT DUP3 ISZERO ISZERO AND ISZERO PUSH2 0x142B JUMPI PUSH2 0x142B PUSH2 0x114B JUMP JUMPDEST POP MUL SWAP1 JUMP JUMPDEST PUSH1 0x0 DUP3 PUSH2 0x144D JUMPI PUSH4 0x4E487B71 PUSH1 0xE0 SHL PUSH1 0x0 MSTORE PUSH1 0x12 PUSH1 0x4 MSTORE PUSH1 0x24 PUSH1 0x0 REVERT JUMPDEST POP DIV SWAP1 JUMP JUMPDEST PUSH1 0x0 PUSH2 0xFC6 PUSH1 0xFF DUP5 AND DUP4 PUSH2 0x1364 JUMP JUMPDEST PUSH1 0x0 DUP3 MLOAD PUSH1 0x0 JUMPDEST DUP2 DUP2 LT ISZERO PUSH2 0x1482 JUMPI PUSH1 0x20 DUP2 DUP7 ADD DUP2 ADD MLOAD DUP6 DUP4 ADD MSTORE ADD PUSH2 0x1468 JUMP JUMPDEST DUP2 DUP2 GT ISZERO PUSH2 0x1491 JUMPI PUSH1 0x0 DUP3 DUP6 ADD MSTORE JUMPDEST POP SWAP2 SWAP1 SWAP2 ADD SWAP3 SWAP2 POP POP JUMP INVALID LOG2 PUSH5 0x6970667358 0x22 SLT KECCAK256 CREATE2 0xCE DUP7 0xCC DUP6 0xEA 0xED DIFFICULTY PUSH23 0xF8496B83263F12902B194339995667EE37844584D4461C PUSH5 0x736F6C6343 STOP ADDMOD 0xE STOP CALLER "
		},
		"gasEstimates": {
			"creation": {
				"codeDepositCost": "1066000",
				"executionCost": "infinite",
				"totalCost": "infinite"
			},
			"external": {
				"WETH()": "infinite",
				"addUSDCLiquidity(address,address,uint256)": "infinite",
				"approveRouterToSwapToken(address)": "infinite",
				"changeRouterToMakeSwap(address)": "26779",
				"getCurrentPriceOfTokenByETHInUSDC(address,address)": "infinite",
				"getETHLatestPrice()": "infinite",
				"getETHPriceDecimals()": "infinite",
				"owner()": "2426",
				"removeUSDCLiquidity(address,uint256,address)": "infinite",
				"router()": "2425",
				"swapTokenToUSDC(address,address,address,address,uint256,uint256)": "infinite",
				"transferAmountOfUSDFromLiquidityToBuyTickets(address,address,address,address,uint256,uint256)": "infinite",
				"transferAmountToBuyTickets(address,address,address,uint256)": "infinite"
			}
		},
		"methodIdentifiers": {
			"WETH()": "ad5c4648",
			"addUSDCLiquidity(address,address,uint256)": "29079cfa",
			"approveRouterToSwapToken(address)": "b4d843ae",
			"changeRouterToMakeSwap(address)": "a0840ec4",
			"getCurrentPriceOfTokenByETHInUSDC(address,address)": "f50b8974",
			"getETHLatestPrice()": "94e99256",
			"getETHPriceDecimals()": "86b04dca",
			"owner()": "8da5cb5b",
			"removeUSDCLiquidity(address,uint256,address)": "162645be",
			"router()": "f887ea40",
			"swapTokenToUSDC(address,address,address,address,uint256,uint256)": "e4368f0f",
			"transferAmountOfUSDFromLiquidityToBuyTickets(address,address,address,address,uint256,uint256)": "550a4a39",
			"transferAmountToBuyTickets(address,address,address,uint256)": "ccf15802"
		}
	},
	"abi": [
		{
			"inputs": [
				{
					"internalType": "address",
					"name": "_routerAddress",
					"type": "address"
				},
				{
					"internalType": "address",
					"name": "_WETH",
					"type": "address"
				}
			],
			"stateMutability": "nonpayable",
			"type": "constructor"
		},
		{
			"inputs": [],
			"name": "Unauthorized",
			"type": "error"
		},
		{
			"anonymous": false,
			"inputs": [
				{
					"indexed": false,
					"internalType": "address",
					"name": "sender",
					"type": "address"
				},
				{
					"indexed": false,
					"internalType": "address",
					"name": "oldOwner",
					"type": "address"
				},
				{
					"indexed": false,
					"internalType": "address",
					"name": "newOwner",
					"type": "address"
				}
			],
			"name": "LogActualOwner",
			"type": "event"
		},
		{
			"inputs": [],
			"name": "WETH",
			"outputs": [
				{
					"internalType": "address",
					"name": "",
					"type": "address"
				}
			],
			"stateMutability": "view",
			"type": "function"
		},
		{
			"inputs": [
				{
					"internalType": "address",
					"name": "_USDC",
					"type": "address"
				},
				{
					"internalType": "address",
					"name": "_liquidityProvider",
					"type": "address"
				},
				{
					"internalType": "uint256",
					"name": "_liquidityToAdd",
					"type": "uint256"
				}
			],
			"name": "addUSDCLiquidity",
			"outputs": [
				{
					"internalType": "bool",
					"name": "_success",
					"type": "bool"
				}
			],
			"stateMutability": "nonpayable",
			"type": "function"
		},
		{
			"inputs": [
				{
					"internalType": "address",
					"name": "_tokenToApprove",
					"type": "address"
				}
			],
			"name": "approveRouterToSwapToken",
			"outputs": [
				{
					"internalType": "bool",
					"name": "_approvalSuccess",
					"type": "bool"
				}
			],
			"stateMutability": "nonpayable",
			"type": "function"
		},
		{
			"inputs": [
				{
					"internalType": "address",
					"name": "_newRouterAddress",
					"type": "address"
				}
			],
			"name": "changeRouterToMakeSwap",
			"outputs": [
				{
					"internalType": "bool",
					"name": "_success",
					"type": "bool"
				}
			],
			"stateMutability": "nonpayable",
			"type": "function"
		},
		{
			"inputs": [
				{
					"internalType": "address",
					"name": "_tokenA",
					"type": "address"
				},
				{
					"internalType": "address",
					"name": "_USDC",
					"type": "address"
				}
			],
			"name": "getCurrentPriceOfTokenByETHInUSDC",
			"outputs": [
				{
					"internalType": "uint256",
					"name": "_currentPriceOfTokenWithoutDecimalsInUSD",
					"type": "uint256"
				}
			],
			"stateMutability": "view",
			"type": "function"
		},
		{
			"inputs": [],
			"name": "getETHLatestPrice",
			"outputs": [
				{
					"internalType": "int256",
					"name": "",
					"type": "int256"
				}
			],
			"stateMutability": "view",
			"type": "function"
		},
		{
			"inputs": [],
			"name": "getETHPriceDecimals",
			"outputs": [
				{
					"internalType": "uint8",
					"name": "",
					"type": "uint8"
				}
			],
			"stateMutability": "view",
			"type": "function"
		},
		{
			"inputs": [],
			"name": "owner",
			"outputs": [
				{
					"internalType": "address",
					"name": "",
					"type": "address"
				}
			],
			"stateMutability": "view",
			"type": "function"
		},
		{
			"inputs": [
				{
					"internalType": "address",
					"name": "_USDC",
					"type": "address"
				},
				{
					"internalType": "uint256",
					"name": "_liquidityToRemove",
					"type": "uint256"
				},
				{
					"internalType": "address",
					"name": "_liquidityReceiver",
					"type": "address"
				}
			],
			"name": "removeUSDCLiquidity",
			"outputs": [
				{
					"internalType": "bool",
					"name": "_removeLiquiditySuccess",
					"type": "bool"
				}
			],
			"stateMutability": "nonpayable",
			"type": "function"
		},
		{
			"inputs": [],
			"name": "router",
			"outputs": [
				{
					"internalType": "contract IRouter",
					"name": "",
					"type": "address"
				}
			],
			"stateMutability": "view",
			"type": "function"
		},
		{
			"inputs": [
				{
					"internalType": "address",
					"name": "_USDC",
					"type": "address"
				},
				{
					"internalType": "address",
					"name": "_ticketsBuyer",
					"type": "address"
				},
				{
					"internalType": "address",
					"name": "_raffleOperator",
					"type": "address"
				},
				{
					"internalType": "address",
					"name": "_tokenToUseToBuyTickets",
					"type": "address"
				},
				{
					"internalType": "uint256",
					"name": "_amountToBuyTickets",
					"type": "uint256"
				},
				{
					"internalType": "uint256",
					"name": "_amountOfUSDCToReceive",
					"type": "uint256"
				}
			],
			"name": "swapTokenToUSDC",
			"outputs": [
				{
					"internalType": "bool",
					"name": "_swapSuccess",
					"type": "bool"
				}
			],
			"stateMutability": "nonpayable",
			"type": "function"
		},
		{
			"inputs": [
				{
					"internalType": "address",
					"name": "_USDC",
					"type": "address"
				},
				{
					"internalType": "address",
					"name": "_ticketsBuyer",
					"type": "address"
				},
				{
					"internalType": "address",
					"name": "_raffleOperator",
					"type": "address"
				},
				{
					"internalType": "address",
					"name": "_tokenToUseToBuyTickets",
					"type": "address"
				},
				{
					"internalType": "uint256",
					"name": "_amountToBuyTickets",
					"type": "uint256"
				},
				{
					"internalType": "uint256",
					"name": "_amountOfUSDCToBuyTickets",
					"type": "uint256"
				}
			],
			"name": "transferAmountOfUSDFromLiquidityToBuyTickets",
			"outputs": [
				{
					"internalType": "bool",
					"name": "_transferSuccess",
					"type": "bool"
				}
			],
			"stateMutability": "nonpayable",
			"type": "function"
		},
		{
			"inputs": [
				{
					"internalType": "address",
					"name": "_USDC",
					"type": "address"
				},
				{
					"internalType": "address",
					"name": "_ticketsBuyer",
					"type": "address"
				},
				{
					"internalType": "address",
					"name": "_raffleOperator",
					"type": "address"
				},
				{
					"internalType": "uint256",
					"name": "_amountToBuyTickets",
					"type": "uint256"
				}
			],
			"name": "transferAmountToBuyTickets",
			"outputs": [
				{
					"internalType": "bool",
					"name": "_transferSuccess",
					"type": "bool"
				}
			],
			"stateMutability": "nonpayable",
			"type": "function"
		}
	]
}