{
	"data": {
		"bytecode": {
			"linkReferences": {},
			"object": "61032060095561012060405260aa60c0819052600f60e0819052610100819052600c91909155600d819055600e553480156200003a57600080fd5b506040516200298f3803806200298f8339810160408190526200005d9162000165565b600080546001600160a01b03199081163380831691909117811783556003805460018181019092557fc2575a0e9e593c00f959f8c92f12db2869c3395a3b0502d05e2516446f71f85b01805484168317905590835260086020526040909220805460ff191683179055815481166001600160a01b03998a16179091556004805482169789169790971790965560058054871695881695909517909455600680548616938716939093179092558416608052831660a0526002805483169190931617909155600a8054735f4ec3df9cbd43714fe2740f5e3616155c5b84199216919091179055620001fa565b80516001600160a01b03811681146200016057600080fd5b919050565b600080600080600080600060e0888a0312156200018157600080fd5b6200018c8862000148565b96506200019c6020890162000148565b9550620001ac6040890162000148565b9450620001bc6060890162000148565b9350620001cc6080890162000148565b9250620001dc60a0890162000148565b9150620001ec60c0890162000148565b905092959891949750929550565b60805160a0516127306200025f60003960008181610563015281816116510152818161167b01528181611723015281816118120152818161185801528181611e8e01528181611f160152611f9e0152600081816104b501526107ca01526127306000f3fe6080604052600436106101ee5760003560e01c806394e992561161010d578063c5f956af116100a0578063e47fd4c51161006f578063e47fd4c514610691578063e4a76726146106b1578063e89ce4ae146106d1578063f887ea40146106f1578063f897a22b1461071157600080fd5b8063c5f956af1461061b578063d229801f1461063b578063dd887e1014610651578063e11655451461067157600080fd5b8063b41ed44f116100dc578063b41ed44f14610511578063b52ec16f14610531578063b652acb514610551578063b7cc6a831461058557600080fd5b806394e992561461046e578063a99c54f714610483578063ad5c4648146104a3578063b3dde324146104d757600080fd5b80636f641428116101855780638bc4c7f9116101545780638bc4c7f9146103ec5780638da5cb5b1461040e5780638dfad5121461042e57806394743ae81461044e57600080fd5b80636f64142814610359578063764ba96b14610392578063809d458d146103a557806386b04dca146103c557600080fd5b8063409f7e9d116101c1578063409f7e9d146102b1578063462f2e74146102d157806347fdbc8e146103095780636323580d1461032957600080fd5b806310ba4f05146101f357806319d0410e146102265780631de6ebd8146102565780633bbac57914610278575b600080fd5b3480156101ff57600080fd5b5061021361020e3660046120c7565b610731565b6040519081526020015b60405180910390f35b34801561023257600080fd5b506102466102413660046120eb565b610ce6565b604051901515815260200161021d565b34801561026257600080fd5b506102766102713660046120c7565b610d88565b005b34801561028457600080fd5b506102466102933660046120c7565b6001600160a01b031660009081526007602052604090205460ff1690565b3480156102bd57600080fd5b506102766102cc366004612124565b610fa7565b3480156102dd57600080fd5b506005546102f1906001600160a01b031681565b6040516001600160a01b03909116815260200161021d565b34801561031557600080fd5b50610246610324366004612156565b61105e565b34801561033557600080fd5b506102466103443660046120c7565b60086020526000908152604090205460ff1681565b34801561036557600080fd5b506102466103743660046120c7565b6001600160a01b031660009081526008602052604090205460ff1690565b6102466103a0366004612198565b61108b565b3480156103b157600080fd5b506102766103c03660046120c7565b6110a2565b3480156103d157600080fd5b506103da611125565b60405160ff909116815260200161021d565b3480156103f857600080fd5b5061040161119f565b60405161021d91906121bd565b34801561041a57600080fd5b506000546102f1906001600160a01b031681565b34801561043a57600080fd5b506102766104493660046120c7565b611236565b34801561045a57600080fd5b506102766104693660046120c7565b6112b9565b34801561047a57600080fd5b506102136113c1565b34801561048f57600080fd5b5061027661049e3660046120c7565b611446565b3480156104af57600080fd5b506102f17f000000000000000000000000000000000000000000000000000000000000000081565b3480156104e357600080fd5b50600c54600d54600e546104f692919083565b6040805193845260208401929092529082015260600161021d565b34801561051d57600080fd5b5061024661052c36600461220a565b6114c9565b34801561053d57600080fd5b5061024661054c36600461223f565b611532565b34801561055d57600080fd5b506102f17f000000000000000000000000000000000000000000000000000000000000000081565b34801561059157600080fd5b506105e26105a03660046120c7565b600b602052600090815260409020805460018201546002830154600384015460049094015460ff808516956101009095046001600160a01b0316949216919086565b6040805196151587526001600160a01b0390951660208701529385019290925215156060840152608083015260a082015260c00161021d565b34801561062757600080fd5b506004546102f1906001600160a01b031681565b34801561064757600080fd5b5061021360095481565b34801561065d57600080fd5b5061024661066c366004612280565b6118a7565b34801561067d57600080fd5b5061027661068c3660046122df565b611a0c565b34801561069d57600080fd5b506006546102f1906001600160a01b031681565b3480156106bd57600080fd5b506102466106cc36600461223f565b611acf565b3480156106dd57600080fd5b506102466106ec3660046120c7565b611af3565b3480156106fd57600080fd5b506001546102f1906001600160a01b031681565b34801561071d57600080fd5b506002546102f1906001600160a01b031681565b600080600160009054906101000a90046001600160a01b03166001600160a01b031663c45a01556040518163ffffffff1660e01b8152600401602060405180830381865afa158015610787573d6000803e3d6000fd5b505050506040513d601f19601f820116820180604052508101906107ab919061230d565b60405163e6a4390560e01b81526001600160a01b0385811660048301527f000000000000000000000000000000000000000000000000000000000000000081166024830152919091169063e6a4390590604401602060405180830381865afa15801561081b573d6000803e3d6000fd5b505050506040513d601f19601f8201168201806040525081019061083f919061230d565b90506000600260009054906101000a90046001600160a01b03166001600160a01b031663313ce5676040518163ffffffff1660e01b8152600401602060405180830381865afa158015610896573d6000803e3d6000fd5b505050506040513d601f19601f820116820180604052508101906108ba919061232a565b60ff1690506000826001600160a01b0316630dfe16816040518163ffffffff1660e01b8152600401602060405180830381865afa1580156108ff573d6000803e3d6000fd5b505050506040513d601f19601f82011682018060405250810190610923919061230d565b6001600160a01b031663313ce5676040518163ffffffff1660e01b8152600401602060405180830381865afa158015610960573d6000803e3d6000fd5b505050506040513d601f19601f82011682018060405250810190610984919061232a565b60ff1690506000836001600160a01b031663d21220a76040518163ffffffff1660e01b8152600401602060405180830381865afa1580156109c9573d6000803e3d6000fd5b505050506040513d601f19601f820116820180604052508101906109ed919061230d565b6001600160a01b031663313ce5676040518163ffffffff1660e01b8152600401602060405180830381865afa158015610a2a573d6000803e3d6000fd5b505050506040513d601f19601f82011682018060405250810190610a4e919061232a565b60ff169050600080856001600160a01b0316630902f1ac6040518163ffffffff1660e01b8152600401606060405180830381865afa158015610a94573d6000803e3d6000fd5b505050506040513d601f19601f82011682018060405250810190610ab89190612369565b506001600160701b03918216935016905060008282610ad887600a6124a8565b610ae39060016124b4565b610aed91906124b4565b610af791906124d3565b905060008284610b0887600a6124a8565b610b139060016124b4565b610b1d91906124b4565b610b2791906124d3565b90506000610b336113c1565b90506000610b3f611125565b90506000610b4e82600a6124f5565b610b5890846124d3565b9050600081610b688c600a6124a8565b610b739060016124b4565b610b7d91906124b4565b90508b6001600160a01b0316630dfe16816040518163ffffffff1660e01b8152600401602060405180830381865afa158015610bbd573d6000803e3d6000fd5b505050506040513d601f19601f82011682018060405250810190610be1919061230d565b6001600160a01b03168e6001600160a01b031603610c2c578481610c068c600a6124a8565b610c119060016124b4565b610c1b91906124b4565b610c2591906124d3565b9c50610cd5565b8b6001600160a01b031663d21220a76040518163ffffffff1660e01b8152600401602060405180830381865afa158015610c6a573d6000803e3d6000fd5b505050506040513d601f19601f82011682018060405250810190610c8e919061230d565b6001600160a01b03168e6001600160a01b031603610cd5578581610cb38b600a6124a8565b610cbe9060016124b4565b610cc891906124b4565b610cd291906124d3565b9c505b505050505050505050505050919050565b3360009081526008602052604081205460ff161515600114610d235760405162461bcd60e51b8152600401610d1a90612504565b60405180910390fd5b6001600160a01b038381166000818152600b602052604080822080546001600160a81b03191661010095881695860260ff1916179055517fe894570c3dc66fbe55cb922f4c0f34ffba41e423c2fe4b4f16e66a1b3258de489190a35060015b92915050565b3360009081526008602052604090205460ff161515600114610dbc5760405162461bcd60e51b8152600401610d1a90612504565b600354600103610ddf5760405163671c8c1560e01b815260040160405180910390fd5b6000546001600160a01b0390811690821603610e0e576040516349d2416760e01b815260040160405180910390fd5b6001600160a01b03811660009081526008602052604090205460ff16610e47576040516371e0478f60e01b815260040160405180910390fd5b600354600090610e5990600190612534565b905060005b600354811015610f5c57826001600160a01b031660038281548110610e8557610e8561254b565b6000918252602090912001546001600160a01b031603610f4a57600060038381548110610eb457610eb461254b565b600091825260209091200154600380546001600160a01b039092169250829184908110610ee357610ee361254b565b9060005260206000200160006101000a8154816001600160a01b0302191690836001600160a01b031602179055506003805480610f2257610f22612561565b600082815260209020810160001990810180546001600160a01b031916905501905550610f5c565b80610f5481612577565b915050610e5e565b506001600160a01b038216600081815260086020526040808220805460ff19169055517f78446bb1d2af264e94df07ff95f686ea75818ed1935cc02a1a8d7f752696149c9190a25050565b3360009081526008602052604090205460ff161515600114610fdb5760405162461bcd60e51b8152600401610d1a90612504565b8082610fe78587612590565b610ff19190612590565b610ffb9190612590565b6103e81461101b5760405162461bcd60e51b8152600401610d1a906125a8565b6009849055600c839055600d829055600e8190556040517f846206d6c3449ac0b05841dfb88bf28b55aef00f96152490c69c96238048de1590600090a150505050565b600080546001600160a01b0316331461107657600080fd5b611081848385611bc3565b5060019392505050565b600061109982333086611cf4565b50600192915050565b3360009081526008602052604090205460ff1615156001146110d65760405162461bcd60e51b8152600401610d1a90612504565b6004546001600160a01b038083169116036111035760405162461bcd60e51b8152600401610d1a906125cd565b600480546001600160a01b0319166001600160a01b0392909216919091179055565b600080600a60009054906101000a90046001600160a01b03166001600160a01b031663313ce5676040518163ffffffff1660e01b8152600401602060405180830381865afa15801561117b573d6000803e3d6000fd5b505050506040513d601f19601f82011682018060405250810190610d82919061232a565b3360009081526008602052604090205460609060ff1615156001146111d65760405162461bcd60e51b8152600401610d1a90612504565b600380548060200260200160405190810160405280929190818152602001828054801561122c57602002820191906000526020600020905b81546001600160a01b0316815260019091019060200180831161120e575b5050505050905090565b3360009081526008602052604090205460ff16151560011461126a5760405162461bcd60e51b8152600401610d1a90612504565b6006546001600160a01b038083169116036112975760405162461bcd60e51b8152600401610d1a906125cd565b600680546001600160a01b0319166001600160a01b0392909216919091179055565b6000546001600160a01b031633146112d057600080fd5b600354600919016112f457604051633de62f9f60e11b815260040160405180910390fd5b6001600160a01b03811660009081526008602052604090205460ff16151560010361133257604051632725434160e11b815260040160405180910390fd5b6003805460018082019092557fc2575a0e9e593c00f959f8c92f12db2869c3395a3b0502d05e2516446f71f85b0180546001600160a01b0319166001600160a01b038416908117909155600081815260086020526040808220805460ff1916909417909355915190917f6c72e4515192eb32b2c869ab87c03bb8fb82044bdea5ac3f011131471a7fb2da91a250565b600080600a60009054906101000a90046001600160a01b03166001600160a01b031663feaf968c6040518163ffffffff1660e01b815260040160a060405180830381865afa158015611417573d6000803e3d6000fd5b505050506040513d601f19601f8201168201806040525081019061143b9190612613565b509195945050505050565b3360009081526008602052604090205460ff16151560011461147a5760405162461bcd60e51b8152600401610d1a90612504565b6005546001600160a01b038083169116036114a75760405162461bcd60e51b8152600401610d1a906125cd565b600580546001600160a01b0319166001600160a01b0392909216919091179055565b600080546001600160a01b031633146114e157600080fd5b506001600160a01b0383166000908152600b60205260408120805460ff1990811660019081178355600283018054909216811790915560048201929092558082018490556003018290559392505050565b3360009081526008602052604081205460ff1615156001146115665760405162461bcd60e51b8152600401610d1a90612504565b6001600160a01b0384166000908152600b6020526040902060020154849060ff16151560011480156115b157506001600160a01b0381166000908152600b602052604090205460ff16155b6115cd5760405162461bcd60e51b8152600401610d1a90612663565b6001600160a01b038086166000908152600b602052604090205461010090048116908516111561160f5760405162461bcd60e51b8152600401610d1a90612663565b6001600160a01b0385166000908152600b602052604090206001015483111561164a5760405162461bcd60e51b8152600401610d1a906125a8565b60006116757f0000000000000000000000000000000000000000000000000000000000000000610731565b905060007f00000000000000000000000000000000000000000000000000000000000000006001600160a01b031663313ce5676040518163ffffffff1660e01b8152600401602060405180830381865afa1580156116d7573d6000803e3d6000fd5b505050506040513d601f19601f820116820180604052508101906116fb919061232a565b6040516370a0823160e01b815230600482015260ff9190911691506000906001600160a01b037f000000000000000000000000000000000000000000000000000000000000000016906370a0823190602401602060405180830381865afa15801561176a573d6000803e3d6000fd5b505050506040513d601f19601f8201168201806040525081019061178e9190612689565b905060008361179e84600a6124a8565b6117a99060016124b4565b6117b390896124b4565b6117bd91906124d3565b905060006103e8600954896117d291906124b4565b6117dc91906124d3565b90506000856117ec86600a6124a8565b6117f79060016124b4565b61180190846124b4565b61180b91906124d3565b90506118387f00000000000000000000000000000000000000000000000000000000000000008b83611bc3565b8084101561188a57600061184c8583612534565b600454909150611888907f0000000000000000000000000000000000000000000000000000000000000000906001600160a01b03168d84611cf4565b505b611895838688611e32565b5060019b9a5050505050505050505050565b3360009081526008602052604081205460ff1615156001146118db5760405162461bcd60e51b8152600401610d1a90612504565b6001600160a01b0385166000908152600b6020526040902060020154859060ff161515600114801561192657506001600160a01b0381166000908152600b602052604090205460ff16155b6119425760405162461bcd60e51b8152600401610d1a90612663565b6001600160a01b0386166000908152600b60205260409020600481015460039091015481106119835760405162461bcd60e51b8152600401610d1a906125a8565b6001600160a01b0387166000908152600b602052604081206004018054916119aa83612577565b90915550506001600160a01b039687166000908152600b60209081526040808320938352600590930190522080549587166001600160a01b03199687161781556001808201805496909816959096169490941790955550600290910155919050565b3360009081526008602052604090205460ff161515600114611a405760405162461bcd60e51b8152600401610d1a90612504565b6001600160a01b03821660009081526007602052604090205481151560ff909116151503611aa45760405162461bcd60e51b815260206004820152601160248201527015985b1d5948185b1c9958591e481cd95d607a1b6044820152606401610d1a565b6001600160a01b03919091166000908152600760205260409020805460ff1916911515919091179055565b600080546001600160a01b03163314611ae757600080fd5b61108184843085611cf4565b600080546001600160a01b03163314611b0b57600080fd5b6001600160a01b0382166000908152600b6020526040902054829060ff161515600114611b4a5760405162461bcd60e51b8152600401610d1a90612663565b6001600160a01b0383166000908152600b6020526040902060048101546003909101548110611b8b5760405162461bcd60e51b8152600401610d1a906125a8565b8015611b9c57611b9a84611fdd565b505b5050506001600160a01b03166000908152600b60205260409020805460ff19169055600190565b604080516001600160a01b038481166024830152604480830185905283518084039091018152606490920183526020820180516001600160e01b031663a9059cbb60e01b1790529151600092839290871691611c1f91906126a2565b6000604051808303816000865af19150503d8060008114611c5c576040519150601f19603f3d011682016040523d82523d6000602084013e611c61565b606091505b5091509150818015611c8b575080511580611c8b575080806020019051810190611c8b91906126dd565b611ced5760405162461bcd60e51b815260206004820152602d60248201527f5472616e7366657248656c7065723a3a736166655472616e736665723a20747260448201526c185b9cd9995c8819985a5b1959609a1b6064820152608401610d1a565b5050505050565b604080516001600160a01b0385811660248301528481166044830152606480830185905283518084039091018152608490920183526020820180516001600160e01b03166323b872dd60e01b1790529151600092839290881691611d5891906126a2565b6000604051808303816000865af19150503d8060008114611d95576040519150601f19603f3d011682016040523d82523d6000602084013e611d9a565b606091505b5091509150818015611dc4575080511580611dc4575080806020019051810190611dc491906126dd565b611e2a5760405162461bcd60e51b815260206004820152603160248201527f5472616e7366657248656c7065723a3a7472616e7366657246726f6d3a207472604482015270185b9cd9995c919c9bdb4819985a5b1959607a1b6064820152608401610d1a565b505050505050565b6000806103e8600c6001015486611e4991906124b4565b611e5391906124d3565b9050600083611e6386600a6124a8565b611e6e9060016124b4565b611e7890846124b4565b611e8291906124d3565b600454909150611ebd907f0000000000000000000000000000000000000000000000000000000000000000906001600160a01b031683611bc3565b600c546000906103e890611ed190896124b4565b611edb91906124d3565b9050600085611eeb88600a6124a8565b611ef69060016124b4565b611f0090846124b4565b611f0a91906124d3565b600454909150611f45907f0000000000000000000000000000000000000000000000000000000000000000906001600160a01b031683611bc3565b600e546000906103e890611f59908b6124b4565b611f6391906124d3565b9050600087611f738a600a6124a8565b611f7e9060016124b4565b611f8890846124b4565b611f9291906124d3565b600454909150611fcd907f0000000000000000000000000000000000000000000000000000000000000000906001600160a01b031683611bc3565b5060019998505050505050505050565b600080546001600160a01b03163314611ff557600080fd5b6001600160a01b0382166000908152600b6020526040902054829060ff1615156001146120345760405162461bcd60e51b8152600401610d1a90612663565b60005b6001600160a01b0384166000908152600b6020526040902060040154811015611b9c576001600160a01b038481166000908152600b6020908152604080832085845260050190915290206001810154815460029092015461209f939182169290911690611bc3565b6120a881612577565b9050612037565b6001600160a01b03811681146120c457600080fd5b50565b6000602082840312156120d957600080fd5b81356120e4816120af565b9392505050565b600080604083850312156120fe57600080fd5b8235612109816120af565b91506020830135612119816120af565b809150509250929050565b6000806000806080858703121561213a57600080fd5b5050823594602084013594506040840135936060013592509050565b60008060006060848603121561216b57600080fd5b8335612176816120af565b925060208401359150604084013561218d816120af565b809150509250925092565b600080604083850312156121ab57600080fd5b823591506020830135612119816120af565b6020808252825182820181905260009190848201906040850190845b818110156121fe5783516001600160a01b0316835292840192918401916001016121d9565b50909695505050505050565b60008060006060848603121561221f57600080fd5b833561222a816120af565b95602085013595506040909401359392505050565b60008060006060848603121561225457600080fd5b833561225f816120af565b9250602084013561226f816120af565b929592945050506040919091013590565b6000806000806080858703121561229657600080fd5b84356122a1816120af565b935060208501356122b1816120af565b925060408501356122c1816120af565b9396929550929360600135925050565b80151581146120c457600080fd5b600080604083850312156122f257600080fd5b82356122fd816120af565b91506020830135612119816122d1565b60006020828403121561231f57600080fd5b81516120e4816120af565b60006020828403121561233c57600080fd5b815160ff811681146120e457600080fd5b80516001600160701b038116811461236457600080fd5b919050565b60008060006060848603121561237e57600080fd5b6123878461234d565b92506123956020850161234d565b9150604084015163ffffffff8116811461218d57600080fd5b634e487b7160e01b600052601160045260246000fd5b600181815b808511156123ff5781600019048211156123e5576123e56123ae565b808516156123f257918102915b93841c93908002906123c9565b509250929050565b60008261241657506001610d82565b8161242357506000610d82565b816001811461243957600281146124435761245f565b6001915050610d82565b60ff841115612454576124546123ae565b50506001821b610d82565b5060208310610133831016604e8410600b8410161715612482575081810a610d82565b61248c83836123c4565b80600019048211156124a0576124a06123ae565b029392505050565b60006120e48383612407565b60008160001904831182151516156124ce576124ce6123ae565b500290565b6000826124f057634e487b7160e01b600052601260045260246000fd5b500490565b60006120e460ff841683612407565b602080825260169082015275165bdd48185c99481b9bdd08185d5d1a1bdc9a5e995960521b604082015260600190565b600082821015612546576125466123ae565b500390565b634e487b7160e01b600052603260045260246000fd5b634e487b7160e01b600052603160045260246000fd5b600060018201612589576125896123ae565b5060010190565b600082198211156125a3576125a36123ae565b500190565b6020808252600b908201526a1098590814995c5d595cdd60aa1b604082015260600190565b60208082526012908201527115d85b1b195d08185b1c9958591e481cd95d60721b604082015260600190565b805169ffffffffffffffffffff8116811461236457600080fd5b600080600080600060a0868803121561262b57600080fd5b612634866125f9565b9450602086015193506040860151925060608601519150612657608087016125f9565b90509295509295909350565b6020808252600c908201526b155b985d5d1a1bdc9a5e995960a21b604082015260600190565b60006020828403121561269b57600080fd5b5051919050565b6000825160005b818110156126c357602081860181015185830152016126a9565b818111156126d2576000828501525b509190910192915050565b6000602082840312156126ef57600080fd5b81516120e4816122d156fea264697066735822122077f2d4e59eec918d5f6d5d80eaaa11b2af34c73541fce71475f47f804e03159464736f6c634300080e0033",
			"opcodes": "PUSH2 0x320 PUSH1 0x9 SSTORE PUSH2 0x120 PUSH1 0x40 MSTORE PUSH1 0xAA PUSH1 0xC0 DUP2 SWAP1 MSTORE PUSH1 0xF PUSH1 0xE0 DUP2 SWAP1 MSTORE PUSH2 0x100 DUP2 SWAP1 MSTORE PUSH1 0xC SWAP2 SWAP1 SWAP2 SSTORE PUSH1 0xD DUP2 SWAP1 SSTORE PUSH1 0xE SSTORE CALLVALUE DUP1 ISZERO PUSH3 0x3A JUMPI PUSH1 0x0 DUP1 REVERT JUMPDEST POP PUSH1 0x40 MLOAD PUSH3 0x298F CODESIZE SUB DUP1 PUSH3 0x298F DUP4 CODECOPY DUP2 ADD PUSH1 0x40 DUP2 SWAP1 MSTORE PUSH3 0x5D SWAP2 PUSH3 0x165 JUMP JUMPDEST PUSH1 0x0 DUP1 SLOAD PUSH1 0x1 PUSH1 0x1 PUSH1 0xA0 SHL SUB NOT SWAP1 DUP2 AND CALLER DUP1 DUP4 AND SWAP2 SWAP1 SWAP2 OR DUP2 OR DUP4 SSTORE PUSH1 0x3 DUP1 SLOAD PUSH1 0x1 DUP2 DUP2 ADD SWAP1 SWAP3 SSTORE PUSH32 0xC2575A0E9E593C00F959F8C92F12DB2869C3395A3B0502D05E2516446F71F85B ADD DUP1 SLOAD DUP5 AND DUP4 OR SWAP1 SSTORE SWAP1 DUP4 MSTORE PUSH1 0x8 PUSH1 0x20 MSTORE PUSH1 0x40 SWAP1 SWAP3 KECCAK256 DUP1 SLOAD PUSH1 0xFF NOT AND DUP4 OR SWAP1 SSTORE DUP2 SLOAD DUP2 AND PUSH1 0x1 PUSH1 0x1 PUSH1 0xA0 SHL SUB SWAP10 DUP11 AND OR SWAP1 SWAP2 SSTORE PUSH1 0x4 DUP1 SLOAD DUP3 AND SWAP8 DUP10 AND SWAP8 SWAP1 SWAP8 OR SWAP1 SWAP7 SSTORE PUSH1 0x5 DUP1 SLOAD DUP8 AND SWAP6 DUP9 AND SWAP6 SWAP1 SWAP6 OR SWAP1 SWAP5 SSTORE PUSH1 0x6 DUP1 SLOAD DUP7 AND SWAP4 DUP8 AND SWAP4 SWAP1 SWAP4 OR SWAP1 SWAP3 SSTORE DUP5 AND PUSH1 0x80 MSTORE DUP4 AND PUSH1 0xA0 MSTORE PUSH1 0x2 DUP1 SLOAD DUP4 AND SWAP2 SWAP1 SWAP4 AND OR SWAP1 SWAP2 SSTORE PUSH1 0xA DUP1 SLOAD PUSH20 0x5F4EC3DF9CBD43714FE2740F5E3616155C5B8419 SWAP3 AND SWAP2 SWAP1 SWAP2 OR SWAP1 SSTORE PUSH3 0x1FA JUMP JUMPDEST DUP1 MLOAD PUSH1 0x1 PUSH1 0x1 PUSH1 0xA0 SHL SUB DUP2 AND DUP2 EQ PUSH3 0x160 JUMPI PUSH1 0x0 DUP1 REVERT JUMPDEST SWAP2 SWAP1 POP JUMP JUMPDEST PUSH1 0x0 DUP1 PUSH1 0x0 DUP1 PUSH1 0x0 DUP1 PUSH1 0x0 PUSH1 0xE0 DUP9 DUP11 SUB SLT ISZERO PUSH3 0x181 JUMPI PUSH1 0x0 DUP1 REVERT JUMPDEST PUSH3 0x18C DUP9 PUSH3 0x148 JUMP JUMPDEST SWAP7 POP PUSH3 0x19C PUSH1 0x20 DUP10 ADD PUSH3 0x148 JUMP JUMPDEST SWAP6 POP PUSH3 0x1AC PUSH1 0x40 DUP10 ADD PUSH3 0x148 JUMP JUMPDEST SWAP5 POP PUSH3 0x1BC PUSH1 0x60 DUP10 ADD PUSH3 0x148 JUMP JUMPDEST SWAP4 POP PUSH3 0x1CC PUSH1 0x80 DUP10 ADD PUSH3 0x148 JUMP JUMPDEST SWAP3 POP PUSH3 0x1DC PUSH1 0xA0 DUP10 ADD PUSH3 0x148 JUMP JUMPDEST SWAP2 POP PUSH3 0x1EC PUSH1 0xC0 DUP10 ADD PUSH3 0x148 JUMP JUMPDEST SWAP1 POP SWAP3 SWAP6 SWAP9 SWAP2 SWAP5 SWAP8 POP SWAP3 SWAP6 POP JUMP JUMPDEST PUSH1 0x80 MLOAD PUSH1 0xA0 MLOAD PUSH2 0x2730 PUSH3 0x25F PUSH1 0x0 CODECOPY PUSH1 0x0 DUP2 DUP2 PUSH2 0x563 ADD MSTORE DUP2 DUP2 PUSH2 0x1651 ADD MSTORE DUP2 DUP2 PUSH2 0x167B ADD MSTORE DUP2 DUP2 PUSH2 0x1723 ADD MSTORE DUP2 DUP2 PUSH2 0x1812 ADD MSTORE DUP2 DUP2 PUSH2 0x1858 ADD MSTORE DUP2 DUP2 PUSH2 0x1E8E ADD MSTORE DUP2 DUP2 PUSH2 0x1F16 ADD MSTORE PUSH2 0x1F9E ADD MSTORE PUSH1 0x0 DUP2 DUP2 PUSH2 0x4B5 ADD MSTORE PUSH2 0x7CA ADD MSTORE PUSH2 0x2730 PUSH1 0x0 RETURN INVALID PUSH1 0x80 PUSH1 0x40 MSTORE PUSH1 0x4 CALLDATASIZE LT PUSH2 0x1EE JUMPI PUSH1 0x0 CALLDATALOAD PUSH1 0xE0 SHR DUP1 PUSH4 0x94E99256 GT PUSH2 0x10D JUMPI DUP1 PUSH4 0xC5F956AF GT PUSH2 0xA0 JUMPI DUP1 PUSH4 0xE47FD4C5 GT PUSH2 0x6F JUMPI DUP1 PUSH4 0xE47FD4C5 EQ PUSH2 0x691 JUMPI DUP1 PUSH4 0xE4A76726 EQ PUSH2 0x6B1 JUMPI DUP1 PUSH4 0xE89CE4AE EQ PUSH2 0x6D1 JUMPI DUP1 PUSH4 0xF887EA40 EQ PUSH2 0x6F1 JUMPI DUP1 PUSH4 0xF897A22B EQ PUSH2 0x711 JUMPI PUSH1 0x0 DUP1 REVERT JUMPDEST DUP1 PUSH4 0xC5F956AF EQ PUSH2 0x61B JUMPI DUP1 PUSH4 0xD229801F EQ PUSH2 0x63B JUMPI DUP1 PUSH4 0xDD887E10 EQ PUSH2 0x651 JUMPI DUP1 PUSH4 0xE1165545 EQ PUSH2 0x671 JUMPI PUSH1 0x0 DUP1 REVERT JUMPDEST DUP1 PUSH4 0xB41ED44F GT PUSH2 0xDC JUMPI DUP1 PUSH4 0xB41ED44F EQ PUSH2 0x511 JUMPI DUP1 PUSH4 0xB52EC16F EQ PUSH2 0x531 JUMPI DUP1 PUSH4 0xB652ACB5 EQ PUSH2 0x551 JUMPI DUP1 PUSH4 0xB7CC6A83 EQ PUSH2 0x585 JUMPI PUSH1 0x0 DUP1 REVERT JUMPDEST DUP1 PUSH4 0x94E99256 EQ PUSH2 0x46E JUMPI DUP1 PUSH4 0xA99C54F7 EQ PUSH2 0x483 JUMPI DUP1 PUSH4 0xAD5C4648 EQ PUSH2 0x4A3 JUMPI DUP1 PUSH4 0xB3DDE324 EQ PUSH2 0x4D7 JUMPI PUSH1 0x0 DUP1 REVERT JUMPDEST DUP1 PUSH4 0x6F641428 GT PUSH2 0x185 JUMPI DUP1 PUSH4 0x8BC4C7F9 GT PUSH2 0x154 JUMPI DUP1 PUSH4 0x8BC4C7F9 EQ PUSH2 0x3EC JUMPI DUP1 PUSH4 0x8DA5CB5B EQ PUSH2 0x40E JUMPI DUP1 PUSH4 0x8DFAD512 EQ PUSH2 0x42E JUMPI DUP1 PUSH4 0x94743AE8 EQ PUSH2 0x44E JUMPI PUSH1 0x0 DUP1 REVERT JUMPDEST DUP1 PUSH4 0x6F641428 EQ PUSH2 0x359 JUMPI DUP1 PUSH4 0x764BA96B EQ PUSH2 0x392 JUMPI DUP1 PUSH4 0x809D458D EQ PUSH2 0x3A5 JUMPI DUP1 PUSH4 0x86B04DCA EQ PUSH2 0x3C5 JUMPI PUSH1 0x0 DUP1 REVERT JUMPDEST DUP1 PUSH4 0x409F7E9D GT PUSH2 0x1C1 JUMPI DUP1 PUSH4 0x409F7E9D EQ PUSH2 0x2B1 JUMPI DUP1 PUSH4 0x462F2E74 EQ PUSH2 0x2D1 JUMPI DUP1 PUSH4 0x47FDBC8E EQ PUSH2 0x309 JUMPI DUP1 PUSH4 0x6323580D EQ PUSH2 0x329 JUMPI PUSH1 0x0 DUP1 REVERT JUMPDEST DUP1 PUSH4 0x10BA4F05 EQ PUSH2 0x1F3 JUMPI DUP1 PUSH4 0x19D0410E EQ PUSH2 0x226 JUMPI DUP1 PUSH4 0x1DE6EBD8 EQ PUSH2 0x256 JUMPI DUP1 PUSH4 0x3BBAC579 EQ PUSH2 0x278 JUMPI JUMPDEST PUSH1 0x0 DUP1 REVERT JUMPDEST CALLVALUE DUP1 ISZERO PUSH2 0x1FF JUMPI PUSH1 0x0 DUP1 REVERT JUMPDEST POP PUSH2 0x213 PUSH2 0x20E CALLDATASIZE PUSH1 0x4 PUSH2 0x20C7 JUMP JUMPDEST PUSH2 0x731 JUMP JUMPDEST PUSH1 0x40 MLOAD SWAP1 DUP2 MSTORE PUSH1 0x20 ADD JUMPDEST PUSH1 0x40 MLOAD DUP1 SWAP2 SUB SWAP1 RETURN JUMPDEST CALLVALUE DUP1 ISZERO PUSH2 0x232 JUMPI PUSH1 0x0 DUP1 REVERT JUMPDEST POP PUSH2 0x246 PUSH2 0x241 CALLDATASIZE PUSH1 0x4 PUSH2 0x20EB JUMP JUMPDEST PUSH2 0xCE6 JUMP JUMPDEST PUSH1 0x40 MLOAD SWAP1 ISZERO ISZERO DUP2 MSTORE PUSH1 0x20 ADD PUSH2 0x21D JUMP JUMPDEST CALLVALUE DUP1 ISZERO PUSH2 0x262 JUMPI PUSH1 0x0 DUP1 REVERT JUMPDEST POP PUSH2 0x276 PUSH2 0x271 CALLDATASIZE PUSH1 0x4 PUSH2 0x20C7 JUMP JUMPDEST PUSH2 0xD88 JUMP JUMPDEST STOP JUMPDEST CALLVALUE DUP1 ISZERO PUSH2 0x284 JUMPI PUSH1 0x0 DUP1 REVERT JUMPDEST POP PUSH2 0x246 PUSH2 0x293 CALLDATASIZE PUSH1 0x4 PUSH2 0x20C7 JUMP JUMPDEST PUSH1 0x1 PUSH1 0x1 PUSH1 0xA0 SHL SUB AND PUSH1 0x0 SWAP1 DUP2 MSTORE PUSH1 0x7 PUSH1 0x20 MSTORE PUSH1 0x40 SWAP1 KECCAK256 SLOAD PUSH1 0xFF AND SWAP1 JUMP JUMPDEST CALLVALUE DUP1 ISZERO PUSH2 0x2BD JUMPI PUSH1 0x0 DUP1 REVERT JUMPDEST POP PUSH2 0x276 PUSH2 0x2CC CALLDATASIZE PUSH1 0x4 PUSH2 0x2124 JUMP JUMPDEST PUSH2 0xFA7 JUMP JUMPDEST CALLVALUE DUP1 ISZERO PUSH2 0x2DD JUMPI PUSH1 0x0 DUP1 REVERT JUMPDEST POP PUSH1 0x5 SLOAD PUSH2 0x2F1 SWAP1 PUSH1 0x1 PUSH1 0x1 PUSH1 0xA0 SHL SUB AND DUP2 JUMP JUMPDEST PUSH1 0x40 MLOAD PUSH1 0x1 PUSH1 0x1 PUSH1 0xA0 SHL SUB SWAP1 SWAP2 AND DUP2 MSTORE PUSH1 0x20 ADD PUSH2 0x21D JUMP JUMPDEST CALLVALUE DUP1 ISZERO PUSH2 0x315 JUMPI PUSH1 0x0 DUP1 REVERT JUMPDEST POP PUSH2 0x246 PUSH2 0x324 CALLDATASIZE PUSH1 0x4 PUSH2 0x2156 JUMP JUMPDEST PUSH2 0x105E JUMP JUMPDEST CALLVALUE DUP1 ISZERO PUSH2 0x335 JUMPI PUSH1 0x0 DUP1 REVERT JUMPDEST POP PUSH2 0x246 PUSH2 0x344 CALLDATASIZE PUSH1 0x4 PUSH2 0x20C7 JUMP JUMPDEST PUSH1 0x8 PUSH1 0x20 MSTORE PUSH1 0x0 SWAP1 DUP2 MSTORE PUSH1 0x40 SWAP1 KECCAK256 SLOAD PUSH1 0xFF AND DUP2 JUMP JUMPDEST CALLVALUE DUP1 ISZERO PUSH2 0x365 JUMPI PUSH1 0x0 DUP1 REVERT JUMPDEST POP PUSH2 0x246 PUSH2 0x374 CALLDATASIZE PUSH1 0x4 PUSH2 0x20C7 JUMP JUMPDEST PUSH1 0x1 PUSH1 0x1 PUSH1 0xA0 SHL SUB AND PUSH1 0x0 SWAP1 DUP2 MSTORE PUSH1 0x8 PUSH1 0x20 MSTORE PUSH1 0x40 SWAP1 KECCAK256 SLOAD PUSH1 0xFF AND SWAP1 JUMP JUMPDEST PUSH2 0x246 PUSH2 0x3A0 CALLDATASIZE PUSH1 0x4 PUSH2 0x2198 JUMP JUMPDEST PUSH2 0x108B JUMP JUMPDEST CALLVALUE DUP1 ISZERO PUSH2 0x3B1 JUMPI PUSH1 0x0 DUP1 REVERT JUMPDEST POP PUSH2 0x276 PUSH2 0x3C0 CALLDATASIZE PUSH1 0x4 PUSH2 0x20C7 JUMP JUMPDEST PUSH2 0x10A2 JUMP JUMPDEST CALLVALUE DUP1 ISZERO PUSH2 0x3D1 JUMPI PUSH1 0x0 DUP1 REVERT JUMPDEST POP PUSH2 0x3DA PUSH2 0x1125 JUMP JUMPDEST PUSH1 0x40 MLOAD PUSH1 0xFF SWAP1 SWAP2 AND DUP2 MSTORE PUSH1 0x20 ADD PUSH2 0x21D JUMP JUMPDEST CALLVALUE DUP1 ISZERO PUSH2 0x3F8 JUMPI PUSH1 0x0 DUP1 REVERT JUMPDEST POP PUSH2 0x401 PUSH2 0x119F JUMP JUMPDEST PUSH1 0x40 MLOAD PUSH2 0x21D SWAP2 SWAP1 PUSH2 0x21BD JUMP JUMPDEST CALLVALUE DUP1 ISZERO PUSH2 0x41A JUMPI PUSH1 0x0 DUP1 REVERT JUMPDEST POP PUSH1 0x0 SLOAD PUSH2 0x2F1 SWAP1 PUSH1 0x1 PUSH1 0x1 PUSH1 0xA0 SHL SUB AND DUP2 JUMP JUMPDEST CALLVALUE DUP1 ISZERO PUSH2 0x43A JUMPI PUSH1 0x0 DUP1 REVERT JUMPDEST POP PUSH2 0x276 PUSH2 0x449 CALLDATASIZE PUSH1 0x4 PUSH2 0x20C7 JUMP JUMPDEST PUSH2 0x1236 JUMP JUMPDEST CALLVALUE DUP1 ISZERO PUSH2 0x45A JUMPI PUSH1 0x0 DUP1 REVERT JUMPDEST POP PUSH2 0x276 PUSH2 0x469 CALLDATASIZE PUSH1 0x4 PUSH2 0x20C7 JUMP JUMPDEST PUSH2 0x12B9 JUMP JUMPDEST CALLVALUE DUP1 ISZERO PUSH2 0x47A JUMPI PUSH1 0x0 DUP1 REVERT JUMPDEST POP PUSH2 0x213 PUSH2 0x13C1 JUMP JUMPDEST CALLVALUE DUP1 ISZERO PUSH2 0x48F JUMPI PUSH1 0x0 DUP1 REVERT JUMPDEST POP PUSH2 0x276 PUSH2 0x49E CALLDATASIZE PUSH1 0x4 PUSH2 0x20C7 JUMP JUMPDEST PUSH2 0x1446 JUMP JUMPDEST CALLVALUE DUP1 ISZERO PUSH2 0x4AF JUMPI PUSH1 0x0 DUP1 REVERT JUMPDEST POP PUSH2 0x2F1 PUSH32 0x0 DUP2 JUMP JUMPDEST CALLVALUE DUP1 ISZERO PUSH2 0x4E3 JUMPI PUSH1 0x0 DUP1 REVERT JUMPDEST POP PUSH1 0xC SLOAD PUSH1 0xD SLOAD PUSH1 0xE SLOAD PUSH2 0x4F6 SWAP3 SWAP2 SWAP1 DUP4 JUMP JUMPDEST PUSH1 0x40 DUP1 MLOAD SWAP4 DUP5 MSTORE PUSH1 0x20 DUP5 ADD SWAP3 SWAP1 SWAP3 MSTORE SWAP1 DUP3 ADD MSTORE PUSH1 0x60 ADD PUSH2 0x21D JUMP JUMPDEST CALLVALUE DUP1 ISZERO PUSH2 0x51D JUMPI PUSH1 0x0 DUP1 REVERT JUMPDEST POP PUSH2 0x246 PUSH2 0x52C CALLDATASIZE PUSH1 0x4 PUSH2 0x220A JUMP JUMPDEST PUSH2 0x14C9 JUMP JUMPDEST CALLVALUE DUP1 ISZERO PUSH2 0x53D JUMPI PUSH1 0x0 DUP1 REVERT JUMPDEST POP PUSH2 0x246 PUSH2 0x54C CALLDATASIZE PUSH1 0x4 PUSH2 0x223F JUMP JUMPDEST PUSH2 0x1532 JUMP JUMPDEST CALLVALUE DUP1 ISZERO PUSH2 0x55D JUMPI PUSH1 0x0 DUP1 REVERT JUMPDEST POP PUSH2 0x2F1 PUSH32 0x0 DUP2 JUMP JUMPDEST CALLVALUE DUP1 ISZERO PUSH2 0x591 JUMPI PUSH1 0x0 DUP1 REVERT JUMPDEST POP PUSH2 0x5E2 PUSH2 0x5A0 CALLDATASIZE PUSH1 0x4 PUSH2 0x20C7 JUMP JUMPDEST PUSH1 0xB PUSH1 0x20 MSTORE PUSH1 0x0 SWAP1 DUP2 MSTORE PUSH1 0x40 SWAP1 KECCAK256 DUP1 SLOAD PUSH1 0x1 DUP3 ADD SLOAD PUSH1 0x2 DUP4 ADD SLOAD PUSH1 0x3 DUP5 ADD SLOAD PUSH1 0x4 SWAP1 SWAP5 ADD SLOAD PUSH1 0xFF DUP1 DUP6 AND SWAP6 PUSH2 0x100 SWAP1 SWAP6 DIV PUSH1 0x1 PUSH1 0x1 PUSH1 0xA0 SHL SUB AND SWAP5 SWAP3 AND SWAP2 SWAP1 DUP7 JUMP JUMPDEST PUSH1 0x40 DUP1 MLOAD SWAP7 ISZERO ISZERO DUP8 MSTORE PUSH1 0x1 PUSH1 0x1 PUSH1 0xA0 SHL SUB SWAP1 SWAP6 AND PUSH1 0x20 DUP8 ADD MSTORE SWAP4 DUP6 ADD SWAP3 SWAP1 SWAP3 MSTORE ISZERO ISZERO PUSH1 0x60 DUP5 ADD MSTORE PUSH1 0x80 DUP4 ADD MSTORE PUSH1 0xA0 DUP3 ADD MSTORE PUSH1 0xC0 ADD PUSH2 0x21D JUMP JUMPDEST CALLVALUE DUP1 ISZERO PUSH2 0x627 JUMPI PUSH1 0x0 DUP1 REVERT JUMPDEST POP PUSH1 0x4 SLOAD PUSH2 0x2F1 SWAP1 PUSH1 0x1 PUSH1 0x1 PUSH1 0xA0 SHL SUB AND DUP2 JUMP JUMPDEST CALLVALUE DUP1 ISZERO PUSH2 0x647 JUMPI PUSH1 0x0 DUP1 REVERT JUMPDEST POP PUSH2 0x213 PUSH1 0x9 SLOAD DUP2 JUMP JUMPDEST CALLVALUE DUP1 ISZERO PUSH2 0x65D JUMPI PUSH1 0x0 DUP1 REVERT JUMPDEST POP PUSH2 0x246 PUSH2 0x66C CALLDATASIZE PUSH1 0x4 PUSH2 0x2280 JUMP JUMPDEST PUSH2 0x18A7 JUMP JUMPDEST CALLVALUE DUP1 ISZERO PUSH2 0x67D JUMPI PUSH1 0x0 DUP1 REVERT JUMPDEST POP PUSH2 0x276 PUSH2 0x68C CALLDATASIZE PUSH1 0x4 PUSH2 0x22DF JUMP JUMPDEST PUSH2 0x1A0C JUMP JUMPDEST CALLVALUE DUP1 ISZERO PUSH2 0x69D JUMPI PUSH1 0x0 DUP1 REVERT JUMPDEST POP PUSH1 0x6 SLOAD PUSH2 0x2F1 SWAP1 PUSH1 0x1 PUSH1 0x1 PUSH1 0xA0 SHL SUB AND DUP2 JUMP JUMPDEST CALLVALUE DUP1 ISZERO PUSH2 0x6BD JUMPI PUSH1 0x0 DUP1 REVERT JUMPDEST POP PUSH2 0x246 PUSH2 0x6CC CALLDATASIZE PUSH1 0x4 PUSH2 0x223F JUMP JUMPDEST PUSH2 0x1ACF JUMP JUMPDEST CALLVALUE DUP1 ISZERO PUSH2 0x6DD JUMPI PUSH1 0x0 DUP1 REVERT JUMPDEST POP PUSH2 0x246 PUSH2 0x6EC CALLDATASIZE PUSH1 0x4 PUSH2 0x20C7 JUMP JUMPDEST PUSH2 0x1AF3 JUMP JUMPDEST CALLVALUE DUP1 ISZERO PUSH2 0x6FD JUMPI PUSH1 0x0 DUP1 REVERT JUMPDEST POP PUSH1 0x1 SLOAD PUSH2 0x2F1 SWAP1 PUSH1 0x1 PUSH1 0x1 PUSH1 0xA0 SHL SUB AND DUP2 JUMP JUMPDEST CALLVALUE DUP1 ISZERO PUSH2 0x71D JUMPI PUSH1 0x0 DUP1 REVERT JUMPDEST POP PUSH1 0x2 SLOAD PUSH2 0x2F1 SWAP1 PUSH1 0x1 PUSH1 0x1 PUSH1 0xA0 SHL SUB AND DUP2 JUMP JUMPDEST PUSH1 0x0 DUP1 PUSH1 0x1 PUSH1 0x0 SWAP1 SLOAD SWAP1 PUSH2 0x100 EXP SWAP1 DIV PUSH1 0x1 PUSH1 0x1 PUSH1 0xA0 SHL SUB AND PUSH1 0x1 PUSH1 0x1 PUSH1 0xA0 SHL SUB AND PUSH4 0xC45A0155 PUSH1 0x40 MLOAD DUP2 PUSH4 0xFFFFFFFF AND PUSH1 0xE0 SHL DUP2 MSTORE PUSH1 0x4 ADD PUSH1 0x20 PUSH1 0x40 MLOAD DUP1 DUP4 SUB DUP2 DUP7 GAS STATICCALL ISZERO DUP1 ISZERO PUSH2 0x787 JUMPI RETURNDATASIZE PUSH1 0x0 DUP1 RETURNDATACOPY RETURNDATASIZE PUSH1 0x0 REVERT JUMPDEST POP POP POP POP PUSH1 0x40 MLOAD RETURNDATASIZE PUSH1 0x1F NOT PUSH1 0x1F DUP3 ADD AND DUP3 ADD DUP1 PUSH1 0x40 MSTORE POP DUP2 ADD SWAP1 PUSH2 0x7AB SWAP2 SWAP1 PUSH2 0x230D JUMP JUMPDEST PUSH1 0x40 MLOAD PUSH4 0xE6A43905 PUSH1 0xE0 SHL DUP2 MSTORE PUSH1 0x1 PUSH1 0x1 PUSH1 0xA0 SHL SUB DUP6 DUP2 AND PUSH1 0x4 DUP4 ADD MSTORE PUSH32 0x0 DUP2 AND PUSH1 0x24 DUP4 ADD MSTORE SWAP2 SWAP1 SWAP2 AND SWAP1 PUSH4 0xE6A43905 SWAP1 PUSH1 0x44 ADD PUSH1 0x20 PUSH1 0x40 MLOAD DUP1 DUP4 SUB DUP2 DUP7 GAS STATICCALL ISZERO DUP1 ISZERO PUSH2 0x81B JUMPI RETURNDATASIZE PUSH1 0x0 DUP1 RETURNDATACOPY RETURNDATASIZE PUSH1 0x0 REVERT JUMPDEST POP POP POP POP PUSH1 0x40 MLOAD RETURNDATASIZE PUSH1 0x1F NOT PUSH1 0x1F DUP3 ADD AND DUP3 ADD DUP1 PUSH1 0x40 MSTORE POP DUP2 ADD SWAP1 PUSH2 0x83F SWAP2 SWAP1 PUSH2 0x230D JUMP JUMPDEST SWAP1 POP PUSH1 0x0 PUSH1 0x2 PUSH1 0x0 SWAP1 SLOAD SWAP1 PUSH2 0x100 EXP SWAP1 DIV PUSH1 0x1 PUSH1 0x1 PUSH1 0xA0 SHL SUB AND PUSH1 0x1 PUSH1 0x1 PUSH1 0xA0 SHL SUB AND PUSH4 0x313CE567 PUSH1 0x40 MLOAD DUP2 PUSH4 0xFFFFFFFF AND PUSH1 0xE0 SHL DUP2 MSTORE PUSH1 0x4 ADD PUSH1 0x20 PUSH1 0x40 MLOAD DUP1 DUP4 SUB DUP2 DUP7 GAS STATICCALL ISZERO DUP1 ISZERO PUSH2 0x896 JUMPI RETURNDATASIZE PUSH1 0x0 DUP1 RETURNDATACOPY RETURNDATASIZE PUSH1 0x0 REVERT JUMPDEST POP POP POP POP PUSH1 0x40 MLOAD RETURNDATASIZE PUSH1 0x1F NOT PUSH1 0x1F DUP3 ADD AND DUP3 ADD DUP1 PUSH1 0x40 MSTORE POP DUP2 ADD SWAP1 PUSH2 0x8BA SWAP2 SWAP1 PUSH2 0x232A JUMP JUMPDEST PUSH1 0xFF AND SWAP1 POP PUSH1 0x0 DUP3 PUSH1 0x1 PUSH1 0x1 PUSH1 0xA0 SHL SUB AND PUSH4 0xDFE1681 PUSH1 0x40 MLOAD DUP2 PUSH4 0xFFFFFFFF AND PUSH1 0xE0 SHL DUP2 MSTORE PUSH1 0x4 ADD PUSH1 0x20 PUSH1 0x40 MLOAD DUP1 DUP4 SUB DUP2 DUP7 GAS STATICCALL ISZERO DUP1 ISZERO PUSH2 0x8FF JUMPI RETURNDATASIZE PUSH1 0x0 DUP1 RETURNDATACOPY RETURNDATASIZE PUSH1 0x0 REVERT JUMPDEST POP POP POP POP PUSH1 0x40 MLOAD RETURNDATASIZE PUSH1 0x1F NOT PUSH1 0x1F DUP3 ADD AND DUP3 ADD DUP1 PUSH1 0x40 MSTORE POP DUP2 ADD SWAP1 PUSH2 0x923 SWAP2 SWAP1 PUSH2 0x230D JUMP JUMPDEST PUSH1 0x1 PUSH1 0x1 PUSH1 0xA0 SHL SUB AND PUSH4 0x313CE567 PUSH1 0x40 MLOAD DUP2 PUSH4 0xFFFFFFFF AND PUSH1 0xE0 SHL DUP2 MSTORE PUSH1 0x4 ADD PUSH1 0x20 PUSH1 0x40 MLOAD DUP1 DUP4 SUB DUP2 DUP7 GAS STATICCALL ISZERO DUP1 ISZERO PUSH2 0x960 JUMPI RETURNDATASIZE PUSH1 0x0 DUP1 RETURNDATACOPY RETURNDATASIZE PUSH1 0x0 REVERT JUMPDEST POP POP POP POP PUSH1 0x40 MLOAD RETURNDATASIZE PUSH1 0x1F NOT PUSH1 0x1F DUP3 ADD AND DUP3 ADD DUP1 PUSH1 0x40 MSTORE POP DUP2 ADD SWAP1 PUSH2 0x984 SWAP2 SWAP1 PUSH2 0x232A JUMP JUMPDEST PUSH1 0xFF AND SWAP1 POP PUSH1 0x0 DUP4 PUSH1 0x1 PUSH1 0x1 PUSH1 0xA0 SHL SUB AND PUSH4 0xD21220A7 PUSH1 0x40 MLOAD DUP2 PUSH4 0xFFFFFFFF AND PUSH1 0xE0 SHL DUP2 MSTORE PUSH1 0x4 ADD PUSH1 0x20 PUSH1 0x40 MLOAD DUP1 DUP4 SUB DUP2 DUP7 GAS STATICCALL ISZERO DUP1 ISZERO PUSH2 0x9C9 JUMPI RETURNDATASIZE PUSH1 0x0 DUP1 RETURNDATACOPY RETURNDATASIZE PUSH1 0x0 REVERT JUMPDEST POP POP POP POP PUSH1 0x40 MLOAD RETURNDATASIZE PUSH1 0x1F NOT PUSH1 0x1F DUP3 ADD AND DUP3 ADD DUP1 PUSH1 0x40 MSTORE POP DUP2 ADD SWAP1 PUSH2 0x9ED SWAP2 SWAP1 PUSH2 0x230D JUMP JUMPDEST PUSH1 0x1 PUSH1 0x1 PUSH1 0xA0 SHL SUB AND PUSH4 0x313CE567 PUSH1 0x40 MLOAD DUP2 PUSH4 0xFFFFFFFF AND PUSH1 0xE0 SHL DUP2 MSTORE PUSH1 0x4 ADD PUSH1 0x20 PUSH1 0x40 MLOAD DUP1 DUP4 SUB DUP2 DUP7 GAS STATICCALL ISZERO DUP1 ISZERO PUSH2 0xA2A JUMPI RETURNDATASIZE PUSH1 0x0 DUP1 RETURNDATACOPY RETURNDATASIZE PUSH1 0x0 REVERT JUMPDEST POP POP POP POP PUSH1 0x40 MLOAD RETURNDATASIZE PUSH1 0x1F NOT PUSH1 0x1F DUP3 ADD AND DUP3 ADD DUP1 PUSH1 0x40 MSTORE POP DUP2 ADD SWAP1 PUSH2 0xA4E SWAP2 SWAP1 PUSH2 0x232A JUMP JUMPDEST PUSH1 0xFF AND SWAP1 POP PUSH1 0x0 DUP1 DUP6 PUSH1 0x1 PUSH1 0x1 PUSH1 0xA0 SHL SUB AND PUSH4 0x902F1AC PUSH1 0x40 MLOAD DUP2 PUSH4 0xFFFFFFFF AND PUSH1 0xE0 SHL DUP2 MSTORE PUSH1 0x4 ADD PUSH1 0x60 PUSH1 0x40 MLOAD DUP1 DUP4 SUB DUP2 DUP7 GAS STATICCALL ISZERO DUP1 ISZERO PUSH2 0xA94 JUMPI RETURNDATASIZE PUSH1 0x0 DUP1 RETURNDATACOPY RETURNDATASIZE PUSH1 0x0 REVERT JUMPDEST POP POP POP POP PUSH1 0x40 MLOAD RETURNDATASIZE PUSH1 0x1F NOT PUSH1 0x1F DUP3 ADD AND DUP3 ADD DUP1 PUSH1 0x40 MSTORE POP DUP2 ADD SWAP1 PUSH2 0xAB8 SWAP2 SWAP1 PUSH2 0x2369 JUMP JUMPDEST POP PUSH1 0x1 PUSH1 0x1 PUSH1 0x70 SHL SUB SWAP2 DUP3 AND SWAP4 POP AND SWAP1 POP PUSH1 0x0 DUP3 DUP3 PUSH2 0xAD8 DUP8 PUSH1 0xA PUSH2 0x24A8 JUMP JUMPDEST PUSH2 0xAE3 SWAP1 PUSH1 0x1 PUSH2 0x24B4 JUMP JUMPDEST PUSH2 0xAED SWAP2 SWAP1 PUSH2 0x24B4 JUMP JUMPDEST PUSH2 0xAF7 SWAP2 SWAP1 PUSH2 0x24D3 JUMP JUMPDEST SWAP1 POP PUSH1 0x0 DUP3 DUP5 PUSH2 0xB08 DUP8 PUSH1 0xA PUSH2 0x24A8 JUMP JUMPDEST PUSH2 0xB13 SWAP1 PUSH1 0x1 PUSH2 0x24B4 JUMP JUMPDEST PUSH2 0xB1D SWAP2 SWAP1 PUSH2 0x24B4 JUMP JUMPDEST PUSH2 0xB27 SWAP2 SWAP1 PUSH2 0x24D3 JUMP JUMPDEST SWAP1 POP PUSH1 0x0 PUSH2 0xB33 PUSH2 0x13C1 JUMP JUMPDEST SWAP1 POP PUSH1 0x0 PUSH2 0xB3F PUSH2 0x1125 JUMP JUMPDEST SWAP1 POP PUSH1 0x0 PUSH2 0xB4E DUP3 PUSH1 0xA PUSH2 0x24F5 JUMP JUMPDEST PUSH2 0xB58 SWAP1 DUP5 PUSH2 0x24D3 JUMP JUMPDEST SWAP1 POP PUSH1 0x0 DUP2 PUSH2 0xB68 DUP13 PUSH1 0xA PUSH2 0x24A8 JUMP JUMPDEST PUSH2 0xB73 SWAP1 PUSH1 0x1 PUSH2 0x24B4 JUMP JUMPDEST PUSH2 0xB7D SWAP2 SWAP1 PUSH2 0x24B4 JUMP JUMPDEST SWAP1 POP DUP12 PUSH1 0x1 PUSH1 0x1 PUSH1 0xA0 SHL SUB AND PUSH4 0xDFE1681 PUSH1 0x40 MLOAD DUP2 PUSH4 0xFFFFFFFF AND PUSH1 0xE0 SHL DUP2 MSTORE PUSH1 0x4 ADD PUSH1 0x20 PUSH1 0x40 MLOAD DUP1 DUP4 SUB DUP2 DUP7 GAS STATICCALL ISZERO DUP1 ISZERO PUSH2 0xBBD JUMPI RETURNDATASIZE PUSH1 0x0 DUP1 RETURNDATACOPY RETURNDATASIZE PUSH1 0x0 REVERT JUMPDEST POP POP POP POP PUSH1 0x40 MLOAD RETURNDATASIZE PUSH1 0x1F NOT PUSH1 0x1F DUP3 ADD AND DUP3 ADD DUP1 PUSH1 0x40 MSTORE POP DUP2 ADD SWAP1 PUSH2 0xBE1 SWAP2 SWAP1 PUSH2 0x230D JUMP JUMPDEST PUSH1 0x1 PUSH1 0x1 PUSH1 0xA0 SHL SUB AND DUP15 PUSH1 0x1 PUSH1 0x1 PUSH1 0xA0 SHL SUB AND SUB PUSH2 0xC2C JUMPI DUP5 DUP2 PUSH2 0xC06 DUP13 PUSH1 0xA PUSH2 0x24A8 JUMP JUMPDEST PUSH2 0xC11 SWAP1 PUSH1 0x1 PUSH2 0x24B4 JUMP JUMPDEST PUSH2 0xC1B SWAP2 SWAP1 PUSH2 0x24B4 JUMP JUMPDEST PUSH2 0xC25 SWAP2 SWAP1 PUSH2 0x24D3 JUMP JUMPDEST SWAP13 POP PUSH2 0xCD5 JUMP JUMPDEST DUP12 PUSH1 0x1 PUSH1 0x1 PUSH1 0xA0 SHL SUB AND PUSH4 0xD21220A7 PUSH1 0x40 MLOAD DUP2 PUSH4 0xFFFFFFFF AND PUSH1 0xE0 SHL DUP2 MSTORE PUSH1 0x4 ADD PUSH1 0x20 PUSH1 0x40 MLOAD DUP1 DUP4 SUB DUP2 DUP7 GAS STATICCALL ISZERO DUP1 ISZERO PUSH2 0xC6A JUMPI RETURNDATASIZE PUSH1 0x0 DUP1 RETURNDATACOPY RETURNDATASIZE PUSH1 0x0 REVERT JUMPDEST POP POP POP POP PUSH1 0x40 MLOAD RETURNDATASIZE PUSH1 0x1F NOT PUSH1 0x1F DUP3 ADD AND DUP3 ADD DUP1 PUSH1 0x40 MSTORE POP DUP2 ADD SWAP1 PUSH2 0xC8E SWAP2 SWAP1 PUSH2 0x230D JUMP JUMPDEST PUSH1 0x1 PUSH1 0x1 PUSH1 0xA0 SHL SUB AND DUP15 PUSH1 0x1 PUSH1 0x1 PUSH1 0xA0 SHL SUB AND SUB PUSH2 0xCD5 JUMPI DUP6 DUP2 PUSH2 0xCB3 DUP12 PUSH1 0xA PUSH2 0x24A8 JUMP JUMPDEST PUSH2 0xCBE SWAP1 PUSH1 0x1 PUSH2 0x24B4 JUMP JUMPDEST PUSH2 0xCC8 SWAP2 SWAP1 PUSH2 0x24B4 JUMP JUMPDEST PUSH2 0xCD2 SWAP2 SWAP1 PUSH2 0x24D3 JUMP JUMPDEST SWAP13 POP JUMPDEST POP POP POP POP POP POP POP POP POP POP POP POP SWAP2 SWAP1 POP JUMP JUMPDEST CALLER PUSH1 0x0 SWAP1 DUP2 MSTORE PUSH1 0x8 PUSH1 0x20 MSTORE PUSH1 0x40 DUP2 KECCAK256 SLOAD PUSH1 0xFF AND ISZERO ISZERO PUSH1 0x1 EQ PUSH2 0xD23 JUMPI PUSH1 0x40 MLOAD PUSH3 0x461BCD PUSH1 0xE5 SHL DUP2 MSTORE PUSH1 0x4 ADD PUSH2 0xD1A SWAP1 PUSH2 0x2504 JUMP JUMPDEST PUSH1 0x40 MLOAD DUP1 SWAP2 SUB SWAP1 REVERT JUMPDEST PUSH1 0x1 PUSH1 0x1 PUSH1 0xA0 SHL SUB DUP4 DUP2 AND PUSH1 0x0 DUP2 DUP2 MSTORE PUSH1 0xB PUSH1 0x20 MSTORE PUSH1 0x40 DUP1 DUP3 KECCAK256 DUP1 SLOAD PUSH1 0x1 PUSH1 0x1 PUSH1 0xA8 SHL SUB NOT AND PUSH2 0x100 SWAP6 DUP9 AND SWAP6 DUP7 MUL PUSH1 0xFF NOT AND OR SWAP1 SSTORE MLOAD PUSH32 0xE894570C3DC66FBE55CB922F4C0F34FFBA41E423C2FE4B4F16E66A1B3258DE48 SWAP2 SWAP1 LOG3 POP PUSH1 0x1 JUMPDEST SWAP3 SWAP2 POP POP JUMP JUMPDEST CALLER PUSH1 0x0 SWAP1 DUP2 MSTORE PUSH1 0x8 PUSH1 0x20 MSTORE PUSH1 0x40 SWAP1 KECCAK256 SLOAD PUSH1 0xFF AND ISZERO ISZERO PUSH1 0x1 EQ PUSH2 0xDBC JUMPI PUSH1 0x40 MLOAD PUSH3 0x461BCD PUSH1 0xE5 SHL DUP2 MSTORE PUSH1 0x4 ADD PUSH2 0xD1A SWAP1 PUSH2 0x2504 JUMP JUMPDEST PUSH1 0x3 SLOAD PUSH1 0x1 SUB PUSH2 0xDDF JUMPI PUSH1 0x40 MLOAD PUSH4 0x671C8C15 PUSH1 0xE0 SHL DUP2 MSTORE PUSH1 0x4 ADD PUSH1 0x40 MLOAD DUP1 SWAP2 SUB SWAP1 REVERT JUMPDEST PUSH1 0x0 SLOAD PUSH1 0x1 PUSH1 0x1 PUSH1 0xA0 SHL SUB SWAP1 DUP2 AND SWAP1 DUP3 AND SUB PUSH2 0xE0E JUMPI PUSH1 0x40 MLOAD PUSH4 0x49D24167 PUSH1 0xE0 SHL DUP2 MSTORE PUSH1 0x4 ADD PUSH1 0x40 MLOAD DUP1 SWAP2 SUB SWAP1 REVERT JUMPDEST PUSH1 0x1 PUSH1 0x1 PUSH1 0xA0 SHL SUB DUP2 AND PUSH1 0x0 SWAP1 DUP2 MSTORE PUSH1 0x8 PUSH1 0x20 MSTORE PUSH1 0x40 SWAP1 KECCAK256 SLOAD PUSH1 0xFF AND PUSH2 0xE47 JUMPI PUSH1 0x40 MLOAD PUSH4 0x71E0478F PUSH1 0xE0 SHL DUP2 MSTORE PUSH1 0x4 ADD PUSH1 0x40 MLOAD DUP1 SWAP2 SUB SWAP1 REVERT JUMPDEST PUSH1 0x3 SLOAD PUSH1 0x0 SWAP1 PUSH2 0xE59 SWAP1 PUSH1 0x1 SWAP1 PUSH2 0x2534 JUMP JUMPDEST SWAP1 POP PUSH1 0x0 JUMPDEST PUSH1 0x3 SLOAD DUP2 LT ISZERO PUSH2 0xF5C JUMPI DUP3 PUSH1 0x1 PUSH1 0x1 PUSH1 0xA0 SHL SUB AND PUSH1 0x3 DUP3 DUP2 SLOAD DUP2 LT PUSH2 0xE85 JUMPI PUSH2 0xE85 PUSH2 0x254B JUMP JUMPDEST PUSH1 0x0 SWAP2 DUP3 MSTORE PUSH1 0x20 SWAP1 SWAP2 KECCAK256 ADD SLOAD PUSH1 0x1 PUSH1 0x1 PUSH1 0xA0 SHL SUB AND SUB PUSH2 0xF4A JUMPI PUSH1 0x0 PUSH1 0x3 DUP4 DUP2 SLOAD DUP2 LT PUSH2 0xEB4 JUMPI PUSH2 0xEB4 PUSH2 0x254B JUMP JUMPDEST PUSH1 0x0 SWAP2 DUP3 MSTORE PUSH1 0x20 SWAP1 SWAP2 KECCAK256 ADD SLOAD PUSH1 0x3 DUP1 SLOAD PUSH1 0x1 PUSH1 0x1 PUSH1 0xA0 SHL SUB SWAP1 SWAP3 AND SWAP3 POP DUP3 SWAP2 DUP5 SWAP1 DUP2 LT PUSH2 0xEE3 JUMPI PUSH2 0xEE3 PUSH2 0x254B JUMP JUMPDEST SWAP1 PUSH1 0x0 MSTORE PUSH1 0x20 PUSH1 0x0 KECCAK256 ADD PUSH1 0x0 PUSH2 0x100 EXP DUP2 SLOAD DUP2 PUSH1 0x1 PUSH1 0x1 PUSH1 0xA0 SHL SUB MUL NOT AND SWAP1 DUP4 PUSH1 0x1 PUSH1 0x1 PUSH1 0xA0 SHL SUB AND MUL OR SWAP1 SSTORE POP PUSH1 0x3 DUP1 SLOAD DUP1 PUSH2 0xF22 JUMPI PUSH2 0xF22 PUSH2 0x2561 JUMP JUMPDEST PUSH1 0x0 DUP3 DUP2 MSTORE PUSH1 0x20 SWAP1 KECCAK256 DUP2 ADD PUSH1 0x0 NOT SWAP1 DUP2 ADD DUP1 SLOAD PUSH1 0x1 PUSH1 0x1 PUSH1 0xA0 SHL SUB NOT AND SWAP1 SSTORE ADD SWAP1 SSTORE POP PUSH2 0xF5C JUMP JUMPDEST DUP1 PUSH2 0xF54 DUP2 PUSH2 0x2577 JUMP JUMPDEST SWAP2 POP POP PUSH2 0xE5E JUMP JUMPDEST POP PUSH1 0x1 PUSH1 0x1 PUSH1 0xA0 SHL SUB DUP3 AND PUSH1 0x0 DUP2 DUP2 MSTORE PUSH1 0x8 PUSH1 0x20 MSTORE PUSH1 0x40 DUP1 DUP3 KECCAK256 DUP1 SLOAD PUSH1 0xFF NOT AND SWAP1 SSTORE MLOAD PUSH32 0x78446BB1D2AF264E94DF07FF95F686EA75818ED1935CC02A1A8D7F752696149C SWAP2 SWAP1 LOG2 POP POP JUMP JUMPDEST CALLER PUSH1 0x0 SWAP1 DUP2 MSTORE PUSH1 0x8 PUSH1 0x20 MSTORE PUSH1 0x40 SWAP1 KECCAK256 SLOAD PUSH1 0xFF AND ISZERO ISZERO PUSH1 0x1 EQ PUSH2 0xFDB JUMPI PUSH1 0x40 MLOAD PUSH3 0x461BCD PUSH1 0xE5 SHL DUP2 MSTORE PUSH1 0x4 ADD PUSH2 0xD1A SWAP1 PUSH2 0x2504 JUMP JUMPDEST DUP1 DUP3 PUSH2 0xFE7 DUP6 DUP8 PUSH2 0x2590 JUMP JUMPDEST PUSH2 0xFF1 SWAP2 SWAP1 PUSH2 0x2590 JUMP JUMPDEST PUSH2 0xFFB SWAP2 SWAP1 PUSH2 0x2590 JUMP JUMPDEST PUSH2 0x3E8 EQ PUSH2 0x101B JUMPI PUSH1 0x40 MLOAD PUSH3 0x461BCD PUSH1 0xE5 SHL DUP2 MSTORE PUSH1 0x4 ADD PUSH2 0xD1A SWAP1 PUSH2 0x25A8 JUMP JUMPDEST PUSH1 0x9 DUP5 SWAP1 SSTORE PUSH1 0xC DUP4 SWAP1 SSTORE PUSH1 0xD DUP3 SWAP1 SSTORE PUSH1 0xE DUP2 SWAP1 SSTORE PUSH1 0x40 MLOAD PUSH32 0x846206D6C3449AC0B05841DFB88BF28B55AEF00F96152490C69C96238048DE15 SWAP1 PUSH1 0x0 SWAP1 LOG1 POP POP POP POP JUMP JUMPDEST PUSH1 0x0 DUP1 SLOAD PUSH1 0x1 PUSH1 0x1 PUSH1 0xA0 SHL SUB AND CALLER EQ PUSH2 0x1076 JUMPI PUSH1 0x0 DUP1 REVERT JUMPDEST PUSH2 0x1081 DUP5 DUP4 DUP6 PUSH2 0x1BC3 JUMP JUMPDEST POP PUSH1 0x1 SWAP4 SWAP3 POP POP POP JUMP JUMPDEST PUSH1 0x0 PUSH2 0x1099 DUP3 CALLER ADDRESS DUP7 PUSH2 0x1CF4 JUMP JUMPDEST POP PUSH1 0x1 SWAP3 SWAP2 POP POP JUMP JUMPDEST CALLER PUSH1 0x0 SWAP1 DUP2 MSTORE PUSH1 0x8 PUSH1 0x20 MSTORE PUSH1 0x40 SWAP1 KECCAK256 SLOAD PUSH1 0xFF AND ISZERO ISZERO PUSH1 0x1 EQ PUSH2 0x10D6 JUMPI PUSH1 0x40 MLOAD PUSH3 0x461BCD PUSH1 0xE5 SHL DUP2 MSTORE PUSH1 0x4 ADD PUSH2 0xD1A SWAP1 PUSH2 0x2504 JUMP JUMPDEST PUSH1 0x4 SLOAD PUSH1 0x1 PUSH1 0x1 PUSH1 0xA0 SHL SUB DUP1 DUP4 AND SWAP2 AND SUB PUSH2 0x1103 JUMPI PUSH1 0x40 MLOAD PUSH3 0x461BCD PUSH1 0xE5 SHL DUP2 MSTORE PUSH1 0x4 ADD PUSH2 0xD1A SWAP1 PUSH2 0x25CD JUMP JUMPDEST PUSH1 0x4 DUP1 SLOAD PUSH1 0x1 PUSH1 0x1 PUSH1 0xA0 SHL SUB NOT AND PUSH1 0x1 PUSH1 0x1 PUSH1 0xA0 SHL SUB SWAP3 SWAP1 SWAP3 AND SWAP2 SWAP1 SWAP2 OR SWAP1 SSTORE JUMP JUMPDEST PUSH1 0x0 DUP1 PUSH1 0xA PUSH1 0x0 SWAP1 SLOAD SWAP1 PUSH2 0x100 EXP SWAP1 DIV PUSH1 0x1 PUSH1 0x1 PUSH1 0xA0 SHL SUB AND PUSH1 0x1 PUSH1 0x1 PUSH1 0xA0 SHL SUB AND PUSH4 0x313CE567 PUSH1 0x40 MLOAD DUP2 PUSH4 0xFFFFFFFF AND PUSH1 0xE0 SHL DUP2 MSTORE PUSH1 0x4 ADD PUSH1 0x20 PUSH1 0x40 MLOAD DUP1 DUP4 SUB DUP2 DUP7 GAS STATICCALL ISZERO DUP1 ISZERO PUSH2 0x117B JUMPI RETURNDATASIZE PUSH1 0x0 DUP1 RETURNDATACOPY RETURNDATASIZE PUSH1 0x0 REVERT JUMPDEST POP POP POP POP PUSH1 0x40 MLOAD RETURNDATASIZE PUSH1 0x1F NOT PUSH1 0x1F DUP3 ADD AND DUP3 ADD DUP1 PUSH1 0x40 MSTORE POP DUP2 ADD SWAP1 PUSH2 0xD82 SWAP2 SWAP1 PUSH2 0x232A JUMP JUMPDEST CALLER PUSH1 0x0 SWAP1 DUP2 MSTORE PUSH1 0x8 PUSH1 0x20 MSTORE PUSH1 0x40 SWAP1 KECCAK256 SLOAD PUSH1 0x60 SWAP1 PUSH1 0xFF AND ISZERO ISZERO PUSH1 0x1 EQ PUSH2 0x11D6 JUMPI PUSH1 0x40 MLOAD PUSH3 0x461BCD PUSH1 0xE5 SHL DUP2 MSTORE PUSH1 0x4 ADD PUSH2 0xD1A SWAP1 PUSH2 0x2504 JUMP JUMPDEST PUSH1 0x3 DUP1 SLOAD DUP1 PUSH1 0x20 MUL PUSH1 0x20 ADD PUSH1 0x40 MLOAD SWAP1 DUP2 ADD PUSH1 0x40 MSTORE DUP1 SWAP3 SWAP2 SWAP1 DUP2 DUP2 MSTORE PUSH1 0x20 ADD DUP3 DUP1 SLOAD DUP1 ISZERO PUSH2 0x122C JUMPI PUSH1 0x20 MUL DUP3 ADD SWAP2 SWAP1 PUSH1 0x0 MSTORE PUSH1 0x20 PUSH1 0x0 KECCAK256 SWAP1 JUMPDEST DUP2 SLOAD PUSH1 0x1 PUSH1 0x1 PUSH1 0xA0 SHL SUB AND DUP2 MSTORE PUSH1 0x1 SWAP1 SWAP2 ADD SWAP1 PUSH1 0x20 ADD DUP1 DUP4 GT PUSH2 0x120E JUMPI JUMPDEST POP POP POP POP POP SWAP1 POP SWAP1 JUMP JUMPDEST CALLER PUSH1 0x0 SWAP1 DUP2 MSTORE PUSH1 0x8 PUSH1 0x20 MSTORE PUSH1 0x40 SWAP1 KECCAK256 SLOAD PUSH1 0xFF AND ISZERO ISZERO PUSH1 0x1 EQ PUSH2 0x126A JUMPI PUSH1 0x40 MLOAD PUSH3 0x461BCD PUSH1 0xE5 SHL DUP2 MSTORE PUSH1 0x4 ADD PUSH2 0xD1A SWAP1 PUSH2 0x2504 JUMP JUMPDEST PUSH1 0x6 SLOAD PUSH1 0x1 PUSH1 0x1 PUSH1 0xA0 SHL SUB DUP1 DUP4 AND SWAP2 AND SUB PUSH2 0x1297 JUMPI PUSH1 0x40 MLOAD PUSH3 0x461BCD PUSH1 0xE5 SHL DUP2 MSTORE PUSH1 0x4 ADD PUSH2 0xD1A SWAP1 PUSH2 0x25CD JUMP JUMPDEST PUSH1 0x6 DUP1 SLOAD PUSH1 0x1 PUSH1 0x1 PUSH1 0xA0 SHL SUB NOT AND PUSH1 0x1 PUSH1 0x1 PUSH1 0xA0 SHL SUB SWAP3 SWAP1 SWAP3 AND SWAP2 SWAP1 SWAP2 OR SWAP1 SSTORE JUMP JUMPDEST PUSH1 0x0 SLOAD PUSH1 0x1 PUSH1 0x1 PUSH1 0xA0 SHL SUB AND CALLER EQ PUSH2 0x12D0 JUMPI PUSH1 0x0 DUP1 REVERT JUMPDEST PUSH1 0x3 SLOAD PUSH1 0x9 NOT ADD PUSH2 0x12F4 JUMPI PUSH1 0x40 MLOAD PUSH4 0x3DE62F9F PUSH1 0xE1 SHL DUP2 MSTORE PUSH1 0x4 ADD PUSH1 0x40 MLOAD DUP1 SWAP2 SUB SWAP1 REVERT JUMPDEST PUSH1 0x1 PUSH1 0x1 PUSH1 0xA0 SHL SUB DUP2 AND PUSH1 0x0 SWAP1 DUP2 MSTORE PUSH1 0x8 PUSH1 0x20 MSTORE PUSH1 0x40 SWAP1 KECCAK256 SLOAD PUSH1 0xFF AND ISZERO ISZERO PUSH1 0x1 SUB PUSH2 0x1332 JUMPI PUSH1 0x40 MLOAD PUSH4 0x27254341 PUSH1 0xE1 SHL DUP2 MSTORE PUSH1 0x4 ADD PUSH1 0x40 MLOAD DUP1 SWAP2 SUB SWAP1 REVERT JUMPDEST PUSH1 0x3 DUP1 SLOAD PUSH1 0x1 DUP1 DUP3 ADD SWAP1 SWAP3 SSTORE PUSH32 0xC2575A0E9E593C00F959F8C92F12DB2869C3395A3B0502D05E2516446F71F85B ADD DUP1 SLOAD PUSH1 0x1 PUSH1 0x1 PUSH1 0xA0 SHL SUB NOT AND PUSH1 0x1 PUSH1 0x1 PUSH1 0xA0 SHL SUB DUP5 AND SWAP1 DUP2 OR SWAP1 SWAP2 SSTORE PUSH1 0x0 DUP2 DUP2 MSTORE PUSH1 0x8 PUSH1 0x20 MSTORE PUSH1 0x40 DUP1 DUP3 KECCAK256 DUP1 SLOAD PUSH1 0xFF NOT AND SWAP1 SWAP5 OR SWAP1 SWAP4 SSTORE SWAP2 MLOAD SWAP1 SWAP2 PUSH32 0x6C72E4515192EB32B2C869AB87C03BB8FB82044BDEA5AC3F011131471A7FB2DA SWAP2 LOG2 POP JUMP JUMPDEST PUSH1 0x0 DUP1 PUSH1 0xA PUSH1 0x0 SWAP1 SLOAD SWAP1 PUSH2 0x100 EXP SWAP1 DIV PUSH1 0x1 PUSH1 0x1 PUSH1 0xA0 SHL SUB AND PUSH1 0x1 PUSH1 0x1 PUSH1 0xA0 SHL SUB AND PUSH4 0xFEAF968C PUSH1 0x40 MLOAD DUP2 PUSH4 0xFFFFFFFF AND PUSH1 0xE0 SHL DUP2 MSTORE PUSH1 0x4 ADD PUSH1 0xA0 PUSH1 0x40 MLOAD DUP1 DUP4 SUB DUP2 DUP7 GAS STATICCALL ISZERO DUP1 ISZERO PUSH2 0x1417 JUMPI RETURNDATASIZE PUSH1 0x0 DUP1 RETURNDATACOPY RETURNDATASIZE PUSH1 0x0 REVERT JUMPDEST POP POP POP POP PUSH1 0x40 MLOAD RETURNDATASIZE PUSH1 0x1F NOT PUSH1 0x1F DUP3 ADD AND DUP3 ADD DUP1 PUSH1 0x40 MSTORE POP DUP2 ADD SWAP1 PUSH2 0x143B SWAP2 SWAP1 PUSH2 0x2613 JUMP JUMPDEST POP SWAP2 SWAP6 SWAP5 POP POP POP POP POP JUMP JUMPDEST CALLER PUSH1 0x0 SWAP1 DUP2 MSTORE PUSH1 0x8 PUSH1 0x20 MSTORE PUSH1 0x40 SWAP1 KECCAK256 SLOAD PUSH1 0xFF AND ISZERO ISZERO PUSH1 0x1 EQ PUSH2 0x147A JUMPI PUSH1 0x40 MLOAD PUSH3 0x461BCD PUSH1 0xE5 SHL DUP2 MSTORE PUSH1 0x4 ADD PUSH2 0xD1A SWAP1 PUSH2 0x2504 JUMP JUMPDEST PUSH1 0x5 SLOAD PUSH1 0x1 PUSH1 0x1 PUSH1 0xA0 SHL SUB DUP1 DUP4 AND SWAP2 AND SUB PUSH2 0x14A7 JUMPI PUSH1 0x40 MLOAD PUSH3 0x461BCD PUSH1 0xE5 SHL DUP2 MSTORE PUSH1 0x4 ADD PUSH2 0xD1A SWAP1 PUSH2 0x25CD JUMP JUMPDEST PUSH1 0x5 DUP1 SLOAD PUSH1 0x1 PUSH1 0x1 PUSH1 0xA0 SHL SUB NOT AND PUSH1 0x1 PUSH1 0x1 PUSH1 0xA0 SHL SUB SWAP3 SWAP1 SWAP3 AND SWAP2 SWAP1 SWAP2 OR SWAP1 SSTORE JUMP JUMPDEST PUSH1 0x0 DUP1 SLOAD PUSH1 0x1 PUSH1 0x1 PUSH1 0xA0 SHL SUB AND CALLER EQ PUSH2 0x14E1 JUMPI PUSH1 0x0 DUP1 REVERT JUMPDEST POP PUSH1 0x1 PUSH1 0x1 PUSH1 0xA0 SHL SUB DUP4 AND PUSH1 0x0 SWAP1 DUP2 MSTORE PUSH1 0xB PUSH1 0x20 MSTORE PUSH1 0x40 DUP2 KECCAK256 DUP1 SLOAD PUSH1 0xFF NOT SWAP1 DUP2 AND PUSH1 0x1 SWAP1 DUP2 OR DUP4 SSTORE PUSH1 0x2 DUP4 ADD DUP1 SLOAD SWAP1 SWAP3 AND DUP2 OR SWAP1 SWAP2 SSTORE PUSH1 0x4 DUP3 ADD SWAP3 SWAP1 SWAP3 SSTORE DUP1 DUP3 ADD DUP5 SWAP1 SSTORE PUSH1 0x3 ADD DUP3 SWAP1 SSTORE SWAP4 SWAP3 POP POP POP JUMP JUMPDEST CALLER PUSH1 0x0 SWAP1 DUP2 MSTORE PUSH1 0x8 PUSH1 0x20 MSTORE PUSH1 0x40 DUP2 KECCAK256 SLOAD PUSH1 0xFF AND ISZERO ISZERO PUSH1 0x1 EQ PUSH2 0x1566 JUMPI PUSH1 0x40 MLOAD PUSH3 0x461BCD PUSH1 0xE5 SHL DUP2 MSTORE PUSH1 0x4 ADD PUSH2 0xD1A SWAP1 PUSH2 0x2504 JUMP JUMPDEST PUSH1 0x1 PUSH1 0x1 PUSH1 0xA0 SHL SUB DUP5 AND PUSH1 0x0 SWAP1 DUP2 MSTORE PUSH1 0xB PUSH1 0x20 MSTORE PUSH1 0x40 SWAP1 KECCAK256 PUSH1 0x2 ADD SLOAD DUP5 SWAP1 PUSH1 0xFF AND ISZERO ISZERO PUSH1 0x1 EQ DUP1 ISZERO PUSH2 0x15B1 JUMPI POP PUSH1 0x1 PUSH1 0x1 PUSH1 0xA0 SHL SUB DUP2 AND PUSH1 0x0 SWAP1 DUP2 MSTORE PUSH1 0xB PUSH1 0x20 MSTORE PUSH1 0x40 SWAP1 KECCAK256 SLOAD PUSH1 0xFF AND ISZERO JUMPDEST PUSH2 0x15CD JUMPI PUSH1 0x40 MLOAD PUSH3 0x461BCD PUSH1 0xE5 SHL DUP2 MSTORE PUSH1 0x4 ADD PUSH2 0xD1A SWAP1 PUSH2 0x2663 JUMP JUMPDEST PUSH1 0x1 PUSH1 0x1 PUSH1 0xA0 SHL SUB DUP1 DUP7 AND PUSH1 0x0 SWAP1 DUP2 MSTORE PUSH1 0xB PUSH1 0x20 MSTORE PUSH1 0x40 SWAP1 KECCAK256 SLOAD PUSH2 0x100 SWAP1 DIV DUP2 AND SWAP1 DUP6 AND GT ISZERO PUSH2 0x160F JUMPI PUSH1 0x40 MLOAD PUSH3 0x461BCD PUSH1 0xE5 SHL DUP2 MSTORE PUSH1 0x4 ADD PUSH2 0xD1A SWAP1 PUSH2 0x2663 JUMP JUMPDEST PUSH1 0x1 PUSH1 0x1 PUSH1 0xA0 SHL SUB DUP6 AND PUSH1 0x0 SWAP1 DUP2 MSTORE PUSH1 0xB PUSH1 0x20 MSTORE PUSH1 0x40 SWAP1 KECCAK256 PUSH1 0x1 ADD SLOAD DUP4 GT ISZERO PUSH2 0x164A JUMPI PUSH1 0x40 MLOAD PUSH3 0x461BCD PUSH1 0xE5 SHL DUP2 MSTORE PUSH1 0x4 ADD PUSH2 0xD1A SWAP1 PUSH2 0x25A8 JUMP JUMPDEST PUSH1 0x0 PUSH2 0x1675 PUSH32 0x0 PUSH2 0x731 JUMP JUMPDEST SWAP1 POP PUSH1 0x0 PUSH32 0x0 PUSH1 0x1 PUSH1 0x1 PUSH1 0xA0 SHL SUB AND PUSH4 0x313CE567 PUSH1 0x40 MLOAD DUP2 PUSH4 0xFFFFFFFF AND PUSH1 0xE0 SHL DUP2 MSTORE PUSH1 0x4 ADD PUSH1 0x20 PUSH1 0x40 MLOAD DUP1 DUP4 SUB DUP2 DUP7 GAS STATICCALL ISZERO DUP1 ISZERO PUSH2 0x16D7 JUMPI RETURNDATASIZE PUSH1 0x0 DUP1 RETURNDATACOPY RETURNDATASIZE PUSH1 0x0 REVERT JUMPDEST POP POP POP POP PUSH1 0x40 MLOAD RETURNDATASIZE PUSH1 0x1F NOT PUSH1 0x1F DUP3 ADD AND DUP3 ADD DUP1 PUSH1 0x40 MSTORE POP DUP2 ADD SWAP1 PUSH2 0x16FB SWAP2 SWAP1 PUSH2 0x232A JUMP JUMPDEST PUSH1 0x40 MLOAD PUSH4 0x70A08231 PUSH1 0xE0 SHL DUP2 MSTORE ADDRESS PUSH1 0x4 DUP3 ADD MSTORE PUSH1 0xFF SWAP2 SWAP1 SWAP2 AND SWAP2 POP PUSH1 0x0 SWAP1 PUSH1 0x1 PUSH1 0x1 PUSH1 0xA0 SHL SUB PUSH32 0x0 AND SWAP1 PUSH4 0x70A08231 SWAP1 PUSH1 0x24 ADD PUSH1 0x20 PUSH1 0x40 MLOAD DUP1 DUP4 SUB DUP2 DUP7 GAS STATICCALL ISZERO DUP1 ISZERO PUSH2 0x176A JUMPI RETURNDATASIZE PUSH1 0x0 DUP1 RETURNDATACOPY RETURNDATASIZE PUSH1 0x0 REVERT JUMPDEST POP POP POP POP PUSH1 0x40 MLOAD RETURNDATASIZE PUSH1 0x1F NOT PUSH1 0x1F DUP3 ADD AND DUP3 ADD DUP1 PUSH1 0x40 MSTORE POP DUP2 ADD SWAP1 PUSH2 0x178E SWAP2 SWAP1 PUSH2 0x2689 JUMP JUMPDEST SWAP1 POP PUSH1 0x0 DUP4 PUSH2 0x179E DUP5 PUSH1 0xA PUSH2 0x24A8 JUMP JUMPDEST PUSH2 0x17A9 SWAP1 PUSH1 0x1 PUSH2 0x24B4 JUMP JUMPDEST PUSH2 0x17B3 SWAP1 DUP10 PUSH2 0x24B4 JUMP JUMPDEST PUSH2 0x17BD SWAP2 SWAP1 PUSH2 0x24D3 JUMP JUMPDEST SWAP1 POP PUSH1 0x0 PUSH2 0x3E8 PUSH1 0x9 SLOAD DUP10 PUSH2 0x17D2 SWAP2 SWAP1 PUSH2 0x24B4 JUMP JUMPDEST PUSH2 0x17DC SWAP2 SWAP1 PUSH2 0x24D3 JUMP JUMPDEST SWAP1 POP PUSH1 0x0 DUP6 PUSH2 0x17EC DUP7 PUSH1 0xA PUSH2 0x24A8 JUMP JUMPDEST PUSH2 0x17F7 SWAP1 PUSH1 0x1 PUSH2 0x24B4 JUMP JUMPDEST PUSH2 0x1801 SWAP1 DUP5 PUSH2 0x24B4 JUMP JUMPDEST PUSH2 0x180B SWAP2 SWAP1 PUSH2 0x24D3 JUMP JUMPDEST SWAP1 POP PUSH2 0x1838 PUSH32 0x0 DUP12 DUP4 PUSH2 0x1BC3 JUMP JUMPDEST DUP1 DUP5 LT ISZERO PUSH2 0x188A JUMPI PUSH1 0x0 PUSH2 0x184C DUP6 DUP4 PUSH2 0x2534 JUMP JUMPDEST PUSH1 0x4 SLOAD SWAP1 SWAP2 POP PUSH2 0x1888 SWAP1 PUSH32 0x0 SWAP1 PUSH1 0x1 PUSH1 0x1 PUSH1 0xA0 SHL SUB AND DUP14 DUP5 PUSH2 0x1CF4 JUMP JUMPDEST POP JUMPDEST PUSH2 0x1895 DUP4 DUP7 DUP9 PUSH2 0x1E32 JUMP JUMPDEST POP PUSH1 0x1 SWAP12 SWAP11 POP POP POP POP POP POP POP POP POP POP POP JUMP JUMPDEST CALLER PUSH1 0x0 SWAP1 DUP2 MSTORE PUSH1 0x8 PUSH1 0x20 MSTORE PUSH1 0x40 DUP2 KECCAK256 SLOAD PUSH1 0xFF AND ISZERO ISZERO PUSH1 0x1 EQ PUSH2 0x18DB JUMPI PUSH1 0x40 MLOAD PUSH3 0x461BCD PUSH1 0xE5 SHL DUP2 MSTORE PUSH1 0x4 ADD PUSH2 0xD1A SWAP1 PUSH2 0x2504 JUMP JUMPDEST PUSH1 0x1 PUSH1 0x1 PUSH1 0xA0 SHL SUB DUP6 AND PUSH1 0x0 SWAP1 DUP2 MSTORE PUSH1 0xB PUSH1 0x20 MSTORE PUSH1 0x40 SWAP1 KECCAK256 PUSH1 0x2 ADD SLOAD DUP6 SWAP1 PUSH1 0xFF AND ISZERO ISZERO PUSH1 0x1 EQ DUP1 ISZERO PUSH2 0x1926 JUMPI POP PUSH1 0x1 PUSH1 0x1 PUSH1 0xA0 SHL SUB DUP2 AND PUSH1 0x0 SWAP1 DUP2 MSTORE PUSH1 0xB PUSH1 0x20 MSTORE PUSH1 0x40 SWAP1 KECCAK256 SLOAD PUSH1 0xFF AND ISZERO JUMPDEST PUSH2 0x1942 JUMPI PUSH1 0x40 MLOAD PUSH3 0x461BCD PUSH1 0xE5 SHL DUP2 MSTORE PUSH1 0x4 ADD PUSH2 0xD1A SWAP1 PUSH2 0x2663 JUMP JUMPDEST PUSH1 0x1 PUSH1 0x1 PUSH1 0xA0 SHL SUB DUP7 AND PUSH1 0x0 SWAP1 DUP2 MSTORE PUSH1 0xB PUSH1 0x20 MSTORE PUSH1 0x40 SWAP1 KECCAK256 PUSH1 0x4 DUP2 ADD SLOAD PUSH1 0x3 SWAP1 SWAP2 ADD SLOAD DUP2 LT PUSH2 0x1983 JUMPI PUSH1 0x40 MLOAD PUSH3 0x461BCD PUSH1 0xE5 SHL DUP2 MSTORE PUSH1 0x4 ADD PUSH2 0xD1A SWAP1 PUSH2 0x25A8 JUMP JUMPDEST PUSH1 0x1 PUSH1 0x1 PUSH1 0xA0 SHL SUB DUP8 AND PUSH1 0x0 SWAP1 DUP2 MSTORE PUSH1 0xB PUSH1 0x20 MSTORE PUSH1 0x40 DUP2 KECCAK256 PUSH1 0x4 ADD DUP1 SLOAD SWAP2 PUSH2 0x19AA DUP4 PUSH2 0x2577 JUMP JUMPDEST SWAP1 SWAP2 SSTORE POP POP PUSH1 0x1 PUSH1 0x1 PUSH1 0xA0 SHL SUB SWAP7 DUP8 AND PUSH1 0x0 SWAP1 DUP2 MSTORE PUSH1 0xB PUSH1 0x20 SWAP1 DUP2 MSTORE PUSH1 0x40 DUP1 DUP4 KECCAK256 SWAP4 DUP4 MSTORE PUSH1 0x5 SWAP1 SWAP4 ADD SWAP1 MSTORE KECCAK256 DUP1 SLOAD SWAP6 DUP8 AND PUSH1 0x1 PUSH1 0x1 PUSH1 0xA0 SHL SUB NOT SWAP7 DUP8 AND OR DUP2 SSTORE PUSH1 0x1 DUP1 DUP3 ADD DUP1 SLOAD SWAP7 SWAP1 SWAP9 AND SWAP6 SWAP1 SWAP7 AND SWAP5 SWAP1 SWAP5 OR SWAP1 SWAP6 SSTORE POP PUSH1 0x2 SWAP1 SWAP2 ADD SSTORE SWAP2 SWAP1 POP JUMP JUMPDEST CALLER PUSH1 0x0 SWAP1 DUP2 MSTORE PUSH1 0x8 PUSH1 0x20 MSTORE PUSH1 0x40 SWAP1 KECCAK256 SLOAD PUSH1 0xFF AND ISZERO ISZERO PUSH1 0x1 EQ PUSH2 0x1A40 JUMPI PUSH1 0x40 MLOAD PUSH3 0x461BCD PUSH1 0xE5 SHL DUP2 MSTORE PUSH1 0x4 ADD PUSH2 0xD1A SWAP1 PUSH2 0x2504 JUMP JUMPDEST PUSH1 0x1 PUSH1 0x1 PUSH1 0xA0 SHL SUB DUP3 AND PUSH1 0x0 SWAP1 DUP2 MSTORE PUSH1 0x7 PUSH1 0x20 MSTORE PUSH1 0x40 SWAP1 KECCAK256 SLOAD DUP2 ISZERO ISZERO PUSH1 0xFF SWAP1 SWAP2 AND ISZERO ISZERO SUB PUSH2 0x1AA4 JUMPI PUSH1 0x40 MLOAD PUSH3 0x461BCD PUSH1 0xE5 SHL DUP2 MSTORE PUSH1 0x20 PUSH1 0x4 DUP3 ADD MSTORE PUSH1 0x11 PUSH1 0x24 DUP3 ADD MSTORE PUSH17 0x15985B1D5948185B1C9958591E481CD95D PUSH1 0x7A SHL PUSH1 0x44 DUP3 ADD MSTORE PUSH1 0x64 ADD PUSH2 0xD1A JUMP JUMPDEST PUSH1 0x1 PUSH1 0x1 PUSH1 0xA0 SHL SUB SWAP2 SWAP1 SWAP2 AND PUSH1 0x0 SWAP1 DUP2 MSTORE PUSH1 0x7 PUSH1 0x20 MSTORE PUSH1 0x40 SWAP1 KECCAK256 DUP1 SLOAD PUSH1 0xFF NOT AND SWAP2 ISZERO ISZERO SWAP2 SWAP1 SWAP2 OR SWAP1 SSTORE JUMP JUMPDEST PUSH1 0x0 DUP1 SLOAD PUSH1 0x1 PUSH1 0x1 PUSH1 0xA0 SHL SUB AND CALLER EQ PUSH2 0x1AE7 JUMPI PUSH1 0x0 DUP1 REVERT JUMPDEST PUSH2 0x1081 DUP5 DUP5 ADDRESS DUP6 PUSH2 0x1CF4 JUMP JUMPDEST PUSH1 0x0 DUP1 SLOAD PUSH1 0x1 PUSH1 0x1 PUSH1 0xA0 SHL SUB AND CALLER EQ PUSH2 0x1B0B JUMPI PUSH1 0x0 DUP1 REVERT JUMPDEST PUSH1 0x1 PUSH1 0x1 PUSH1 0xA0 SHL SUB DUP3 AND PUSH1 0x0 SWAP1 DUP2 MSTORE PUSH1 0xB PUSH1 0x20 MSTORE PUSH1 0x40 SWAP1 KECCAK256 SLOAD DUP3 SWAP1 PUSH1 0xFF AND ISZERO ISZERO PUSH1 0x1 EQ PUSH2 0x1B4A JUMPI PUSH1 0x40 MLOAD PUSH3 0x461BCD PUSH1 0xE5 SHL DUP2 MSTORE PUSH1 0x4 ADD PUSH2 0xD1A SWAP1 PUSH2 0x2663 JUMP JUMPDEST PUSH1 0x1 PUSH1 0x1 PUSH1 0xA0 SHL SUB DUP4 AND PUSH1 0x0 SWAP1 DUP2 MSTORE PUSH1 0xB PUSH1 0x20 MSTORE PUSH1 0x40 SWAP1 KECCAK256 PUSH1 0x4 DUP2 ADD SLOAD PUSH1 0x3 SWAP1 SWAP2 ADD SLOAD DUP2 LT PUSH2 0x1B8B JUMPI PUSH1 0x40 MLOAD PUSH3 0x461BCD PUSH1 0xE5 SHL DUP2 MSTORE PUSH1 0x4 ADD PUSH2 0xD1A SWAP1 PUSH2 0x25A8 JUMP JUMPDEST DUP1 ISZERO PUSH2 0x1B9C JUMPI PUSH2 0x1B9A DUP5 PUSH2 0x1FDD JUMP JUMPDEST POP JUMPDEST POP POP POP PUSH1 0x1 PUSH1 0x1 PUSH1 0xA0 SHL SUB AND PUSH1 0x0 SWAP1 DUP2 MSTORE PUSH1 0xB PUSH1 0x20 MSTORE PUSH1 0x40 SWAP1 KECCAK256 DUP1 SLOAD PUSH1 0xFF NOT AND SWAP1 SSTORE PUSH1 0x1 SWAP1 JUMP JUMPDEST PUSH1 0x40 DUP1 MLOAD PUSH1 0x1 PUSH1 0x1 PUSH1 0xA0 SHL SUB DUP5 DUP2 AND PUSH1 0x24 DUP4 ADD MSTORE PUSH1 0x44 DUP1 DUP4 ADD DUP6 SWAP1 MSTORE DUP4 MLOAD DUP1 DUP5 SUB SWAP1 SWAP2 ADD DUP2 MSTORE PUSH1 0x64 SWAP1 SWAP3 ADD DUP4 MSTORE PUSH1 0x20 DUP3 ADD DUP1 MLOAD PUSH1 0x1 PUSH1 0x1 PUSH1 0xE0 SHL SUB AND PUSH4 0xA9059CBB PUSH1 0xE0 SHL OR SWAP1 MSTORE SWAP2 MLOAD PUSH1 0x0 SWAP3 DUP4 SWAP3 SWAP1 DUP8 AND SWAP2 PUSH2 0x1C1F SWAP2 SWAP1 PUSH2 0x26A2 JUMP JUMPDEST PUSH1 0x0 PUSH1 0x40 MLOAD DUP1 DUP4 SUB DUP2 PUSH1 0x0 DUP7 GAS CALL SWAP2 POP POP RETURNDATASIZE DUP1 PUSH1 0x0 DUP2 EQ PUSH2 0x1C5C JUMPI PUSH1 0x40 MLOAD SWAP2 POP PUSH1 0x1F NOT PUSH1 0x3F RETURNDATASIZE ADD AND DUP3 ADD PUSH1 0x40 MSTORE RETURNDATASIZE DUP3 MSTORE RETURNDATASIZE PUSH1 0x0 PUSH1 0x20 DUP5 ADD RETURNDATACOPY PUSH2 0x1C61 JUMP JUMPDEST PUSH1 0x60 SWAP2 POP JUMPDEST POP SWAP2 POP SWAP2 POP DUP2 DUP1 ISZERO PUSH2 0x1C8B JUMPI POP DUP1 MLOAD ISZERO DUP1 PUSH2 0x1C8B JUMPI POP DUP1 DUP1 PUSH1 0x20 ADD SWAP1 MLOAD DUP2 ADD SWAP1 PUSH2 0x1C8B SWAP2 SWAP1 PUSH2 0x26DD JUMP JUMPDEST PUSH2 0x1CED JUMPI PUSH1 0x40 MLOAD PUSH3 0x461BCD PUSH1 0xE5 SHL DUP2 MSTORE PUSH1 0x20 PUSH1 0x4 DUP3 ADD MSTORE PUSH1 0x2D PUSH1 0x24 DUP3 ADD MSTORE PUSH32 0x5472616E7366657248656C7065723A3A736166655472616E736665723A207472 PUSH1 0x44 DUP3 ADD MSTORE PUSH13 0x185B9CD9995C8819985A5B1959 PUSH1 0x9A SHL PUSH1 0x64 DUP3 ADD MSTORE PUSH1 0x84 ADD PUSH2 0xD1A JUMP JUMPDEST POP POP POP POP POP JUMP JUMPDEST PUSH1 0x40 DUP1 MLOAD PUSH1 0x1 PUSH1 0x1 PUSH1 0xA0 SHL SUB DUP6 DUP2 AND PUSH1 0x24 DUP4 ADD MSTORE DUP5 DUP2 AND PUSH1 0x44 DUP4 ADD MSTORE PUSH1 0x64 DUP1 DUP4 ADD DUP6 SWAP1 MSTORE DUP4 MLOAD DUP1 DUP5 SUB SWAP1 SWAP2 ADD DUP2 MSTORE PUSH1 0x84 SWAP1 SWAP3 ADD DUP4 MSTORE PUSH1 0x20 DUP3 ADD DUP1 MLOAD PUSH1 0x1 PUSH1 0x1 PUSH1 0xE0 SHL SUB AND PUSH4 0x23B872DD PUSH1 0xE0 SHL OR SWAP1 MSTORE SWAP2 MLOAD PUSH1 0x0 SWAP3 DUP4 SWAP3 SWAP1 DUP9 AND SWAP2 PUSH2 0x1D58 SWAP2 SWAP1 PUSH2 0x26A2 JUMP JUMPDEST PUSH1 0x0 PUSH1 0x40 MLOAD DUP1 DUP4 SUB DUP2 PUSH1 0x0 DUP7 GAS CALL SWAP2 POP POP RETURNDATASIZE DUP1 PUSH1 0x0 DUP2 EQ PUSH2 0x1D95 JUMPI PUSH1 0x40 MLOAD SWAP2 POP PUSH1 0x1F NOT PUSH1 0x3F RETURNDATASIZE ADD AND DUP3 ADD PUSH1 0x40 MSTORE RETURNDATASIZE DUP3 MSTORE RETURNDATASIZE PUSH1 0x0 PUSH1 0x20 DUP5 ADD RETURNDATACOPY PUSH2 0x1D9A JUMP JUMPDEST PUSH1 0x60 SWAP2 POP JUMPDEST POP SWAP2 POP SWAP2 POP DUP2 DUP1 ISZERO PUSH2 0x1DC4 JUMPI POP DUP1 MLOAD ISZERO DUP1 PUSH2 0x1DC4 JUMPI POP DUP1 DUP1 PUSH1 0x20 ADD SWAP1 MLOAD DUP2 ADD SWAP1 PUSH2 0x1DC4 SWAP2 SWAP1 PUSH2 0x26DD JUMP JUMPDEST PUSH2 0x1E2A JUMPI PUSH1 0x40 MLOAD PUSH3 0x461BCD PUSH1 0xE5 SHL DUP2 MSTORE PUSH1 0x20 PUSH1 0x4 DUP3 ADD MSTORE PUSH1 0x31 PUSH1 0x24 DUP3 ADD MSTORE PUSH32 0x5472616E7366657248656C7065723A3A7472616E7366657246726F6D3A207472 PUSH1 0x44 DUP3 ADD MSTORE PUSH17 0x185B9CD9995C919C9BDB4819985A5B1959 PUSH1 0x7A SHL PUSH1 0x64 DUP3 ADD MSTORE PUSH1 0x84 ADD PUSH2 0xD1A JUMP JUMPDEST POP POP POP POP POP POP JUMP JUMPDEST PUSH1 0x0 DUP1 PUSH2 0x3E8 PUSH1 0xC PUSH1 0x1 ADD SLOAD DUP7 PUSH2 0x1E49 SWAP2 SWAP1 PUSH2 0x24B4 JUMP JUMPDEST PUSH2 0x1E53 SWAP2 SWAP1 PUSH2 0x24D3 JUMP JUMPDEST SWAP1 POP PUSH1 0x0 DUP4 PUSH2 0x1E63 DUP7 PUSH1 0xA PUSH2 0x24A8 JUMP JUMPDEST PUSH2 0x1E6E SWAP1 PUSH1 0x1 PUSH2 0x24B4 JUMP JUMPDEST PUSH2 0x1E78 SWAP1 DUP5 PUSH2 0x24B4 JUMP JUMPDEST PUSH2 0x1E82 SWAP2 SWAP1 PUSH2 0x24D3 JUMP JUMPDEST PUSH1 0x4 SLOAD SWAP1 SWAP2 POP PUSH2 0x1EBD SWAP1 PUSH32 0x0 SWAP1 PUSH1 0x1 PUSH1 0x1 PUSH1 0xA0 SHL SUB AND DUP4 PUSH2 0x1BC3 JUMP JUMPDEST PUSH1 0xC SLOAD PUSH1 0x0 SWAP1 PUSH2 0x3E8 SWAP1 PUSH2 0x1ED1 SWAP1 DUP10 PUSH2 0x24B4 JUMP JUMPDEST PUSH2 0x1EDB SWAP2 SWAP1 PUSH2 0x24D3 JUMP JUMPDEST SWAP1 POP PUSH1 0x0 DUP6 PUSH2 0x1EEB DUP9 PUSH1 0xA PUSH2 0x24A8 JUMP JUMPDEST PUSH2 0x1EF6 SWAP1 PUSH1 0x1 PUSH2 0x24B4 JUMP JUMPDEST PUSH2 0x1F00 SWAP1 DUP5 PUSH2 0x24B4 JUMP JUMPDEST PUSH2 0x1F0A SWAP2 SWAP1 PUSH2 0x24D3 JUMP JUMPDEST PUSH1 0x4 SLOAD SWAP1 SWAP2 POP PUSH2 0x1F45 SWAP1 PUSH32 0x0 SWAP1 PUSH1 0x1 PUSH1 0x1 PUSH1 0xA0 SHL SUB AND DUP4 PUSH2 0x1BC3 JUMP JUMPDEST PUSH1 0xE SLOAD PUSH1 0x0 SWAP1 PUSH2 0x3E8 SWAP1 PUSH2 0x1F59 SWAP1 DUP12 PUSH2 0x24B4 JUMP JUMPDEST PUSH2 0x1F63 SWAP2 SWAP1 PUSH2 0x24D3 JUMP JUMPDEST SWAP1 POP PUSH1 0x0 DUP8 PUSH2 0x1F73 DUP11 PUSH1 0xA PUSH2 0x24A8 JUMP JUMPDEST PUSH2 0x1F7E SWAP1 PUSH1 0x1 PUSH2 0x24B4 JUMP JUMPDEST PUSH2 0x1F88 SWAP1 DUP5 PUSH2 0x24B4 JUMP JUMPDEST PUSH2 0x1F92 SWAP2 SWAP1 PUSH2 0x24D3 JUMP JUMPDEST PUSH1 0x4 SLOAD SWAP1 SWAP2 POP PUSH2 0x1FCD SWAP1 PUSH32 0x0 SWAP1 PUSH1 0x1 PUSH1 0x1 PUSH1 0xA0 SHL SUB AND DUP4 PUSH2 0x1BC3 JUMP JUMPDEST POP PUSH1 0x1 SWAP10 SWAP9 POP POP POP POP POP POP POP POP POP JUMP JUMPDEST PUSH1 0x0 DUP1 SLOAD PUSH1 0x1 PUSH1 0x1 PUSH1 0xA0 SHL SUB AND CALLER EQ PUSH2 0x1FF5 JUMPI PUSH1 0x0 DUP1 REVERT JUMPDEST PUSH1 0x1 PUSH1 0x1 PUSH1 0xA0 SHL SUB DUP3 AND PUSH1 0x0 SWAP1 DUP2 MSTORE PUSH1 0xB PUSH1 0x20 MSTORE PUSH1 0x40 SWAP1 KECCAK256 SLOAD DUP3 SWAP1 PUSH1 0xFF AND ISZERO ISZERO PUSH1 0x1 EQ PUSH2 0x2034 JUMPI PUSH1 0x40 MLOAD PUSH3 0x461BCD PUSH1 0xE5 SHL DUP2 MSTORE PUSH1 0x4 ADD PUSH2 0xD1A SWAP1 PUSH2 0x2663 JUMP JUMPDEST PUSH1 0x0 JUMPDEST PUSH1 0x1 PUSH1 0x1 PUSH1 0xA0 SHL SUB DUP5 AND PUSH1 0x0 SWAP1 DUP2 MSTORE PUSH1 0xB PUSH1 0x20 MSTORE PUSH1 0x40 SWAP1 KECCAK256 PUSH1 0x4 ADD SLOAD DUP2 LT ISZERO PUSH2 0x1B9C JUMPI PUSH1 0x1 PUSH1 0x1 PUSH1 0xA0 SHL SUB DUP5 DUP2 AND PUSH1 0x0 SWAP1 DUP2 MSTORE PUSH1 0xB PUSH1 0x20 SWAP1 DUP2 MSTORE PUSH1 0x40 DUP1 DUP4 KECCAK256 DUP6 DUP5 MSTORE PUSH1 0x5 ADD SWAP1 SWAP2 MSTORE SWAP1 KECCAK256 PUSH1 0x1 DUP2 ADD SLOAD DUP2 SLOAD PUSH1 0x2 SWAP1 SWAP3 ADD SLOAD PUSH2 0x209F SWAP4 SWAP2 DUP3 AND SWAP3 SWAP1 SWAP2 AND SWAP1 PUSH2 0x1BC3 JUMP JUMPDEST PUSH2 0x20A8 DUP2 PUSH2 0x2577 JUMP JUMPDEST SWAP1 POP PUSH2 0x2037 JUMP JUMPDEST PUSH1 0x1 PUSH1 0x1 PUSH1 0xA0 SHL SUB DUP2 AND DUP2 EQ PUSH2 0x20C4 JUMPI PUSH1 0x0 DUP1 REVERT JUMPDEST POP JUMP JUMPDEST PUSH1 0x0 PUSH1 0x20 DUP3 DUP5 SUB SLT ISZERO PUSH2 0x20D9 JUMPI PUSH1 0x0 DUP1 REVERT JUMPDEST DUP2 CALLDATALOAD PUSH2 0x20E4 DUP2 PUSH2 0x20AF JUMP JUMPDEST SWAP4 SWAP3 POP POP POP JUMP JUMPDEST PUSH1 0x0 DUP1 PUSH1 0x40 DUP4 DUP6 SUB SLT ISZERO PUSH2 0x20FE JUMPI PUSH1 0x0 DUP1 REVERT JUMPDEST DUP3 CALLDATALOAD PUSH2 0x2109 DUP2 PUSH2 0x20AF JUMP JUMPDEST SWAP2 POP PUSH1 0x20 DUP4 ADD CALLDATALOAD PUSH2 0x2119 DUP2 PUSH2 0x20AF JUMP JUMPDEST DUP1 SWAP2 POP POP SWAP3 POP SWAP3 SWAP1 POP JUMP JUMPDEST PUSH1 0x0 DUP1 PUSH1 0x0 DUP1 PUSH1 0x80 DUP6 DUP8 SUB SLT ISZERO PUSH2 0x213A JUMPI PUSH1 0x0 DUP1 REVERT JUMPDEST POP POP DUP3 CALLDATALOAD SWAP5 PUSH1 0x20 DUP5 ADD CALLDATALOAD SWAP5 POP PUSH1 0x40 DUP5 ADD CALLDATALOAD SWAP4 PUSH1 0x60 ADD CALLDATALOAD SWAP3 POP SWAP1 POP JUMP JUMPDEST PUSH1 0x0 DUP1 PUSH1 0x0 PUSH1 0x60 DUP5 DUP7 SUB SLT ISZERO PUSH2 0x216B JUMPI PUSH1 0x0 DUP1 REVERT JUMPDEST DUP4 CALLDATALOAD PUSH2 0x2176 DUP2 PUSH2 0x20AF JUMP JUMPDEST SWAP3 POP PUSH1 0x20 DUP5 ADD CALLDATALOAD SWAP2 POP PUSH1 0x40 DUP5 ADD CALLDATALOAD PUSH2 0x218D DUP2 PUSH2 0x20AF JUMP JUMPDEST DUP1 SWAP2 POP POP SWAP3 POP SWAP3 POP SWAP3 JUMP JUMPDEST PUSH1 0x0 DUP1 PUSH1 0x40 DUP4 DUP6 SUB SLT ISZERO PUSH2 0x21AB JUMPI PUSH1 0x0 DUP1 REVERT JUMPDEST DUP3 CALLDATALOAD SWAP2 POP PUSH1 0x20 DUP4 ADD CALLDATALOAD PUSH2 0x2119 DUP2 PUSH2 0x20AF JUMP JUMPDEST PUSH1 0x20 DUP1 DUP3 MSTORE DUP3 MLOAD DUP3 DUP3 ADD DUP2 SWAP1 MSTORE PUSH1 0x0 SWAP2 SWAP1 DUP5 DUP3 ADD SWAP1 PUSH1 0x40 DUP6 ADD SWAP1 DUP5 JUMPDEST DUP2 DUP2 LT ISZERO PUSH2 0x21FE JUMPI DUP4 MLOAD PUSH1 0x1 PUSH1 0x1 PUSH1 0xA0 SHL SUB AND DUP4 MSTORE SWAP3 DUP5 ADD SWAP3 SWAP2 DUP5 ADD SWAP2 PUSH1 0x1 ADD PUSH2 0x21D9 JUMP JUMPDEST POP SWAP1 SWAP7 SWAP6 POP POP POP POP POP POP JUMP JUMPDEST PUSH1 0x0 DUP1 PUSH1 0x0 PUSH1 0x60 DUP5 DUP7 SUB SLT ISZERO PUSH2 0x221F JUMPI PUSH1 0x0 DUP1 REVERT JUMPDEST DUP4 CALLDATALOAD PUSH2 0x222A DUP2 PUSH2 0x20AF JUMP JUMPDEST SWAP6 PUSH1 0x20 DUP6 ADD CALLDATALOAD SWAP6 POP PUSH1 0x40 SWAP1 SWAP5 ADD CALLDATALOAD SWAP4 SWAP3 POP POP POP JUMP JUMPDEST PUSH1 0x0 DUP1 PUSH1 0x0 PUSH1 0x60 DUP5 DUP7 SUB SLT ISZERO PUSH2 0x2254 JUMPI PUSH1 0x0 DUP1 REVERT JUMPDEST DUP4 CALLDATALOAD PUSH2 0x225F DUP2 PUSH2 0x20AF JUMP JUMPDEST SWAP3 POP PUSH1 0x20 DUP5 ADD CALLDATALOAD PUSH2 0x226F DUP2 PUSH2 0x20AF JUMP JUMPDEST SWAP3 SWAP6 SWAP3 SWAP5 POP POP POP PUSH1 0x40 SWAP2 SWAP1 SWAP2 ADD CALLDATALOAD SWAP1 JUMP JUMPDEST PUSH1 0x0 DUP1 PUSH1 0x0 DUP1 PUSH1 0x80 DUP6 DUP8 SUB SLT ISZERO PUSH2 0x2296 JUMPI PUSH1 0x0 DUP1 REVERT JUMPDEST DUP5 CALLDATALOAD PUSH2 0x22A1 DUP2 PUSH2 0x20AF JUMP JUMPDEST SWAP4 POP PUSH1 0x20 DUP6 ADD CALLDATALOAD PUSH2 0x22B1 DUP2 PUSH2 0x20AF JUMP JUMPDEST SWAP3 POP PUSH1 0x40 DUP6 ADD CALLDATALOAD PUSH2 0x22C1 DUP2 PUSH2 0x20AF JUMP JUMPDEST SWAP4 SWAP7 SWAP3 SWAP6 POP SWAP3 SWAP4 PUSH1 0x60 ADD CALLDATALOAD SWAP3 POP POP JUMP JUMPDEST DUP1 ISZERO ISZERO DUP2 EQ PUSH2 0x20C4 JUMPI PUSH1 0x0 DUP1 REVERT JUMPDEST PUSH1 0x0 DUP1 PUSH1 0x40 DUP4 DUP6 SUB SLT ISZERO PUSH2 0x22F2 JUMPI PUSH1 0x0 DUP1 REVERT JUMPDEST DUP3 CALLDATALOAD PUSH2 0x22FD DUP2 PUSH2 0x20AF JUMP JUMPDEST SWAP2 POP PUSH1 0x20 DUP4 ADD CALLDATALOAD PUSH2 0x2119 DUP2 PUSH2 0x22D1 JUMP JUMPDEST PUSH1 0x0 PUSH1 0x20 DUP3 DUP5 SUB SLT ISZERO PUSH2 0x231F JUMPI PUSH1 0x0 DUP1 REVERT JUMPDEST DUP2 MLOAD PUSH2 0x20E4 DUP2 PUSH2 0x20AF JUMP JUMPDEST PUSH1 0x0 PUSH1 0x20 DUP3 DUP5 SUB SLT ISZERO PUSH2 0x233C JUMPI PUSH1 0x0 DUP1 REVERT JUMPDEST DUP2 MLOAD PUSH1 0xFF DUP2 AND DUP2 EQ PUSH2 0x20E4 JUMPI PUSH1 0x0 DUP1 REVERT JUMPDEST DUP1 MLOAD PUSH1 0x1 PUSH1 0x1 PUSH1 0x70 SHL SUB DUP2 AND DUP2 EQ PUSH2 0x2364 JUMPI PUSH1 0x0 DUP1 REVERT JUMPDEST SWAP2 SWAP1 POP JUMP JUMPDEST PUSH1 0x0 DUP1 PUSH1 0x0 PUSH1 0x60 DUP5 DUP7 SUB SLT ISZERO PUSH2 0x237E JUMPI PUSH1 0x0 DUP1 REVERT JUMPDEST PUSH2 0x2387 DUP5 PUSH2 0x234D JUMP JUMPDEST SWAP3 POP PUSH2 0x2395 PUSH1 0x20 DUP6 ADD PUSH2 0x234D JUMP JUMPDEST SWAP2 POP PUSH1 0x40 DUP5 ADD MLOAD PUSH4 0xFFFFFFFF DUP2 AND DUP2 EQ PUSH2 0x218D JUMPI PUSH1 0x0 DUP1 REVERT JUMPDEST PUSH4 0x4E487B71 PUSH1 0xE0 SHL PUSH1 0x0 MSTORE PUSH1 0x11 PUSH1 0x4 MSTORE PUSH1 0x24 PUSH1 0x0 REVERT JUMPDEST PUSH1 0x1 DUP2 DUP2 JUMPDEST DUP1 DUP6 GT ISZERO PUSH2 0x23FF JUMPI DUP2 PUSH1 0x0 NOT DIV DUP3 GT ISZERO PUSH2 0x23E5 JUMPI PUSH2 0x23E5 PUSH2 0x23AE JUMP JUMPDEST DUP1 DUP6 AND ISZERO PUSH2 0x23F2 JUMPI SWAP2 DUP2 MUL SWAP2 JUMPDEST SWAP4 DUP5 SHR SWAP4 SWAP1 DUP1 MUL SWAP1 PUSH2 0x23C9 JUMP JUMPDEST POP SWAP3 POP SWAP3 SWAP1 POP JUMP JUMPDEST PUSH1 0x0 DUP3 PUSH2 0x2416 JUMPI POP PUSH1 0x1 PUSH2 0xD82 JUMP JUMPDEST DUP2 PUSH2 0x2423 JUMPI POP PUSH1 0x0 PUSH2 0xD82 JUMP JUMPDEST DUP2 PUSH1 0x1 DUP2 EQ PUSH2 0x2439 JUMPI PUSH1 0x2 DUP2 EQ PUSH2 0x2443 JUMPI PUSH2 0x245F JUMP JUMPDEST PUSH1 0x1 SWAP2 POP POP PUSH2 0xD82 JUMP JUMPDEST PUSH1 0xFF DUP5 GT ISZERO PUSH2 0x2454 JUMPI PUSH2 0x2454 PUSH2 0x23AE JUMP JUMPDEST POP POP PUSH1 0x1 DUP3 SHL PUSH2 0xD82 JUMP JUMPDEST POP PUSH1 0x20 DUP4 LT PUSH2 0x133 DUP4 LT AND PUSH1 0x4E DUP5 LT PUSH1 0xB DUP5 LT AND OR ISZERO PUSH2 0x2482 JUMPI POP DUP2 DUP2 EXP PUSH2 0xD82 JUMP JUMPDEST PUSH2 0x248C DUP4 DUP4 PUSH2 0x23C4 JUMP JUMPDEST DUP1 PUSH1 0x0 NOT DIV DUP3 GT ISZERO PUSH2 0x24A0 JUMPI PUSH2 0x24A0 PUSH2 0x23AE JUMP JUMPDEST MUL SWAP4 SWAP3 POP POP POP JUMP JUMPDEST PUSH1 0x0 PUSH2 0x20E4 DUP4 DUP4 PUSH2 0x2407 JUMP JUMPDEST PUSH1 0x0 DUP2 PUSH1 0x0 NOT DIV DUP4 GT DUP3 ISZERO ISZERO AND ISZERO PUSH2 0x24CE JUMPI PUSH2 0x24CE PUSH2 0x23AE JUMP JUMPDEST POP MUL SWAP1 JUMP JUMPDEST PUSH1 0x0 DUP3 PUSH2 0x24F0 JUMPI PUSH4 0x4E487B71 PUSH1 0xE0 SHL PUSH1 0x0 MSTORE PUSH1 0x12 PUSH1 0x4 MSTORE PUSH1 0x24 PUSH1 0x0 REVERT JUMPDEST POP DIV SWAP1 JUMP JUMPDEST PUSH1 0x0 PUSH2 0x20E4 PUSH1 0xFF DUP5 AND DUP4 PUSH2 0x2407 JUMP JUMPDEST PUSH1 0x20 DUP1 DUP3 MSTORE PUSH1 0x16 SWAP1 DUP3 ADD MSTORE PUSH22 0x165BDD48185C99481B9BDD08185D5D1A1BDC9A5E9959 PUSH1 0x52 SHL PUSH1 0x40 DUP3 ADD MSTORE PUSH1 0x60 ADD SWAP1 JUMP JUMPDEST PUSH1 0x0 DUP3 DUP3 LT ISZERO PUSH2 0x2546 JUMPI PUSH2 0x2546 PUSH2 0x23AE JUMP JUMPDEST POP SUB SWAP1 JUMP JUMPDEST PUSH4 0x4E487B71 PUSH1 0xE0 SHL PUSH1 0x0 MSTORE PUSH1 0x32 PUSH1 0x4 MSTORE PUSH1 0x24 PUSH1 0x0 REVERT JUMPDEST PUSH4 0x4E487B71 PUSH1 0xE0 SHL PUSH1 0x0 MSTORE PUSH1 0x31 PUSH1 0x4 MSTORE PUSH1 0x24 PUSH1 0x0 REVERT JUMPDEST PUSH1 0x0 PUSH1 0x1 DUP3 ADD PUSH2 0x2589 JUMPI PUSH2 0x2589 PUSH2 0x23AE JUMP JUMPDEST POP PUSH1 0x1 ADD SWAP1 JUMP JUMPDEST PUSH1 0x0 DUP3 NOT DUP3 GT ISZERO PUSH2 0x25A3 JUMPI PUSH2 0x25A3 PUSH2 0x23AE JUMP JUMPDEST POP ADD SWAP1 JUMP JUMPDEST PUSH1 0x20 DUP1 DUP3 MSTORE PUSH1 0xB SWAP1 DUP3 ADD MSTORE PUSH11 0x1098590814995C5D595CDD PUSH1 0xAA SHL PUSH1 0x40 DUP3 ADD MSTORE PUSH1 0x60 ADD SWAP1 JUMP JUMPDEST PUSH1 0x20 DUP1 DUP3 MSTORE PUSH1 0x12 SWAP1 DUP3 ADD MSTORE PUSH18 0x15D85B1B195D08185B1C9958591E481CD95D PUSH1 0x72 SHL PUSH1 0x40 DUP3 ADD MSTORE PUSH1 0x60 ADD SWAP1 JUMP JUMPDEST DUP1 MLOAD PUSH10 0xFFFFFFFFFFFFFFFFFFFF DUP2 AND DUP2 EQ PUSH2 0x2364 JUMPI PUSH1 0x0 DUP1 REVERT JUMPDEST PUSH1 0x0 DUP1 PUSH1 0x0 DUP1 PUSH1 0x0 PUSH1 0xA0 DUP7 DUP9 SUB SLT ISZERO PUSH2 0x262B JUMPI PUSH1 0x0 DUP1 REVERT JUMPDEST PUSH2 0x2634 DUP7 PUSH2 0x25F9 JUMP JUMPDEST SWAP5 POP PUSH1 0x20 DUP7 ADD MLOAD SWAP4 POP PUSH1 0x40 DUP7 ADD MLOAD SWAP3 POP PUSH1 0x60 DUP7 ADD MLOAD SWAP2 POP PUSH2 0x2657 PUSH1 0x80 DUP8 ADD PUSH2 0x25F9 JUMP JUMPDEST SWAP1 POP SWAP3 SWAP6 POP SWAP3 SWAP6 SWAP1 SWAP4 POP JUMP JUMPDEST PUSH1 0x20 DUP1 DUP3 MSTORE PUSH1 0xC SWAP1 DUP3 ADD MSTORE PUSH12 0x155B985D5D1A1BDC9A5E9959 PUSH1 0xA2 SHL PUSH1 0x40 DUP3 ADD MSTORE PUSH1 0x60 ADD SWAP1 JUMP JUMPDEST PUSH1 0x0 PUSH1 0x20 DUP3 DUP5 SUB SLT ISZERO PUSH2 0x269B JUMPI PUSH1 0x0 DUP1 REVERT JUMPDEST POP MLOAD SWAP2 SWAP1 POP JUMP JUMPDEST PUSH1 0x0 DUP3 MLOAD PUSH1 0x0 JUMPDEST DUP2 DUP2 LT ISZERO PUSH2 0x26C3 JUMPI PUSH1 0x20 DUP2 DUP7 ADD DUP2 ADD MLOAD DUP6 DUP4 ADD MSTORE ADD PUSH2 0x26A9 JUMP JUMPDEST DUP2 DUP2 GT ISZERO PUSH2 0x26D2 JUMPI PUSH1 0x0 DUP3 DUP6 ADD MSTORE JUMPDEST POP SWAP2 SWAP1 SWAP2 ADD SWAP3 SWAP2 POP POP JUMP JUMPDEST PUSH1 0x0 PUSH1 0x20 DUP3 DUP5 SUB SLT ISZERO PUSH2 0x26EF JUMPI PUSH1 0x0 DUP1 REVERT JUMPDEST DUP2 MLOAD PUSH2 0x20E4 DUP2 PUSH2 0x22D1 JUMP INVALID LOG2 PUSH5 0x6970667358 0x22 SLT KECCAK256 PUSH24 0xF2D4E59EEC918D5F6D5D80EAAA11B2AF34C73541FCE71475 DELEGATECALL PUSH32 0x804E03159464736F6C634300080E003300000000000000000000000000000000 "
		},
		"gasEstimates": {
			"creation": {
				"codeDepositCost": "2006400",
				"executionCost": "infinite",
				"totalCost": "infinite"
			},
			"external": {
				"FMON()": "infinite",
				"WETH()": "infinite",
				"addAdminUser(address)": "80829",
				"addLiquidity(address,address,uint256)": "infinite",
				"buyTicketsToPlay(uint256,address)": "infinite",
				"cancelRaffleOperator(address)": "infinite",
				"distributeRaffleOperatorPrize(address,address,uint256)": "infinite",
				"getCurrentAdminUsers()": "infinite",
				"getCurrentPriceOfTokenByETHInUSDC(address)": "infinite",
				"getETHLatestPrice()": "infinite",
				"getETHPriceDecimals()": "infinite",
				"getIfUserIsAdmin(address)": "2589",
				"isAdminUser(address)": "2637",
				"isBot(address)": "2656",
				"megaVaultAddress()": "2405",
				"operatorFees()": "6664",
				"owner()": "2404",
				"prizePercentageToWinner()": "2351",
				"raffleOperator(address)": "11251",
				"removeAdminUser(address)": "infinite",
				"removeLiquidity(address,uint256,address)": "infinite",
				"router()": "2447",
				"setAntibot(address,bool)": "infinite",
				"setNewRaffleOperator(address,uint256,uint256)": "100403",
				"setOperatorPercentages(uint256,uint256,uint256,uint256)": "infinite",
				"setPlayersToReturnMoney(address,address,address,uint256)": "infinite",
				"setRaffleOperatorWinner(address,address)": "infinite",
				"treasuryAddress()": "2382",
				"updateMegaVaultWallet(address)": "28986",
				"updateTreasuryWallet(address)": "29008",
				"updateXPresidentsVaultWallet(address)": "29007",
				"usdToken()": "2469",
				"xPresidentsVaultAddress()": "2381"
			},
			"internal": {
				"returnMoneyToOwners(address)": "infinite",
				"sendFeesToOperator(uint256,uint256,uint256)": "infinite"
			}
		},
		"methodIdentifiers": {
			"FMON()": "b652acb5",
			"WETH()": "ad5c4648",
			"addAdminUser(address)": "94743ae8",
			"addLiquidity(address,address,uint256)": "e4a76726",
			"buyTicketsToPlay(uint256,address)": "764ba96b",
			"cancelRaffleOperator(address)": "e89ce4ae",
			"distributeRaffleOperatorPrize(address,address,uint256)": "b52ec16f",
			"getCurrentAdminUsers()": "8bc4c7f9",
			"getCurrentPriceOfTokenByETHInUSDC(address)": "10ba4f05",
			"getETHLatestPrice()": "94e99256",
			"getETHPriceDecimals()": "86b04dca",
			"getIfUserIsAdmin(address)": "6f641428",
			"isAdminUser(address)": "6323580d",
			"isBot(address)": "3bbac579",
			"megaVaultAddress()": "462f2e74",
			"operatorFees()": "b3dde324",
			"owner()": "8da5cb5b",
			"prizePercentageToWinner()": "d229801f",
			"raffleOperator(address)": "b7cc6a83",
			"removeAdminUser(address)": "1de6ebd8",
			"removeLiquidity(address,uint256,address)": "47fdbc8e",
			"router()": "f887ea40",
			"setAntibot(address,bool)": "e1165545",
			"setNewRaffleOperator(address,uint256,uint256)": "b41ed44f",
			"setOperatorPercentages(uint256,uint256,uint256,uint256)": "409f7e9d",
			"setPlayersToReturnMoney(address,address,address,uint256)": "dd887e10",
			"setRaffleOperatorWinner(address,address)": "19d0410e",
			"treasuryAddress()": "c5f956af",
			"updateMegaVaultWallet(address)": "a99c54f7",
			"updateTreasuryWallet(address)": "809d458d",
			"updateXPresidentsVaultWallet(address)": "8dfad512",
			"usdToken()": "f897a22b",
			"xPresidentsVaultAddress()": "e47fd4c5"
		}
	},
	"abi": [
		{
			"inputs": [
				{
					"internalType": "address",
					"name": "_routerAddress",
					"type": "address"
				},
				{
					"internalType": "address",
					"name": "_treasuryAddress",
					"type": "address"
				},
				{
					"internalType": "address",
					"name": "_megaVaultAddress",
					"type": "address"
				},
				{
					"internalType": "address",
					"name": "_xPresidentsVaultAddress",
					"type": "address"
				},
				{
					"internalType": "address",
					"name": "_WETH",
					"type": "address"
				},
				{
					"internalType": "address",
					"name": "_FMON",
					"type": "address"
				},
				{
					"internalType": "address",
					"name": "_usdToken",
					"type": "address"
				}
			],
			"stateMutability": "nonpayable",
			"type": "constructor"
		},
		{
			"inputs": [],
			"name": "AdminUserAlreadyAdded",
			"type": "error"
		},
		{
			"inputs": [],
			"name": "AdminUsersCantBeEmpty",
			"type": "error"
		},
		{
			"inputs": [],
			"name": "OwnerCantBeRemoved",
			"type": "error"
		},
		{
			"inputs": [],
			"name": "TooManyAdminUsers",
			"type": "error"
		},
		{
			"inputs": [],
			"name": "UserToRemoveIsNotAdmin",
			"type": "error"
		},
		{
			"anonymous": false,
			"inputs": [
				{
					"indexed": true,
					"internalType": "address",
					"name": "_adminUserAddress",
					"type": "address"
				}
			],
			"name": "AdminUserAdded",
			"type": "event"
		},
		{
			"anonymous": false,
			"inputs": [
				{
					"indexed": true,
					"internalType": "address",
					"name": "_adminUserAddress",
					"type": "address"
				}
			],
			"name": "AdminUserRemoved",
			"type": "event"
		},
		{
			"anonymous": false,
			"inputs": [],
			"name": "FeesChanged",
			"type": "event"
		},
		{
			"anonymous": false,
			"inputs": [
				{
					"indexed": false,
					"internalType": "address",
					"name": "sender",
					"type": "address"
				},
				{
					"indexed": false,
					"internalType": "address",
					"name": "oldOwner",
					"type": "address"
				},
				{
					"indexed": false,
					"internalType": "address",
					"name": "newOwner",
					"type": "address"
				}
			],
			"name": "LogActualOwner",
			"type": "event"
		},
		{
			"anonymous": false,
			"inputs": [
				{
					"indexed": true,
					"internalType": "address",
					"name": "_raffleOperator",
					"type": "address"
				},
				{
					"indexed": true,
					"internalType": "address",
					"name": "_winnerAddress",
					"type": "address"
				}
			],
			"name": "RaffleWinnerSetted",
			"type": "event"
		},
		{
			"inputs": [],
			"name": "FMON",
			"outputs": [
				{
					"internalType": "address",
					"name": "",
					"type": "address"
				}
			],
			"stateMutability": "view",
			"type": "function"
		},
		{
			"inputs": [],
			"name": "WETH",
			"outputs": [
				{
					"internalType": "address",
					"name": "",
					"type": "address"
				}
			],
			"stateMutability": "view",
			"type": "function"
		},
		{
			"inputs": [
				{
					"internalType": "address",
					"name": "adminUserToAdd",
					"type": "address"
				}
			],
			"name": "addAdminUser",
			"outputs": [],
			"stateMutability": "nonpayable",
			"type": "function"
		},
		{
			"inputs": [
				{
					"internalType": "address",
					"name": "_tokenToAddLiquidity",
					"type": "address"
				},
				{
					"internalType": "address",
					"name": "_liquidityProvider",
					"type": "address"
				},
				{
					"internalType": "uint256",
					"name": "_liquidityToAdd",
					"type": "uint256"
				}
			],
			"name": "addLiquidity",
			"outputs": [
				{
					"internalType": "bool",
					"name": "_success",
					"type": "bool"
				}
			],
			"stateMutability": "nonpayable",
			"type": "function"
		},
		{
			"inputs": [
				{
					"internalType": "uint256",
					"name": "_amountToBuyTickets",
					"type": "uint256"
				},
				{
					"internalType": "address",
					"name": "_tokenToUseToBuyTickets",
					"type": "address"
				}
			],
			"name": "buyTicketsToPlay",
			"outputs": [
				{
					"internalType": "bool",
					"name": "_success",
					"type": "bool"
				}
			],
			"stateMutability": "payable",
			"type": "function"
		},
		{
			"inputs": [
				{
					"internalType": "address",
					"name": "_raffleOperator",
					"type": "address"
				}
			],
			"name": "cancelRaffleOperator",
			"outputs": [
				{
					"internalType": "bool",
					"name": "_success",
					"type": "bool"
				}
			],
			"stateMutability": "nonpayable",
			"type": "function"
		},
		{
			"inputs": [
				{
					"internalType": "address",
					"name": "_raffleOperator",
					"type": "address"
				},
				{
					"internalType": "address",
					"name": "_raffleWinnerPlayer",
					"type": "address"
				},
				{
					"internalType": "uint256",
					"name": "_operatorPrizeToDistributeInUSD",
					"type": "uint256"
				}
			],
			"name": "distributeRaffleOperatorPrize",
			"outputs": [
				{
					"internalType": "bool",
					"name": "_transferSuccess",
					"type": "bool"
				}
			],
			"stateMutability": "nonpayable",
			"type": "function"
		},
		{
			"inputs": [],
			"name": "getCurrentAdminUsers",
			"outputs": [
				{
					"internalType": "address[]",
					"name": "_currentAdminUsers",
					"type": "address[]"
				}
			],
			"stateMutability": "view",
			"type": "function"
		},
		{
			"inputs": [
				{
					"internalType": "address",
					"name": "_tokenA",
					"type": "address"
				}
			],
			"name": "getCurrentPriceOfTokenByETHInUSDC",
			"outputs": [
				{
					"internalType": "uint256",
					"name": "_currentPriceOfTokenWithoutDecimalsInUSD",
					"type": "uint256"
				}
			],
			"stateMutability": "view",
			"type": "function"
		},
		{
			"inputs": [],
			"name": "getETHLatestPrice",
			"outputs": [
				{
					"internalType": "int256",
					"name": "",
					"type": "int256"
				}
			],
			"stateMutability": "view",
			"type": "function"
		},
		{
			"inputs": [],
			"name": "getETHPriceDecimals",
			"outputs": [
				{
					"internalType": "uint8",
					"name": "",
					"type": "uint8"
				}
			],
			"stateMutability": "view",
			"type": "function"
		},
		{
			"inputs": [
				{
					"internalType": "address",
					"name": "userToCheck",
					"type": "address"
				}
			],
			"name": "getIfUserIsAdmin",
			"outputs": [
				{
					"internalType": "bool",
					"name": "_userIsAdmin",
					"type": "bool"
				}
			],
			"stateMutability": "view",
			"type": "function"
		},
		{
			"inputs": [
				{
					"internalType": "address",
					"name": "",
					"type": "address"
				}
			],
			"name": "isAdminUser",
			"outputs": [
				{
					"internalType": "bool",
					"name": "",
					"type": "bool"
				}
			],
			"stateMutability": "view",
			"type": "function"
		},
		{
			"inputs": [
				{
					"internalType": "address",
					"name": "account",
					"type": "address"
				}
			],
			"name": "isBot",
			"outputs": [
				{
					"internalType": "bool",
					"name": "_isABot",
					"type": "bool"
				}
			],
			"stateMutability": "view",
			"type": "function"
		},
		{
			"inputs": [],
			"name": "megaVaultAddress",
			"outputs": [
				{
					"internalType": "address",
					"name": "",
					"type": "address"
				}
			],
			"stateMutability": "view",
			"type": "function"
		},
		{
			"inputs": [],
			"name": "operatorFees",
			"outputs": [
				{
					"internalType": "uint256",
					"name": "megaVault",
					"type": "uint256"
				},
				{
					"internalType": "uint256",
					"name": "treasury",
					"type": "uint256"
				},
				{
					"internalType": "uint256",
					"name": "xPresidentsVault",
					"type": "uint256"
				}
			],
			"stateMutability": "view",
			"type": "function"
		},
		{
			"inputs": [],
			"name": "owner",
			"outputs": [
				{
					"internalType": "address",
					"name": "",
					"type": "address"
				}
			],
			"stateMutability": "view",
			"type": "function"
		},
		{
			"inputs": [],
			"name": "prizePercentageToWinner",
			"outputs": [
				{
					"internalType": "uint256",
					"name": "",
					"type": "uint256"
				}
			],
			"stateMutability": "view",
			"type": "function"
		},
		{
			"inputs": [
				{
					"internalType": "address",
					"name": "",
					"type": "address"
				}
			],
			"name": "raffleOperator",
			"outputs": [
				{
					"internalType": "bool",
					"name": "isRunning",
					"type": "bool"
				},
				{
					"internalType": "address",
					"name": "raffleWinner",
					"type": "address"
				},
				{
					"internalType": "uint256",
					"name": "prizeAmountInUSD",
					"type": "uint256"
				},
				{
					"internalType": "bool",
					"name": "isRaffleOperator",
					"type": "bool"
				},
				{
					"internalType": "uint256",
					"name": "minNumberOfPlayers",
					"type": "uint256"
				},
				{
					"internalType": "uint256",
					"name": "currentNumOfRegisteredPlayers",
					"type": "uint256"
				}
			],
			"stateMutability": "view",
			"type": "function"
		},
		{
			"inputs": [
				{
					"internalType": "address",
					"name": "adminUserToRemove",
					"type": "address"
				}
			],
			"name": "removeAdminUser",
			"outputs": [],
			"stateMutability": "nonpayable",
			"type": "function"
		},
		{
			"inputs": [
				{
					"internalType": "address",
					"name": "_tokenToRemoveLiquidity",
					"type": "address"
				},
				{
					"internalType": "uint256",
					"name": "_liquidityToRemove",
					"type": "uint256"
				},
				{
					"internalType": "address",
					"name": "_liquidityReceiver",
					"type": "address"
				}
			],
			"name": "removeLiquidity",
			"outputs": [
				{
					"internalType": "bool",
					"name": "_removeLiquiditySuccess",
					"type": "bool"
				}
			],
			"stateMutability": "nonpayable",
			"type": "function"
		},
		{
			"inputs": [],
			"name": "router",
			"outputs": [
				{
					"internalType": "contract IRouter",
					"name": "",
					"type": "address"
				}
			],
			"stateMutability": "view",
			"type": "function"
		},
		{
			"inputs": [
				{
					"internalType": "address",
					"name": "account",
					"type": "address"
				},
				{
					"internalType": "bool",
					"name": "state",
					"type": "bool"
				}
			],
			"name": "setAntibot",
			"outputs": [],
			"stateMutability": "nonpayable",
			"type": "function"
		},
		{
			"inputs": [
				{
					"internalType": "address",
					"name": "_raffleOperator",
					"type": "address"
				},
				{
					"internalType": "uint256",
					"name": "_prizeAmountInUSD",
					"type": "uint256"
				},
				{
					"internalType": "uint256",
					"name": "_minNumberOfPlayers",
					"type": "uint256"
				}
			],
			"name": "setNewRaffleOperator",
			"outputs": [
				{
					"internalType": "bool",
					"name": "_success",
					"type": "bool"
				}
			],
			"stateMutability": "nonpayable",
			"type": "function"
		},
		{
			"inputs": [
				{
					"internalType": "uint256",
					"name": "_prizePercentageToWinner",
					"type": "uint256"
				},
				{
					"internalType": "uint256",
					"name": "_megaVault",
					"type": "uint256"
				},
				{
					"internalType": "uint256",
					"name": "_treasury",
					"type": "uint256"
				},
				{
					"internalType": "uint256",
					"name": "_xPresidentsVault",
					"type": "uint256"
				}
			],
			"name": "setOperatorPercentages",
			"outputs": [],
			"stateMutability": "nonpayable",
			"type": "function"
		},
		{
			"inputs": [
				{
					"internalType": "address",
					"name": "_raffleOperator",
					"type": "address"
				},
				{
					"internalType": "address",
					"name": "_player",
					"type": "address"
				},
				{
					"internalType": "address",
					"name": "_tokenUsedToPay",
					"type": "address"
				},
				{
					"internalType": "uint256",
					"name": "_tokenAmountPayed",
					"type": "uint256"
				}
			],
			"name": "setPlayersToReturnMoney",
			"outputs": [
				{
					"internalType": "bool",
					"name": "_success",
					"type": "bool"
				}
			],
			"stateMutability": "nonpayable",
			"type": "function"
		},
		{
			"inputs": [
				{
					"internalType": "address",
					"name": "_raffleOperator",
					"type": "address"
				},
				{
					"internalType": "address",
					"name": "_raffleWinnerPlayer",
					"type": "address"
				}
			],
			"name": "setRaffleOperatorWinner",
			"outputs": [
				{
					"internalType": "bool",
					"name": "_success",
					"type": "bool"
				}
			],
			"stateMutability": "nonpayable",
			"type": "function"
		},
		{
			"inputs": [],
			"name": "treasuryAddress",
			"outputs": [
				{
					"internalType": "address",
					"name": "",
					"type": "address"
				}
			],
			"stateMutability": "view",
			"type": "function"
		},
		{
			"inputs": [
				{
					"internalType": "address",
					"name": "newWallet",
					"type": "address"
				}
			],
			"name": "updateMegaVaultWallet",
			"outputs": [],
			"stateMutability": "nonpayable",
			"type": "function"
		},
		{
			"inputs": [
				{
					"internalType": "address",
					"name": "newWallet",
					"type": "address"
				}
			],
			"name": "updateTreasuryWallet",
			"outputs": [],
			"stateMutability": "nonpayable",
			"type": "function"
		},
		{
			"inputs": [
				{
					"internalType": "address",
					"name": "newWallet",
					"type": "address"
				}
			],
			"name": "updateXPresidentsVaultWallet",
			"outputs": [],
			"stateMutability": "nonpayable",
			"type": "function"
		},
		{
			"inputs": [],
			"name": "usdToken",
			"outputs": [
				{
					"internalType": "address",
					"name": "",
					"type": "address"
				}
			],
			"stateMutability": "view",
			"type": "function"
		},
		{
			"inputs": [],
			"name": "xPresidentsVaultAddress",
			"outputs": [
				{
					"internalType": "address",
					"name": "",
					"type": "address"
				}
			],
			"stateMutability": "view",
			"type": "function"
		}
	]
}