{
	"data": {
		"bytecode": {
			"linkReferences": {},
			"object": "60a060405260048054600160a01b600160f01b0319167b9c40000300000001000000000000000000000000000000000000000017905560058054600160201b600160c01b031916772ca8e0c643bde4c2e08ab1fa0da3401adad7734d000000001790557f79d3d8832d904592c0bf9818b621522c988bb8b0c05cdc3b15aea1b6e8db0c1560065534801561009257600080fd5b50604051610b85380380610b858339810160408190526100b191610124565b60055464010000000090046001600160a01b03908116608081905260038054600480546001600160a01b03191696909416959095179092556001600160e01b0319909316680100000000000000009093026001600160401b031916929092176001600160401b0391909116179055610176565b6000806040838503121561013757600080fd5b82516001600160a01b038116811461014e57600080fd5b60208401519092506001600160401b038116811461016b57600080fd5b809150509250929050565b6080516109ed6101986000396000818161019a01526101dc01526109ed6000f3fe608060405234801561001057600080fd5b506004361061007d5760003560e01c8063bf07a8891161005b578063bf07a889146100d2578063c2b8d761146100f3578063dcee3b2a146100fd578063fbc283351461011d57600080fd5b80631d09da46146100825780631fe543e3146100aa5780634ce585c0146100bf575b600080fd5b610095610090366004610760565b610130565b60405190151581526020015b60405180910390f35b6100bd6100b83660046107a0565b61018f565b005b6100956100cd36600461086a565b61021c565b6100e56100e036600461086a565b6102ce565b6040519081526020016100a1565b6100e56230d40081565b61011061010b36600461086a565b6103a3565b6040516100a1919061088c565b6100e561012b36600461086a565b61040f565b6000336001600160a01b0384161461015a576040516282b42960e81b815260040160405180910390fd5b506001600160a01b03821660009081526002602090815260408220805460018181018355918452919092200182905592915050565b336001600160a01b037f0000000000000000000000000000000000000000000000000000000000000000161461020e5760405163073e64fd60e21b81523360048201526001600160a01b037f00000000000000000000000000000000000000000000000000000000000000001660248201526044015b60405180910390fd5b6102188282610697565b5050565b6004546000906001600160a01b031633146102495760405162461bcd60e51b8152600401610205906108d0565b6001600160a01b0382166000908152600160205260409020546230d3ff19016102a95760405162461bcd60e51b8152602060048201526012602482015271526166666c6520696e2070726f677265737360701b6044820152606401610205565b506001600160a01b03811660009081526001602081905260408220919091555b919050565b6004546000906001600160a01b031633146102fb5760405162461bcd60e51b8152600401610205906108d0565b6001600160a01b038216600090815260016020526040812054900361035a5760405162461bcd60e51b8152602060048201526015602482015274149859999b19481b9bdd081cdd589cd8dc9a589959605a1b6044820152606401610205565b6001600160a01b0382166000908152600160205260409020546230d3ff190161038757506230d400919050565b506001600160a01b031660009081526001602052604090205490565b6001600160a01b03811660009081526002602090815260409182902080548351818402810184019094528084526060939283018282801561040357602002820191906000526020600020905b8154815260200190600101908083116103ef575b50505050509050919050565b6004546000906001600160a01b0316331461043c5760405162461bcd60e51b8152600401610205906108d0565b816000816001600160a01b031663d85bd5266040518163ffffffff1660e01b8152600401602060405180830381865afa15801561047d573d6000803e3d6000fd5b505050506040513d601f19601f820116820180604052508101906104a191906108ff565b90506001811515146104eb5760405162461bcd60e51b8152602060048201526013602482015272149859999b19481dd85cc8199a5b9a5cda1959606a1b6044820152606401610205565b6001600160a01b038416600090815260016020526040902054156105415760405162461bcd60e51b815260206004820152600d60248201526c20b63932b0b23c90323930bbb760991b6044820152606401610205565b600354600654600480546040516305d3b1d360e41b81529182019290925267ffffffffffffffff83166024820152600160c01b820461ffff166044820152600160d01b820463ffffffff9081166064830152600160a01b9092049091166084820152680100000000000000009091046001600160a01b031690635d3b1d309060a4016020604051808303816000875af11580156105e2573d6000803e3d6000fd5b505050506040513d601f19601f820116820180604052508101906106069190610921565b6001600160a01b0385166000818152600260209081526040808320546005805463ffffffff191663ffffffff90921691909117905584835282825280832080546001600160a01b0319168517905583835260019091528082206230d400905551929550909185917ffcfd2029603efc58ed0401c4a7099ee9d37ccfbe43d68fd2361b0689f4550c2891a35050919050565b600554815160009163ffffffff1690839083906106b6576106b661093a565b60200260200101516106c89190610950565b6106d3906001610988565b600084815260208181526040808320546001600160a01b0316835260029091528120919250906107046001846109a0565b815481106107145761071461093a565b60009182526020808320909101549582528181526040808320546001600160a01b031683526001909152902093909355505050565b80356001600160a01b03811681146102c957600080fd5b6000806040838503121561077357600080fd5b61077c83610749565b946020939093013593505050565b634e487b7160e01b600052604160045260246000fd5b600080604083850312156107b357600080fd5b8235915060208084013567ffffffffffffffff808211156107d357600080fd5b818601915086601f8301126107e757600080fd5b8135818111156107f9576107f961078a565b8060051b604051601f19603f8301168101818110858211171561081e5761081e61078a565b60405291825284820192508381018501918983111561083c57600080fd5b938501935b8285101561085a57843584529385019392850192610841565b8096505050505050509250929050565b60006020828403121561087c57600080fd5b61088582610749565b9392505050565b6020808252825182820181905260009190848201906040850190845b818110156108c4578351835292840192918401916001016108a8565b50909695505050505050565b6020808252601590820152742cb7ba9030b932903737ba103a34329037bbb732b960591b604082015260600190565b60006020828403121561091157600080fd5b8151801515811461088557600080fd5b60006020828403121561093357600080fd5b5051919050565b634e487b7160e01b600052603260045260246000fd5b60008261096d57634e487b7160e01b600052601260045260246000fd5b500690565b634e487b7160e01b600052601160045260246000fd5b6000821982111561099b5761099b610972565b500190565b6000828210156109b2576109b2610972565b50039056fea26469706673582212200efe4be9bf8a6550d447e9845de0d656a075e9a4b0d6e0c6a9471cb1d0fbfdb464736f6c634300080e0033",
			"opcodes": "PUSH1 0xA0 PUSH1 0x40 MSTORE PUSH1 0x4 DUP1 SLOAD PUSH1 0x1 PUSH1 0xA0 SHL PUSH1 0x1 PUSH1 0xF0 SHL SUB NOT AND PUSH28 0x9C400003000000010000000000000000000000000000000000000000 OR SWAP1 SSTORE PUSH1 0x5 DUP1 SLOAD PUSH1 0x1 PUSH1 0x20 SHL PUSH1 0x1 PUSH1 0xC0 SHL SUB NOT AND PUSH24 0x2CA8E0C643BDE4C2E08AB1FA0DA3401ADAD7734D00000000 OR SWAP1 SSTORE PUSH32 0x79D3D8832D904592C0BF9818B621522C988BB8B0C05CDC3B15AEA1B6E8DB0C15 PUSH1 0x6 SSTORE CALLVALUE DUP1 ISZERO PUSH2 0x92 JUMPI PUSH1 0x0 DUP1 REVERT JUMPDEST POP PUSH1 0x40 MLOAD PUSH2 0xB85 CODESIZE SUB DUP1 PUSH2 0xB85 DUP4 CODECOPY DUP2 ADD PUSH1 0x40 DUP2 SWAP1 MSTORE PUSH2 0xB1 SWAP2 PUSH2 0x124 JUMP JUMPDEST PUSH1 0x5 SLOAD PUSH5 0x100000000 SWAP1 DIV PUSH1 0x1 PUSH1 0x1 PUSH1 0xA0 SHL SUB SWAP1 DUP2 AND PUSH1 0x80 DUP2 SWAP1 MSTORE PUSH1 0x3 DUP1 SLOAD PUSH1 0x4 DUP1 SLOAD PUSH1 0x1 PUSH1 0x1 PUSH1 0xA0 SHL SUB NOT AND SWAP7 SWAP1 SWAP5 AND SWAP6 SWAP1 SWAP6 OR SWAP1 SWAP3 SSTORE PUSH1 0x1 PUSH1 0x1 PUSH1 0xE0 SHL SUB NOT SWAP1 SWAP4 AND PUSH9 0x10000000000000000 SWAP1 SWAP4 MUL PUSH1 0x1 PUSH1 0x1 PUSH1 0x40 SHL SUB NOT AND SWAP3 SWAP1 SWAP3 OR PUSH1 0x1 PUSH1 0x1 PUSH1 0x40 SHL SUB SWAP2 SWAP1 SWAP2 AND OR SWAP1 SSTORE PUSH2 0x176 JUMP JUMPDEST PUSH1 0x0 DUP1 PUSH1 0x40 DUP4 DUP6 SUB SLT ISZERO PUSH2 0x137 JUMPI PUSH1 0x0 DUP1 REVERT JUMPDEST DUP3 MLOAD PUSH1 0x1 PUSH1 0x1 PUSH1 0xA0 SHL SUB DUP2 AND DUP2 EQ PUSH2 0x14E JUMPI PUSH1 0x0 DUP1 REVERT JUMPDEST PUSH1 0x20 DUP5 ADD MLOAD SWAP1 SWAP3 POP PUSH1 0x1 PUSH1 0x1 PUSH1 0x40 SHL SUB DUP2 AND DUP2 EQ PUSH2 0x16B JUMPI PUSH1 0x0 DUP1 REVERT JUMPDEST DUP1 SWAP2 POP POP SWAP3 POP SWAP3 SWAP1 POP JUMP JUMPDEST PUSH1 0x80 MLOAD PUSH2 0x9ED PUSH2 0x198 PUSH1 0x0 CODECOPY PUSH1 0x0 DUP2 DUP2 PUSH2 0x19A ADD MSTORE PUSH2 0x1DC ADD MSTORE PUSH2 0x9ED PUSH1 0x0 RETURN INVALID PUSH1 0x80 PUSH1 0x40 MSTORE CALLVALUE DUP1 ISZERO PUSH2 0x10 JUMPI PUSH1 0x0 DUP1 REVERT JUMPDEST POP PUSH1 0x4 CALLDATASIZE LT PUSH2 0x7D JUMPI PUSH1 0x0 CALLDATALOAD PUSH1 0xE0 SHR DUP1 PUSH4 0xBF07A889 GT PUSH2 0x5B JUMPI DUP1 PUSH4 0xBF07A889 EQ PUSH2 0xD2 JUMPI DUP1 PUSH4 0xC2B8D761 EQ PUSH2 0xF3 JUMPI DUP1 PUSH4 0xDCEE3B2A EQ PUSH2 0xFD JUMPI DUP1 PUSH4 0xFBC28335 EQ PUSH2 0x11D JUMPI PUSH1 0x0 DUP1 REVERT JUMPDEST DUP1 PUSH4 0x1D09DA46 EQ PUSH2 0x82 JUMPI DUP1 PUSH4 0x1FE543E3 EQ PUSH2 0xAA JUMPI DUP1 PUSH4 0x4CE585C0 EQ PUSH2 0xBF JUMPI JUMPDEST PUSH1 0x0 DUP1 REVERT JUMPDEST PUSH2 0x95 PUSH2 0x90 CALLDATASIZE PUSH1 0x4 PUSH2 0x760 JUMP JUMPDEST PUSH2 0x130 JUMP JUMPDEST PUSH1 0x40 MLOAD SWAP1 ISZERO ISZERO DUP2 MSTORE PUSH1 0x20 ADD JUMPDEST PUSH1 0x40 MLOAD DUP1 SWAP2 SUB SWAP1 RETURN JUMPDEST PUSH2 0xBD PUSH2 0xB8 CALLDATASIZE PUSH1 0x4 PUSH2 0x7A0 JUMP JUMPDEST PUSH2 0x18F JUMP JUMPDEST STOP JUMPDEST PUSH2 0x95 PUSH2 0xCD CALLDATASIZE PUSH1 0x4 PUSH2 0x86A JUMP JUMPDEST PUSH2 0x21C JUMP JUMPDEST PUSH2 0xE5 PUSH2 0xE0 CALLDATASIZE PUSH1 0x4 PUSH2 0x86A JUMP JUMPDEST PUSH2 0x2CE JUMP JUMPDEST PUSH1 0x40 MLOAD SWAP1 DUP2 MSTORE PUSH1 0x20 ADD PUSH2 0xA1 JUMP JUMPDEST PUSH2 0xE5 PUSH3 0x30D400 DUP2 JUMP JUMPDEST PUSH2 0x110 PUSH2 0x10B CALLDATASIZE PUSH1 0x4 PUSH2 0x86A JUMP JUMPDEST PUSH2 0x3A3 JUMP JUMPDEST PUSH1 0x40 MLOAD PUSH2 0xA1 SWAP2 SWAP1 PUSH2 0x88C JUMP JUMPDEST PUSH2 0xE5 PUSH2 0x12B CALLDATASIZE PUSH1 0x4 PUSH2 0x86A JUMP JUMPDEST PUSH2 0x40F JUMP JUMPDEST PUSH1 0x0 CALLER PUSH1 0x1 PUSH1 0x1 PUSH1 0xA0 SHL SUB DUP5 AND EQ PUSH2 0x15A JUMPI PUSH1 0x40 MLOAD PUSH3 0x82B429 PUSH1 0xE8 SHL DUP2 MSTORE PUSH1 0x4 ADD PUSH1 0x40 MLOAD DUP1 SWAP2 SUB SWAP1 REVERT JUMPDEST POP PUSH1 0x1 PUSH1 0x1 PUSH1 0xA0 SHL SUB DUP3 AND PUSH1 0x0 SWAP1 DUP2 MSTORE PUSH1 0x2 PUSH1 0x20 SWAP1 DUP2 MSTORE PUSH1 0x40 DUP3 KECCAK256 DUP1 SLOAD PUSH1 0x1 DUP2 DUP2 ADD DUP4 SSTORE SWAP2 DUP5 MSTORE SWAP2 SWAP1 SWAP3 KECCAK256 ADD DUP3 SWAP1 SSTORE SWAP3 SWAP2 POP POP JUMP JUMPDEST CALLER PUSH1 0x1 PUSH1 0x1 PUSH1 0xA0 SHL SUB PUSH32 0x0 AND EQ PUSH2 0x20E JUMPI PUSH1 0x40 MLOAD PUSH4 0x73E64FD PUSH1 0xE2 SHL DUP2 MSTORE CALLER PUSH1 0x4 DUP3 ADD MSTORE PUSH1 0x1 PUSH1 0x1 PUSH1 0xA0 SHL SUB PUSH32 0x0 AND PUSH1 0x24 DUP3 ADD MSTORE PUSH1 0x44 ADD JUMPDEST PUSH1 0x40 MLOAD DUP1 SWAP2 SUB SWAP1 REVERT JUMPDEST PUSH2 0x218 DUP3 DUP3 PUSH2 0x697 JUMP JUMPDEST POP POP JUMP JUMPDEST PUSH1 0x4 SLOAD PUSH1 0x0 SWAP1 PUSH1 0x1 PUSH1 0x1 PUSH1 0xA0 SHL SUB AND CALLER EQ PUSH2 0x249 JUMPI PUSH1 0x40 MLOAD PUSH3 0x461BCD PUSH1 0xE5 SHL DUP2 MSTORE PUSH1 0x4 ADD PUSH2 0x205 SWAP1 PUSH2 0x8D0 JUMP JUMPDEST PUSH1 0x1 PUSH1 0x1 PUSH1 0xA0 SHL SUB DUP3 AND PUSH1 0x0 SWAP1 DUP2 MSTORE PUSH1 0x1 PUSH1 0x20 MSTORE PUSH1 0x40 SWAP1 KECCAK256 SLOAD PUSH3 0x30D3FF NOT ADD PUSH2 0x2A9 JUMPI PUSH1 0x40 MLOAD PUSH3 0x461BCD PUSH1 0xE5 SHL DUP2 MSTORE PUSH1 0x20 PUSH1 0x4 DUP3 ADD MSTORE PUSH1 0x12 PUSH1 0x24 DUP3 ADD MSTORE PUSH18 0x526166666C6520696E2070726F6772657373 PUSH1 0x70 SHL PUSH1 0x44 DUP3 ADD MSTORE PUSH1 0x64 ADD PUSH2 0x205 JUMP JUMPDEST POP PUSH1 0x1 PUSH1 0x1 PUSH1 0xA0 SHL SUB DUP2 AND PUSH1 0x0 SWAP1 DUP2 MSTORE PUSH1 0x1 PUSH1 0x20 DUP2 SWAP1 MSTORE PUSH1 0x40 DUP3 KECCAK256 SWAP2 SWAP1 SWAP2 SSTORE JUMPDEST SWAP2 SWAP1 POP JUMP JUMPDEST PUSH1 0x4 SLOAD PUSH1 0x0 SWAP1 PUSH1 0x1 PUSH1 0x1 PUSH1 0xA0 SHL SUB AND CALLER EQ PUSH2 0x2FB JUMPI PUSH1 0x40 MLOAD PUSH3 0x461BCD PUSH1 0xE5 SHL DUP2 MSTORE PUSH1 0x4 ADD PUSH2 0x205 SWAP1 PUSH2 0x8D0 JUMP JUMPDEST PUSH1 0x1 PUSH1 0x1 PUSH1 0xA0 SHL SUB DUP3 AND PUSH1 0x0 SWAP1 DUP2 MSTORE PUSH1 0x1 PUSH1 0x20 MSTORE PUSH1 0x40 DUP2 KECCAK256 SLOAD SWAP1 SUB PUSH2 0x35A JUMPI PUSH1 0x40 MLOAD PUSH3 0x461BCD PUSH1 0xE5 SHL DUP2 MSTORE PUSH1 0x20 PUSH1 0x4 DUP3 ADD MSTORE PUSH1 0x15 PUSH1 0x24 DUP3 ADD MSTORE PUSH21 0x149859999B19481B9BDD081CDD589CD8DC9A589959 PUSH1 0x5A SHL PUSH1 0x44 DUP3 ADD MSTORE PUSH1 0x64 ADD PUSH2 0x205 JUMP JUMPDEST PUSH1 0x1 PUSH1 0x1 PUSH1 0xA0 SHL SUB DUP3 AND PUSH1 0x0 SWAP1 DUP2 MSTORE PUSH1 0x1 PUSH1 0x20 MSTORE PUSH1 0x40 SWAP1 KECCAK256 SLOAD PUSH3 0x30D3FF NOT ADD PUSH2 0x387 JUMPI POP PUSH3 0x30D400 SWAP2 SWAP1 POP JUMP JUMPDEST POP PUSH1 0x1 PUSH1 0x1 PUSH1 0xA0 SHL SUB AND PUSH1 0x0 SWAP1 DUP2 MSTORE PUSH1 0x1 PUSH1 0x20 MSTORE PUSH1 0x40 SWAP1 KECCAK256 SLOAD SWAP1 JUMP JUMPDEST PUSH1 0x1 PUSH1 0x1 PUSH1 0xA0 SHL SUB DUP2 AND PUSH1 0x0 SWAP1 DUP2 MSTORE PUSH1 0x2 PUSH1 0x20 SWAP1 DUP2 MSTORE PUSH1 0x40 SWAP2 DUP3 SWAP1 KECCAK256 DUP1 SLOAD DUP4 MLOAD DUP2 DUP5 MUL DUP2 ADD DUP5 ADD SWAP1 SWAP5 MSTORE DUP1 DUP5 MSTORE PUSH1 0x60 SWAP4 SWAP3 DUP4 ADD DUP3 DUP3 DUP1 ISZERO PUSH2 0x403 JUMPI PUSH1 0x20 MUL DUP3 ADD SWAP2 SWAP1 PUSH1 0x0 MSTORE PUSH1 0x20 PUSH1 0x0 KECCAK256 SWAP1 JUMPDEST DUP2 SLOAD DUP2 MSTORE PUSH1 0x20 ADD SWAP1 PUSH1 0x1 ADD SWAP1 DUP1 DUP4 GT PUSH2 0x3EF JUMPI JUMPDEST POP POP POP POP POP SWAP1 POP SWAP2 SWAP1 POP JUMP JUMPDEST PUSH1 0x4 SLOAD PUSH1 0x0 SWAP1 PUSH1 0x1 PUSH1 0x1 PUSH1 0xA0 SHL SUB AND CALLER EQ PUSH2 0x43C JUMPI PUSH1 0x40 MLOAD PUSH3 0x461BCD PUSH1 0xE5 SHL DUP2 MSTORE PUSH1 0x4 ADD PUSH2 0x205 SWAP1 PUSH2 0x8D0 JUMP JUMPDEST DUP2 PUSH1 0x0 DUP2 PUSH1 0x1 PUSH1 0x1 PUSH1 0xA0 SHL SUB AND PUSH4 0xD85BD526 PUSH1 0x40 MLOAD DUP2 PUSH4 0xFFFFFFFF AND PUSH1 0xE0 SHL DUP2 MSTORE PUSH1 0x4 ADD PUSH1 0x20 PUSH1 0x40 MLOAD DUP1 DUP4 SUB DUP2 DUP7 GAS STATICCALL ISZERO DUP1 ISZERO PUSH2 0x47D JUMPI RETURNDATASIZE PUSH1 0x0 DUP1 RETURNDATACOPY RETURNDATASIZE PUSH1 0x0 REVERT JUMPDEST POP POP POP POP PUSH1 0x40 MLOAD RETURNDATASIZE PUSH1 0x1F NOT PUSH1 0x1F DUP3 ADD AND DUP3 ADD DUP1 PUSH1 0x40 MSTORE POP DUP2 ADD SWAP1 PUSH2 0x4A1 SWAP2 SWAP1 PUSH2 0x8FF JUMP JUMPDEST SWAP1 POP PUSH1 0x1 DUP2 ISZERO ISZERO EQ PUSH2 0x4EB JUMPI PUSH1 0x40 MLOAD PUSH3 0x461BCD PUSH1 0xE5 SHL DUP2 MSTORE PUSH1 0x20 PUSH1 0x4 DUP3 ADD MSTORE PUSH1 0x13 PUSH1 0x24 DUP3 ADD MSTORE PUSH19 0x149859999B19481DD85CC8199A5B9A5CDA1959 PUSH1 0x6A SHL PUSH1 0x44 DUP3 ADD MSTORE PUSH1 0x64 ADD PUSH2 0x205 JUMP JUMPDEST PUSH1 0x1 PUSH1 0x1 PUSH1 0xA0 SHL SUB DUP5 AND PUSH1 0x0 SWAP1 DUP2 MSTORE PUSH1 0x1 PUSH1 0x20 MSTORE PUSH1 0x40 SWAP1 KECCAK256 SLOAD ISZERO PUSH2 0x541 JUMPI PUSH1 0x40 MLOAD PUSH3 0x461BCD PUSH1 0xE5 SHL DUP2 MSTORE PUSH1 0x20 PUSH1 0x4 DUP3 ADD MSTORE PUSH1 0xD PUSH1 0x24 DUP3 ADD MSTORE PUSH13 0x20B63932B0B23C90323930BBB7 PUSH1 0x99 SHL PUSH1 0x44 DUP3 ADD MSTORE PUSH1 0x64 ADD PUSH2 0x205 JUMP JUMPDEST PUSH1 0x3 SLOAD PUSH1 0x6 SLOAD PUSH1 0x4 DUP1 SLOAD PUSH1 0x40 MLOAD PUSH4 0x5D3B1D3 PUSH1 0xE4 SHL DUP2 MSTORE SWAP2 DUP3 ADD SWAP3 SWAP1 SWAP3 MSTORE PUSH8 0xFFFFFFFFFFFFFFFF DUP4 AND PUSH1 0x24 DUP3 ADD MSTORE PUSH1 0x1 PUSH1 0xC0 SHL DUP3 DIV PUSH2 0xFFFF AND PUSH1 0x44 DUP3 ADD MSTORE PUSH1 0x1 PUSH1 0xD0 SHL DUP3 DIV PUSH4 0xFFFFFFFF SWAP1 DUP2 AND PUSH1 0x64 DUP4 ADD MSTORE PUSH1 0x1 PUSH1 0xA0 SHL SWAP1 SWAP3 DIV SWAP1 SWAP2 AND PUSH1 0x84 DUP3 ADD MSTORE PUSH9 0x10000000000000000 SWAP1 SWAP2 DIV PUSH1 0x1 PUSH1 0x1 PUSH1 0xA0 SHL SUB AND SWAP1 PUSH4 0x5D3B1D30 SWAP1 PUSH1 0xA4 ADD PUSH1 0x20 PUSH1 0x40 MLOAD DUP1 DUP4 SUB DUP2 PUSH1 0x0 DUP8 GAS CALL ISZERO DUP1 ISZERO PUSH2 0x5E2 JUMPI RETURNDATASIZE PUSH1 0x0 DUP1 RETURNDATACOPY RETURNDATASIZE PUSH1 0x0 REVERT JUMPDEST POP POP POP POP PUSH1 0x40 MLOAD RETURNDATASIZE PUSH1 0x1F NOT PUSH1 0x1F DUP3 ADD AND DUP3 ADD DUP1 PUSH1 0x40 MSTORE POP DUP2 ADD SWAP1 PUSH2 0x606 SWAP2 SWAP1 PUSH2 0x921 JUMP JUMPDEST PUSH1 0x1 PUSH1 0x1 PUSH1 0xA0 SHL SUB DUP6 AND PUSH1 0x0 DUP2 DUP2 MSTORE PUSH1 0x2 PUSH1 0x20 SWAP1 DUP2 MSTORE PUSH1 0x40 DUP1 DUP4 KECCAK256 SLOAD PUSH1 0x5 DUP1 SLOAD PUSH4 0xFFFFFFFF NOT AND PUSH4 0xFFFFFFFF SWAP1 SWAP3 AND SWAP2 SWAP1 SWAP2 OR SWAP1 SSTORE DUP5 DUP4 MSTORE DUP3 DUP3 MSTORE DUP1 DUP4 KECCAK256 DUP1 SLOAD PUSH1 0x1 PUSH1 0x1 PUSH1 0xA0 SHL SUB NOT AND DUP6 OR SWAP1 SSTORE DUP4 DUP4 MSTORE PUSH1 0x1 SWAP1 SWAP2 MSTORE DUP1 DUP3 KECCAK256 PUSH3 0x30D400 SWAP1 SSTORE MLOAD SWAP3 SWAP6 POP SWAP1 SWAP2 DUP6 SWAP2 PUSH32 0xFCFD2029603EFC58ED0401C4A7099EE9D37CCFBE43D68FD2361B0689F4550C28 SWAP2 LOG3 POP POP SWAP2 SWAP1 POP JUMP JUMPDEST PUSH1 0x5 SLOAD DUP2 MLOAD PUSH1 0x0 SWAP2 PUSH4 0xFFFFFFFF AND SWAP1 DUP4 SWAP1 DUP4 SWAP1 PUSH2 0x6B6 JUMPI PUSH2 0x6B6 PUSH2 0x93A JUMP JUMPDEST PUSH1 0x20 MUL PUSH1 0x20 ADD ADD MLOAD PUSH2 0x6C8 SWAP2 SWAP1 PUSH2 0x950 JUMP JUMPDEST PUSH2 0x6D3 SWAP1 PUSH1 0x1 PUSH2 0x988 JUMP JUMPDEST PUSH1 0x0 DUP5 DUP2 MSTORE PUSH1 0x20 DUP2 DUP2 MSTORE PUSH1 0x40 DUP1 DUP4 KECCAK256 SLOAD PUSH1 0x1 PUSH1 0x1 PUSH1 0xA0 SHL SUB AND DUP4 MSTORE PUSH1 0x2 SWAP1 SWAP2 MSTORE DUP2 KECCAK256 SWAP2 SWAP3 POP SWAP1 PUSH2 0x704 PUSH1 0x1 DUP5 PUSH2 0x9A0 JUMP JUMPDEST DUP2 SLOAD DUP2 LT PUSH2 0x714 JUMPI PUSH2 0x714 PUSH2 0x93A JUMP JUMPDEST PUSH1 0x0 SWAP2 DUP3 MSTORE PUSH1 0x20 DUP1 DUP4 KECCAK256 SWAP1 SWAP2 ADD SLOAD SWAP6 DUP3 MSTORE DUP2 DUP2 MSTORE PUSH1 0x40 DUP1 DUP4 KECCAK256 SLOAD PUSH1 0x1 PUSH1 0x1 PUSH1 0xA0 SHL SUB AND DUP4 MSTORE PUSH1 0x1 SWAP1 SWAP2 MSTORE SWAP1 KECCAK256 SWAP4 SWAP1 SWAP4 SSTORE POP POP POP JUMP JUMPDEST DUP1 CALLDATALOAD PUSH1 0x1 PUSH1 0x1 PUSH1 0xA0 SHL SUB DUP2 AND DUP2 EQ PUSH2 0x2C9 JUMPI PUSH1 0x0 DUP1 REVERT JUMPDEST PUSH1 0x0 DUP1 PUSH1 0x40 DUP4 DUP6 SUB SLT ISZERO PUSH2 0x773 JUMPI PUSH1 0x0 DUP1 REVERT JUMPDEST PUSH2 0x77C DUP4 PUSH2 0x749 JUMP JUMPDEST SWAP5 PUSH1 0x20 SWAP4 SWAP1 SWAP4 ADD CALLDATALOAD SWAP4 POP POP POP JUMP JUMPDEST PUSH4 0x4E487B71 PUSH1 0xE0 SHL PUSH1 0x0 MSTORE PUSH1 0x41 PUSH1 0x4 MSTORE PUSH1 0x24 PUSH1 0x0 REVERT JUMPDEST PUSH1 0x0 DUP1 PUSH1 0x40 DUP4 DUP6 SUB SLT ISZERO PUSH2 0x7B3 JUMPI PUSH1 0x0 DUP1 REVERT JUMPDEST DUP3 CALLDATALOAD SWAP2 POP PUSH1 0x20 DUP1 DUP5 ADD CALLDATALOAD PUSH8 0xFFFFFFFFFFFFFFFF DUP1 DUP3 GT ISZERO PUSH2 0x7D3 JUMPI PUSH1 0x0 DUP1 REVERT JUMPDEST DUP2 DUP7 ADD SWAP2 POP DUP7 PUSH1 0x1F DUP4 ADD SLT PUSH2 0x7E7 JUMPI PUSH1 0x0 DUP1 REVERT JUMPDEST DUP2 CALLDATALOAD DUP2 DUP2 GT ISZERO PUSH2 0x7F9 JUMPI PUSH2 0x7F9 PUSH2 0x78A JUMP JUMPDEST DUP1 PUSH1 0x5 SHL PUSH1 0x40 MLOAD PUSH1 0x1F NOT PUSH1 0x3F DUP4 ADD AND DUP2 ADD DUP2 DUP2 LT DUP6 DUP3 GT OR ISZERO PUSH2 0x81E JUMPI PUSH2 0x81E PUSH2 0x78A JUMP JUMPDEST PUSH1 0x40 MSTORE SWAP2 DUP3 MSTORE DUP5 DUP3 ADD SWAP3 POP DUP4 DUP2 ADD DUP6 ADD SWAP2 DUP10 DUP4 GT ISZERO PUSH2 0x83C JUMPI PUSH1 0x0 DUP1 REVERT JUMPDEST SWAP4 DUP6 ADD SWAP4 JUMPDEST DUP3 DUP6 LT ISZERO PUSH2 0x85A JUMPI DUP5 CALLDATALOAD DUP5 MSTORE SWAP4 DUP6 ADD SWAP4 SWAP3 DUP6 ADD SWAP3 PUSH2 0x841 JUMP JUMPDEST DUP1 SWAP7 POP POP POP POP POP POP POP SWAP3 POP SWAP3 SWAP1 POP JUMP JUMPDEST PUSH1 0x0 PUSH1 0x20 DUP3 DUP5 SUB SLT ISZERO PUSH2 0x87C JUMPI PUSH1 0x0 DUP1 REVERT JUMPDEST PUSH2 0x885 DUP3 PUSH2 0x749 JUMP JUMPDEST SWAP4 SWAP3 POP POP POP JUMP JUMPDEST PUSH1 0x20 DUP1 DUP3 MSTORE DUP3 MLOAD DUP3 DUP3 ADD DUP2 SWAP1 MSTORE PUSH1 0x0 SWAP2 SWAP1 DUP5 DUP3 ADD SWAP1 PUSH1 0x40 DUP6 ADD SWAP1 DUP5 JUMPDEST DUP2 DUP2 LT ISZERO PUSH2 0x8C4 JUMPI DUP4 MLOAD DUP4 MSTORE SWAP3 DUP5 ADD SWAP3 SWAP2 DUP5 ADD SWAP2 PUSH1 0x1 ADD PUSH2 0x8A8 JUMP JUMPDEST POP SWAP1 SWAP7 SWAP6 POP POP POP POP POP POP JUMP JUMPDEST PUSH1 0x20 DUP1 DUP3 MSTORE PUSH1 0x15 SWAP1 DUP3 ADD MSTORE PUSH21 0x2CB7BA9030B932903737BA103A34329037BBB732B9 PUSH1 0x59 SHL PUSH1 0x40 DUP3 ADD MSTORE PUSH1 0x60 ADD SWAP1 JUMP JUMPDEST PUSH1 0x0 PUSH1 0x20 DUP3 DUP5 SUB SLT ISZERO PUSH2 0x911 JUMPI PUSH1 0x0 DUP1 REVERT JUMPDEST DUP2 MLOAD DUP1 ISZERO ISZERO DUP2 EQ PUSH2 0x885 JUMPI PUSH1 0x0 DUP1 REVERT JUMPDEST PUSH1 0x0 PUSH1 0x20 DUP3 DUP5 SUB SLT ISZERO PUSH2 0x933 JUMPI PUSH1 0x0 DUP1 REVERT JUMPDEST POP MLOAD SWAP2 SWAP1 POP JUMP JUMPDEST PUSH4 0x4E487B71 PUSH1 0xE0 SHL PUSH1 0x0 MSTORE PUSH1 0x32 PUSH1 0x4 MSTORE PUSH1 0x24 PUSH1 0x0 REVERT JUMPDEST PUSH1 0x0 DUP3 PUSH2 0x96D JUMPI PUSH4 0x4E487B71 PUSH1 0xE0 SHL PUSH1 0x0 MSTORE PUSH1 0x12 PUSH1 0x4 MSTORE PUSH1 0x24 PUSH1 0x0 REVERT JUMPDEST POP MOD SWAP1 JUMP JUMPDEST PUSH4 0x4E487B71 PUSH1 0xE0 SHL PUSH1 0x0 MSTORE PUSH1 0x11 PUSH1 0x4 MSTORE PUSH1 0x24 PUSH1 0x0 REVERT JUMPDEST PUSH1 0x0 DUP3 NOT DUP3 GT ISZERO PUSH2 0x99B JUMPI PUSH2 0x99B PUSH2 0x972 JUMP JUMPDEST POP ADD SWAP1 JUMP JUMPDEST PUSH1 0x0 DUP3 DUP3 LT ISZERO PUSH2 0x9B2 JUMPI PUSH2 0x9B2 PUSH2 0x972 JUMP JUMPDEST POP SUB SWAP1 JUMP INVALID LOG2 PUSH5 0x6970667358 0x22 SLT KECCAK256 0xE INVALID 0x4B 0xE9 0xBF DUP11 PUSH6 0x50D447E9845D 0xE0 0xD6 JUMP LOG0 PUSH22 0xE9A4B0D6E0C6A9471CB1D0FBFDB464736F6C63430008 0xE STOP CALLER "
		},
		"gasEstimates": {
			"creation": {
				"codeDepositCost": "508200",
				"executionCost": "infinite",
				"totalCost": "infinite"
			},
			"external": {
				"RAFFLE_IN_PROGRESS()": "217",
				"getPlayerNumbers(address)": "infinite",
				"getRaffleWinnerNumber(address)": "9120",
				"launchRaffle(address)": "infinite",
				"rawFulfillRandomWords(uint256,uint256[])": "infinite",
				"restartRaffle(address)": "infinite",
				"setNewRafflePlayingSpot(address,uint256)": "46908"
			},
			"internal": {
				"fulfillRandomWords(uint256,uint256[] memory)": "infinite"
			}
		},
		"methodIdentifiers": {
			"RAFFLE_IN_PROGRESS()": "c2b8d761",
			"getPlayerNumbers(address)": "dcee3b2a",
			"getRaffleWinnerNumber(address)": "bf07a889",
			"launchRaffle(address)": "fbc28335",
			"rawFulfillRandomWords(uint256,uint256[])": "1fe543e3",
			"restartRaffle(address)": "4ce585c0",
			"setNewRafflePlayingSpot(address,uint256)": "1d09da46"
		}
	},
	"abi": [
		{
			"inputs": [
				{
					"internalType": "address",
					"name": "raffleManager",
					"type": "address"
				},
				{
					"internalType": "uint64",
					"name": "subscriptionId",
					"type": "uint64"
				}
			],
			"stateMutability": "nonpayable",
			"type": "constructor"
		},
		{
			"inputs": [
				{
					"internalType": "address",
					"name": "have",
					"type": "address"
				},
				{
					"internalType": "address",
					"name": "want",
					"type": "address"
				}
			],
			"name": "OnlyCoordinatorCanFulfill",
			"type": "error"
		},
		{
			"inputs": [],
			"name": "Unauthorized",
			"type": "error"
		},
		{
			"anonymous": false,
			"inputs": [
				{
					"indexed": true,
					"internalType": "uint256",
					"name": "requestId",
					"type": "uint256"
				},
				{
					"indexed": true,
					"internalType": "address",
					"name": "raffleOperatorAddress",
					"type": "address"
				},
				{
					"indexed": true,
					"internalType": "uint256",
					"name": "result",
					"type": "uint256"
				}
			],
			"name": "RaffleLanded",
			"type": "event"
		},
		{
			"anonymous": false,
			"inputs": [
				{
					"indexed": true,
					"internalType": "uint256",
					"name": "requestId",
					"type": "uint256"
				},
				{
					"indexed": true,
					"internalType": "address",
					"name": "raffleOperatorAddress",
					"type": "address"
				}
			],
			"name": "RaffleLaunched",
			"type": "event"
		},
		{
			"inputs": [],
			"name": "RAFFLE_IN_PROGRESS",
			"outputs": [
				{
					"internalType": "uint256",
					"name": "",
					"type": "uint256"
				}
			],
			"stateMutability": "view",
			"type": "function"
		},
		{
			"inputs": [
				{
					"internalType": "address",
					"name": "_raffleOperator",
					"type": "address"
				}
			],
			"name": "getPlayerNumbers",
			"outputs": [
				{
					"internalType": "uint256[]",
					"name": "_currentRafflePlayerNumbers",
					"type": "uint256[]"
				}
			],
			"stateMutability": "view",
			"type": "function"
		},
		{
			"inputs": [
				{
					"internalType": "address",
					"name": "_raffleOperator",
					"type": "address"
				}
			],
			"name": "getRaffleWinnerNumber",
			"outputs": [
				{
					"internalType": "uint256",
					"name": "_raffleWinnerNumber",
					"type": "uint256"
				}
			],
			"stateMutability": "view",
			"type": "function"
		},
		{
			"inputs": [
				{
					"internalType": "address",
					"name": "_raffleOperator",
					"type": "address"
				}
			],
			"name": "launchRaffle",
			"outputs": [
				{
					"internalType": "uint256",
					"name": "requestId",
					"type": "uint256"
				}
			],
			"stateMutability": "nonpayable",
			"type": "function"
		},
		{
			"inputs": [
				{
					"internalType": "uint256",
					"name": "requestId",
					"type": "uint256"
				},
				{
					"internalType": "uint256[]",
					"name": "randomWords",
					"type": "uint256[]"
				}
			],
			"name": "rawFulfillRandomWords",
			"outputs": [],
			"stateMutability": "nonpayable",
			"type": "function"
		},
		{
			"inputs": [
				{
					"internalType": "address",
					"name": "_raffleOperator",
					"type": "address"
				}
			],
			"name": "restartRaffle",
			"outputs": [
				{
					"internalType": "bool",
					"name": "_raffleRestarted",
					"type": "bool"
				}
			],
			"stateMutability": "nonpayable",
			"type": "function"
		},
		{
			"inputs": [
				{
					"internalType": "address",
					"name": "_raffleOperator",
					"type": "address"
				},
				{
					"internalType": "uint256",
					"name": "_playerNumber",
					"type": "uint256"
				}
			],
			"name": "setNewRafflePlayingSpot",
			"outputs": [
				{
					"internalType": "bool",
					"name": "_success",
					"type": "bool"
				}
			],
			"stateMutability": "nonpayable",
			"type": "function"
		}
	]
}